{
  "_format": "hh3-artifact-1",
  "contractName": "NFTCollection",
  "sourceName": "contracts/NFTCollection.sol",
  "abi": [
    {
      "inputs": [
        {
          "internalType": "string",
          "name": "name_",
          "type": "string"
        },
        {
          "internalType": "string",
          "name": "symbol_",
          "type": "string"
        },
        {
          "internalType": "string",
          "name": "baseURI_",
          "type": "string"
        },
        {
          "internalType": "address",
          "name": "creator_",
          "type": "address"
        },
        {
          "internalType": "uint256",
          "name": "maxSupply_",
          "type": "uint256"
        },
        {
          "internalType": "string",
          "name": "description_",
          "type": "string"
        }
      ],
      "stateMutability": "nonpayable",
      "type": "constructor"
    },
    {
      "inputs": [],
      "name": "ERC721EnumerableForbiddenBatchMint",
      "type": "error"
    },
    {
      "inputs": [
        {
          "internalType": "address",
          "name": "sender",
          "type": "address"
        },
        {
          "internalType": "uint256",
          "name": "tokenId",
          "type": "uint256"
        },
        {
          "internalType": "address",
          "name": "owner",
          "type": "address"
        }
      ],
      "name": "ERC721IncorrectOwner",
      "type": "error"
    },
    {
      "inputs": [
        {
          "internalType": "address",
          "name": "operator",
          "type": "address"
        },
        {
          "internalType": "uint256",
          "name": "tokenId",
          "type": "uint256"
        }
      ],
      "name": "ERC721InsufficientApproval",
      "type": "error"
    },
    {
      "inputs": [
        {
          "internalType": "address",
          "name": "approver",
          "type": "address"
        }
      ],
      "name": "ERC721InvalidApprover",
      "type": "error"
    },
    {
      "inputs": [
        {
          "internalType": "address",
          "name": "operator",
          "type": "address"
        }
      ],
      "name": "ERC721InvalidOperator",
      "type": "error"
    },
    {
      "inputs": [
        {
          "internalType": "address",
          "name": "owner",
          "type": "address"
        }
      ],
      "name": "ERC721InvalidOwner",
      "type": "error"
    },
    {
      "inputs": [
        {
          "internalType": "address",
          "name": "receiver",
          "type": "address"
        }
      ],
      "name": "ERC721InvalidReceiver",
      "type": "error"
    },
    {
      "inputs": [
        {
          "internalType": "address",
          "name": "sender",
          "type": "address"
        }
      ],
      "name": "ERC721InvalidSender",
      "type": "error"
    },
    {
      "inputs": [
        {
          "internalType": "uint256",
          "name": "tokenId",
          "type": "uint256"
        }
      ],
      "name": "ERC721NonexistentToken",
      "type": "error"
    },
    {
      "inputs": [
        {
          "internalType": "address",
          "name": "owner",
          "type": "address"
        },
        {
          "internalType": "uint256",
          "name": "index",
          "type": "uint256"
        }
      ],
      "name": "ERC721OutOfBoundsIndex",
      "type": "error"
    },
    {
      "inputs": [],
      "name": "EnforcedPause",
      "type": "error"
    },
    {
      "inputs": [],
      "name": "ExpectedPause",
      "type": "error"
    },
    {
      "inputs": [],
      "name": "InvalidRoyaltyPercentage",
      "type": "error"
    },
    {
      "inputs": [],
      "name": "MaxSupplyExceeded",
      "type": "error"
    },
    {
      "inputs": [],
      "name": "NotTokenOwnerOrApproved",
      "type": "error"
    },
    {
      "inputs": [
        {
          "internalType": "address",
          "name": "owner",
          "type": "address"
        }
      ],
      "name": "OwnableInvalidOwner",
      "type": "error"
    },
    {
      "inputs": [
        {
          "internalType": "address",
          "name": "account",
          "type": "address"
        }
      ],
      "name": "OwnableUnauthorizedAccount",
      "type": "error"
    },
    {
      "inputs": [],
      "name": "ReentrancyGuardReentrantCall",
      "type": "error"
    },
    {
      "inputs": [],
      "name": "TokenDoesNotExist",
      "type": "error"
    },
    {
      "anonymous": false,
      "inputs": [
        {
          "indexed": true,
          "internalType": "address",
          "name": "owner",
          "type": "address"
        },
        {
          "indexed": true,
          "internalType": "address",
          "name": "approved",
          "type": "address"
        },
        {
          "indexed": true,
          "internalType": "uint256",
          "name": "tokenId",
          "type": "uint256"
        }
      ],
      "name": "Approval",
      "type": "event"
    },
    {
      "anonymous": false,
      "inputs": [
        {
          "indexed": true,
          "internalType": "address",
          "name": "owner",
          "type": "address"
        },
        {
          "indexed": true,
          "internalType": "address",
          "name": "operator",
          "type": "address"
        },
        {
          "indexed": false,
          "internalType": "bool",
          "name": "approved",
          "type": "bool"
        }
      ],
      "name": "ApprovalForAll",
      "type": "event"
    },
    {
      "anonymous": false,
      "inputs": [
        {
          "indexed": false,
          "internalType": "string",
          "name": "newBaseURI",
          "type": "string"
        }
      ],
      "name": "BaseURIUpdated",
      "type": "event"
    },
    {
      "anonymous": false,
      "inputs": [
        {
          "indexed": false,
          "internalType": "uint256",
          "name": "_fromTokenId",
          "type": "uint256"
        },
        {
          "indexed": false,
          "internalType": "uint256",
          "name": "_toTokenId",
          "type": "uint256"
        }
      ],
      "name": "BatchMetadataUpdate",
      "type": "event"
    },
    {
      "anonymous": false,
      "inputs": [
        {
          "indexed": false,
          "internalType": "string",
          "name": "description",
          "type": "string"
        },
        {
          "indexed": false,
          "internalType": "string",
          "name": "externalUrl",
          "type": "string"
        }
      ],
      "name": "CollectionInfoUpdated",
      "type": "event"
    },
    {
      "anonymous": false,
      "inputs": [
        {
          "indexed": false,
          "internalType": "uint256",
          "name": "_tokenId",
          "type": "uint256"
        }
      ],
      "name": "MetadataUpdate",
      "type": "event"
    },
    {
      "anonymous": false,
      "inputs": [
        {
          "indexed": true,
          "internalType": "address",
          "name": "previousOwner",
          "type": "address"
        },
        {
          "indexed": true,
          "internalType": "address",
          "name": "newOwner",
          "type": "address"
        }
      ],
      "name": "OwnershipTransferred",
      "type": "event"
    },
    {
      "anonymous": false,
      "inputs": [
        {
          "indexed": false,
          "internalType": "address",
          "name": "account",
          "type": "address"
        }
      ],
      "name": "Paused",
      "type": "event"
    },
    {
      "anonymous": false,
      "inputs": [
        {
          "indexed": true,
          "internalType": "uint256",
          "name": "tokenId",
          "type": "uint256"
        },
        {
          "indexed": false,
          "internalType": "uint256",
          "name": "royaltyBps",
          "type": "uint256"
        }
      ],
      "name": "RoyaltySet",
      "type": "event"
    },
    {
      "anonymous": false,
      "inputs": [
        {
          "indexed": true,
          "internalType": "uint256",
          "name": "tokenId",
          "type": "uint256"
        },
        {
          "indexed": true,
          "internalType": "address",
          "name": "to",
          "type": "address"
        },
        {
          "indexed": false,
          "internalType": "string",
          "name": "tokenURI",
          "type": "string"
        }
      ],
      "name": "TokenMinted",
      "type": "event"
    },
    {
      "anonymous": false,
      "inputs": [
        {
          "indexed": true,
          "internalType": "address",
          "name": "from",
          "type": "address"
        },
        {
          "indexed": true,
          "internalType": "address",
          "name": "to",
          "type": "address"
        },
        {
          "indexed": true,
          "internalType": "uint256",
          "name": "tokenId",
          "type": "uint256"
        }
      ],
      "name": "Transfer",
      "type": "event"
    },
    {
      "anonymous": false,
      "inputs": [
        {
          "indexed": false,
          "internalType": "address",
          "name": "account",
          "type": "address"
        }
      ],
      "name": "Unpaused",
      "type": "event"
    },
    {
      "inputs": [
        {
          "internalType": "address",
          "name": "to",
          "type": "address"
        },
        {
          "internalType": "uint256",
          "name": "tokenId",
          "type": "uint256"
        }
      ],
      "name": "approve",
      "outputs": [],
      "stateMutability": "nonpayable",
      "type": "function"
    },
    {
      "inputs": [
        {
          "internalType": "address",
          "name": "owner",
          "type": "address"
        }
      ],
      "name": "balanceOf",
      "outputs": [
        {
          "internalType": "uint256",
          "name": "",
          "type": "uint256"
        }
      ],
      "stateMutability": "view",
      "type": "function"
    },
    {
      "inputs": [
        {
          "internalType": "address",
          "name": "to",
          "type": "address"
        },
        {
          "internalType": "string[]",
          "name": "tokenURIs",
          "type": "string[]"
        },
        {
          "internalType": "uint256",
          "name": "royaltyBps",
          "type": "uint256"
        }
      ],
      "name": "batchMintNFT",
      "outputs": [
        {
          "internalType": "uint256[]",
          "name": "",
          "type": "uint256[]"
        }
      ],
      "stateMutability": "nonpayable",
      "type": "function"
    },
    {
      "inputs": [
        {
          "internalType": "uint256",
          "name": "tokenId",
          "type": "uint256"
        }
      ],
      "name": "burn",
      "outputs": [],
      "stateMutability": "nonpayable",
      "type": "function"
    },
    {
      "inputs": [],
      "name": "description",
      "outputs": [
        {
          "internalType": "string",
          "name": "",
          "type": "string"
        }
      ],
      "stateMutability": "view",
      "type": "function"
    },
    {
      "inputs": [],
      "name": "externalUrl",
      "outputs": [
        {
          "internalType": "string",
          "name": "",
          "type": "string"
        }
      ],
      "stateMutability": "view",
      "type": "function"
    },
    {
      "inputs": [
        {
          "internalType": "uint256",
          "name": "tokenId",
          "type": "uint256"
        }
      ],
      "name": "getApproved",
      "outputs": [
        {
          "internalType": "address",
          "name": "",
          "type": "address"
        }
      ],
      "stateMutability": "view",
      "type": "function"
    },
    {
      "inputs": [],
      "name": "getCollectionStats",
      "outputs": [
        {
          "internalType": "uint256",
          "name": "totalSupply_",
          "type": "uint256"
        },
        {
          "internalType": "uint256",
          "name": "totalMinted_",
          "type": "uint256"
        },
        {
          "internalType": "uint256",
          "name": "maxSupply_",
          "type": "uint256"
        },
        {
          "internalType": "address",
          "name": "creator",
          "type": "address"
        },
        {
          "internalType": "string",
          "name": "description_",
          "type": "string"
        },
        {
          "internalType": "string",
          "name": "externalUrl_",
          "type": "string"
        }
      ],
      "stateMutability": "view",
      "type": "function"
    },
    {
      "inputs": [
        {
          "internalType": "uint256",
          "name": "tokenId",
          "type": "uint256"
        }
      ],
      "name": "getTokenRoyalty",
      "outputs": [
        {
          "internalType": "address",
          "name": "creator",
          "type": "address"
        },
        {
          "internalType": "uint256",
          "name": "royaltyBps",
          "type": "uint256"
        }
      ],
      "stateMutability": "view",
      "type": "function"
    },
    {
      "inputs": [
        {
          "internalType": "address",
          "name": "owner",
          "type": "address"
        },
        {
          "internalType": "address",
          "name": "operator",
          "type": "address"
        }
      ],
      "name": "isApprovedForAll",
      "outputs": [
        {
          "internalType": "bool",
          "name": "",
          "type": "bool"
        }
      ],
      "stateMutability": "view",
      "type": "function"
    },
    {
      "inputs": [],
      "name": "maxSupply",
      "outputs": [
        {
          "internalType": "uint256",
          "name": "",
          "type": "uint256"
        }
      ],
      "stateMutability": "view",
      "type": "function"
    },
    {
      "inputs": [
        {
          "internalType": "address",
          "name": "to",
          "type": "address"
        },
        {
          "internalType": "string",
          "name": "ipfsCID",
          "type": "string"
        },
        {
          "internalType": "uint256",
          "name": "royaltyBps",
          "type": "uint256"
        }
      ],
      "name": "mintNFT",
      "outputs": [
        {
          "internalType": "uint256",
          "name": "",
          "type": "uint256"
        }
      ],
      "stateMutability": "nonpayable",
      "type": "function"
    },
    {
      "inputs": [],
      "name": "name",
      "outputs": [
        {
          "internalType": "string",
          "name": "",
          "type": "string"
        }
      ],
      "stateMutability": "view",
      "type": "function"
    },
    {
      "inputs": [],
      "name": "owner",
      "outputs": [
        {
          "internalType": "address",
          "name": "",
          "type": "address"
        }
      ],
      "stateMutability": "view",
      "type": "function"
    },
    {
      "inputs": [
        {
          "internalType": "uint256",
          "name": "tokenId",
          "type": "uint256"
        }
      ],
      "name": "ownerOf",
      "outputs": [
        {
          "internalType": "address",
          "name": "",
          "type": "address"
        }
      ],
      "stateMutability": "view",
      "type": "function"
    },
    {
      "inputs": [],
      "name": "pause",
      "outputs": [],
      "stateMutability": "nonpayable",
      "type": "function"
    },
    {
      "inputs": [],
      "name": "paused",
      "outputs": [
        {
          "internalType": "bool",
          "name": "",
          "type": "bool"
        }
      ],
      "stateMutability": "view",
      "type": "function"
    },
    {
      "inputs": [],
      "name": "renounceOwnership",
      "outputs": [],
      "stateMutability": "nonpayable",
      "type": "function"
    },
    {
      "inputs": [
        {
          "internalType": "address",
          "name": "from",
          "type": "address"
        },
        {
          "internalType": "address",
          "name": "to",
          "type": "address"
        },
        {
          "internalType": "uint256",
          "name": "tokenId",
          "type": "uint256"
        }
      ],
      "name": "safeTransferFrom",
      "outputs": [],
      "stateMutability": "nonpayable",
      "type": "function"
    },
    {
      "inputs": [
        {
          "internalType": "address",
          "name": "from",
          "type": "address"
        },
        {
          "internalType": "address",
          "name": "to",
          "type": "address"
        },
        {
          "internalType": "uint256",
          "name": "tokenId",
          "type": "uint256"
        },
        {
          "internalType": "bytes",
          "name": "data",
          "type": "bytes"
        }
      ],
      "name": "safeTransferFrom",
      "outputs": [],
      "stateMutability": "nonpayable",
      "type": "function"
    },
    {
      "inputs": [
        {
          "internalType": "address",
          "name": "operator",
          "type": "address"
        },
        {
          "internalType": "bool",
          "name": "approved",
          "type": "bool"
        }
      ],
      "name": "setApprovalForAll",
      "outputs": [],
      "stateMutability": "nonpayable",
      "type": "function"
    },
    {
      "inputs": [
        {
          "internalType": "string",
          "name": "newBaseURI",
          "type": "string"
        }
      ],
      "name": "setBaseURI",
      "outputs": [],
      "stateMutability": "nonpayable",
      "type": "function"
    },
    {
      "inputs": [
        {
          "internalType": "uint256",
          "name": "tokenId",
          "type": "uint256"
        },
        {
          "internalType": "uint256",
          "name": "royaltyBps",
          "type": "uint256"
        }
      ],
      "name": "setTokenRoyalty",
      "outputs": [],
      "stateMutability": "nonpayable",
      "type": "function"
    },
    {
      "inputs": [
        {
          "internalType": "bytes4",
          "name": "interfaceId",
          "type": "bytes4"
        }
      ],
      "name": "supportsInterface",
      "outputs": [
        {
          "internalType": "bool",
          "name": "",
          "type": "bool"
        }
      ],
      "stateMutability": "view",
      "type": "function"
    },
    {
      "inputs": [],
      "name": "symbol",
      "outputs": [
        {
          "internalType": "string",
          "name": "",
          "type": "string"
        }
      ],
      "stateMutability": "view",
      "type": "function"
    },
    {
      "inputs": [
        {
          "internalType": "uint256",
          "name": "index",
          "type": "uint256"
        }
      ],
      "name": "tokenByIndex",
      "outputs": [
        {
          "internalType": "uint256",
          "name": "",
          "type": "uint256"
        }
      ],
      "stateMutability": "view",
      "type": "function"
    },
    {
      "inputs": [
        {
          "internalType": "uint256",
          "name": "",
          "type": "uint256"
        }
      ],
      "name": "tokenCreators",
      "outputs": [
        {
          "internalType": "address",
          "name": "",
          "type": "address"
        }
      ],
      "stateMutability": "view",
      "type": "function"
    },
    {
      "inputs": [
        {
          "internalType": "address",
          "name": "owner",
          "type": "address"
        },
        {
          "internalType": "uint256",
          "name": "index",
          "type": "uint256"
        }
      ],
      "name": "tokenOfOwnerByIndex",
      "outputs": [
        {
          "internalType": "uint256",
          "name": "",
          "type": "uint256"
        }
      ],
      "stateMutability": "view",
      "type": "function"
    },
    {
      "inputs": [
        {
          "internalType": "uint256",
          "name": "",
          "type": "uint256"
        }
      ],
      "name": "tokenRoyalties",
      "outputs": [
        {
          "internalType": "uint256",
          "name": "",
          "type": "uint256"
        }
      ],
      "stateMutability": "view",
      "type": "function"
    },
    {
      "inputs": [
        {
          "internalType": "uint256",
          "name": "tokenId",
          "type": "uint256"
        }
      ],
      "name": "tokenURI",
      "outputs": [
        {
          "internalType": "string",
          "name": "",
          "type": "string"
        }
      ],
      "stateMutability": "view",
      "type": "function"
    },
    {
      "inputs": [],
      "name": "totalMinted",
      "outputs": [
        {
          "internalType": "uint256",
          "name": "",
          "type": "uint256"
        }
      ],
      "stateMutability": "view",
      "type": "function"
    },
    {
      "inputs": [],
      "name": "totalSupply",
      "outputs": [
        {
          "internalType": "uint256",
          "name": "",
          "type": "uint256"
        }
      ],
      "stateMutability": "view",
      "type": "function"
    },
    {
      "inputs": [
        {
          "internalType": "address",
          "name": "from",
          "type": "address"
        },
        {
          "internalType": "address",
          "name": "to",
          "type": "address"
        },
        {
          "internalType": "uint256",
          "name": "tokenId",
          "type": "uint256"
        }
      ],
      "name": "transferFrom",
      "outputs": [],
      "stateMutability": "nonpayable",
      "type": "function"
    },
    {
      "inputs": [
        {
          "internalType": "address",
          "name": "newOwner",
          "type": "address"
        }
      ],
      "name": "transferOwnership",
      "outputs": [],
      "stateMutability": "nonpayable",
      "type": "function"
    },
    {
      "inputs": [],
      "name": "unpause",
      "outputs": [],
      "stateMutability": "nonpayable",
      "type": "function"
    },
    {
      "inputs": [
        {
          "internalType": "string",
          "name": "newDescription",
          "type": "string"
        },
        {
          "internalType": "string",
          "name": "newExternalUrl",
          "type": "string"
        }
      ],
      "name": "updateCollectionInfo",
      "outputs": [],
      "stateMutability": "nonpayable",
      "type": "function"
    }
  ],
  "bytecode": "0x608060405234801561001057600080fd5b5060405161299938038061299983398101604081905261002f916101e2565b828686600061003e8382610345565b50600161004b8282610345565b5050506001600160a01b03811661007c57604051631e4fbdf760e01b81526000600482015260240160405180910390fd5b610085816100bb565b506001600c55600e6100978582610345565b50601082905560116100a98282610345565b50506001600f55506104039350505050565b600b80546001600160a01b038381166001600160a01b0319831681179093556040519116919082907f8be0079c531659141344cd1fd0a4f28419497f9722a3daafe3b4186f6b6457e090600090a35050565b634e487b7160e01b600052604160045260246000fd5b600082601f83011261013457600080fd5b81516001600160401b0381111561014d5761014d61010d565b604051601f8201601f19908116603f011681016001600160401b038111828210171561017b5761017b61010d565b60405281815283820160200185101561019357600080fd5b60005b828110156101b257602081860181015183830182015201610196565b506000918101602001919091529392505050565b80516001600160a01b03811681146101dd57600080fd5b919050565b60008060008060008060c087890312156101fb57600080fd5b86516001600160401b0381111561021157600080fd5b61021d89828a01610123565b602089015190975090506001600160401b0381111561023b57600080fd5b61024789828a01610123565b604089015190965090506001600160401b0381111561026557600080fd5b61027189828a01610123565b945050610280606088016101c6565b608088015160a089015191945092506001600160401b038111156102a357600080fd5b6102af89828a01610123565b9150509295509295509295565b600181811c908216806102d057607f821691505b6020821081036102f057634e487b7160e01b600052602260045260246000fd5b50919050565b601f82111561034057806000526020600020601f840160051c8101602085101561031d5750805b601f840160051c820191505b8181101561033d5760008155600101610329565b50505b505050565b81516001600160401b0381111561035e5761035e61010d565b6103728161036c84546102bc565b846102f6565b6020601f8211600181146103a6576000831561038e5750848201515b600019600385901b1c1916600184901b17845561033d565b600084815260208120601f198516915b828110156103d657878501518255602094850194600190920191016103b6565b50848210156103f45786840151600019600387901b60f8161c191681555b50505050600190811b01905550565b612587806104126000396000f3fe608060405234801561001057600080fd5b506004361061021c5760003560e01c8063715018a611610125578063b88d4fde116100ad578063d5abeb011161007c578063d5abeb011461047e578063e0fd045f14610487578063e985e9c5146104b0578063f24a3ae6146104c3578063f2fde38b146104e357600080fd5b8063b88d4fde14610425578063bc189d3814610438578063c87b56dd1461044b578063cb53b24b1461045e57600080fd5b80638da5cb5b116100f45780638da5cb5b146103e95780638fc73484146103fa57806395d89b4114610402578063a22cb4651461040a578063a2309ff81461041d57600080fd5b8063715018a61461039f5780637284e416146103a7578063833b7b78146103af5780638456cb59146103e157600080fd5b80633f4ba83a116101a857806355f804b31161017757806355f804b3146103415780635894bd51146103545780635c975abb1461036e5780636352211e1461037957806370a082311461038c57600080fd5b80633f4ba83a1461030057806342842e0e1461030857806342966c681461031b5780634f6ccce71461032e57600080fd5b8063095ea7b3116101ef578063095ea7b3146102aa57806318160ddd146102bf57806323b872dd146102c75780632f745c59146102da5780633b89105d146102ed57600080fd5b806301ffc9a71461022157806306fdde0314610249578063081812fc1461025e57806308598df014610289575b600080fd5b61023461022f366004611d65565b6104f6565b60405190151581526020015b60405180910390f35b610251610507565b6040516102409190611dd2565b61027161026c366004611de5565b610599565b6040516001600160a01b039091168152602001610240565b61029c610297366004611edb565b6105c2565b604051908152602001610240565b6102bd6102b8366004611f32565b610720565b005b60095461029c565b6102bd6102d5366004611f5c565b61072f565b61029c6102e8366004611f32565b6107bf565b6102bd6102fb366004611f99565b610824565b6102bd610883565b6102bd610316366004611f5c565b610895565b6102bd610329366004611de5565b6108b5565b61029c61033c366004611de5565b6108fa565b6102bd61034f366004612000565b610953565b61035c6109a2565b60405161024096959493929190612034565b600d5460ff16610234565b610271610387366004611de5565b610b02565b61029c61039a366004612086565b610b0d565b6102bd610b55565b610251610b67565b6103c26103bd366004611de5565b610bf5565b604080516001600160a01b039093168352602083019190915201610240565b6102bd610c57565b600b546001600160a01b0316610271565b610251610c67565b610251610c74565b6102bd6104183660046120a1565b610c83565b61029c610c8e565b6102bd6104333660046120dd565b610ca4565b6102bd610446366004612158565b610cbc565b610251610459366004611de5565b610d6d565b61029c61046c366004611de5565b60146020526000908152604090205481565b61029c60105481565b610271610495366004611de5565b6013602052600090815260409020546001600160a01b031681565b6102346104be36600461217a565b610d78565b6104d66104d13660046121ad565b610da6565b6040516102409190612297565b6102bd6104f1366004612086565b610fcc565b600061050182611007565b92915050565b606060008054610516906122da565b80601f0160208091040260200160405190810160405280929190818152602001828054610542906122da565b801561058f5780601f106105645761010080835404028352916020019161058f565b820191906000526020600020905b81548152906001019060200180831161057257829003601f168201915b5050505050905090565b60006105a48261102c565b506000828152600460205260409020546001600160a01b0316610501565b60006105cc611065565b6105d4611092565b6105dc6110bc565b60006010541180156105f15750601054600f54115b1561060f57604051638a164f6360e01b815260040160405180910390fd5b6103e88211156106325760405163134aed6960e21b815260040160405180910390fd5b600f805490819060006106448361232a565b919050555061065385826110e0565b61065d81856110fa565b600b54600082815260136020908152604080832080546001600160a01b0319166001600160a01b03958616179055601490915290819020859055519086169082907fec2cd236ed6d37bf5a71276ac93889db12834493a090efd543a3d2eca8dcdcc8906106cb908890611dd2565b60405180910390a3807f2f38e4d1636e7779ad62cfa88be99a558be72503fa6916e4ea7ff7cc6a91b6e68460405161070591815260200190565b60405180910390a290506107196001600c55565b9392505050565b61072b828233611143565b5050565b6001600160a01b03821661075e57604051633250574960e11b8152600060048201526024015b60405180910390fd5b600061076b838333611150565b9050836001600160a01b0316816001600160a01b0316146107b9576040516364283d7b60e01b81526001600160a01b0380861660048301526024820184905282166044820152606401610755565b50505050565b60006107ca83610b0d565b82106107fb5760405163295f44f760e21b81526001600160a01b038416600482015260248101839052604401610755565b506001600160a01b03919091166000908152600760209081526040808320938352929052205490565b61082c611065565b6011610838838261238a565b506012610845828261238a565b507f12508d6b74d6bda6f8eacc67129e4a2c476ece1f908a1b2bf4aaed7e485396878282604051610877929190612448565b60405180910390a15050565b61088b611065565b610893611165565b565b6108b083838360405180602001604052806000815250610ca4565b505050565b6108d16108ca600b546001600160a01b031690565b33836111b7565b6108ee57604051634cd9539b60e11b815260040160405180910390fd5b6108f78161121a565b50565b600061090560095490565b821061092e5760405163295f44f760e21b81526000600482015260248101839052604401610755565b6009828154811061094157610941612476565b90600052602060002001549050919050565b61095b611065565b600e610967828261238a565b507f6741b2fc379fad678116fe3d4d4b9a1a184ab53ba36b86ad0fa66340b1ab41ad816040516109979190611dd2565b60405180910390a150565b6000806000806060806109b460095490565b6001600f546109c3919061248c565b601054600b546001600160a01b0316601160128180546109e2906122da565b80601f0160208091040260200160405190810160405280929190818152602001828054610a0e906122da565b8015610a5b5780601f10610a3057610100808354040283529160200191610a5b565b820191906000526020600020905b815481529060010190602001808311610a3e57829003601f168201915b50505050509150808054610a6e906122da565b80601f0160208091040260200160405190810160405280929190818152602001828054610a9a906122da565b8015610ae75780601f10610abc57610100808354040283529160200191610ae7565b820191906000526020600020905b815481529060010190602001808311610aca57829003601f168201915b50505050509050955095509550955095509550909192939495565b60006105018261102c565b60006001600160a01b038216610b39576040516322718ad960e21b815260006004820152602401610755565b506001600160a01b031660009081526003602052604090205490565b610b5d611065565b6108936000611255565b60118054610b74906122da565b80601f0160208091040260200160405190810160405280929190818152602001828054610ba0906122da565b8015610bed5780601f10610bc257610100808354040283529160200191610bed565b820191906000526020600020905b815481529060010190602001808311610bd057829003601f168201915b505050505081565b60008181526002602052604081205481906001600160a01b0316610c2c5760405163677510db60e11b815260040160405180910390fd5b50506000908152601360209081526040808320546014909252909120546001600160a01b0390911691565b610c5f611065565b6108936112a7565b60128054610b74906122da565b606060018054610516906122da565b61072b3383836112e4565b60006001600f54610c9f919061248c565b905090565b610caf84848461072f565b6107b93385858585611383565b610cc4611065565b6000828152600260205260409020546001600160a01b0316610cf95760405163677510db60e11b815260040160405180910390fd5b6103e8811115610d1c5760405163134aed6960e21b815260040160405180910390fd5b600082815260146020526040908190208290555182907f2f38e4d1636e7779ad62cfa88be99a558be72503fa6916e4ea7ff7cc6a91b6e690610d619084815260200190565b60405180910390a25050565b6060610501826114ae565b6001600160a01b03918216600090815260056020908152604080832093909416825291909152205460ff1690565b6060610db0611065565b610db8611092565b610dc06110bc565b825160105415801590610ded5750601054600182600f54610de1919061249f565b610deb919061248c565b115b15610e0b57604051638a164f6360e01b815260040160405180910390fd5b6103e8831115610e2e5760405163134aed6960e21b815260040160405180910390fd5b6000816001600160401b03811115610e4857610e48611e1a565b604051908082528060200260200182016040528015610e71578160200160208202803683370190505b50905060005b82811015610f8357600f80549081906000610e918361232a565b9190505550610ea088826110e0565b610ec381888481518110610eb657610eb6612476565b60200260200101516110fa565b600b54600082815260136020908152604080832080546001600160a01b0319166001600160a01b0390951694909417909355601490522086905582518190849084908110610f1357610f13612476565b602002602001018181525050876001600160a01b0316817fec2cd236ed6d37bf5a71276ac93889db12834493a090efd543a3d2eca8dcdcc8898581518110610f5d57610f5d612476565b6020026020010151604051610f729190611dd2565b60405180910390a350600101610e77565b5060007f2f38e4d1636e7779ad62cfa88be99a558be72503fa6916e4ea7ff7cc6a91b6e685604051610fb791815260200190565b60405180910390a29150506107196001600c55565b610fd4611065565b6001600160a01b038116610ffe57604051631e4fbdf760e01b815260006004820152602401610755565b6108f781611255565b60006001600160e01b0319821663780e9d6360e01b14806105015750610501826115aa565b6000818152600260205260408120546001600160a01b03168061050157604051637e27328960e01b815260048101849052602401610755565b600b546001600160a01b031633146108935760405163118cdaa760e01b8152336004820152602401610755565b6002600c54036110b557604051633ee5aeb560e01b815260040160405180910390fd5b6002600c55565b600d5460ff16156108935760405163d93c066560e01b815260040160405180910390fd5b61072b8282604051806020016040528060008152506115cf565b6000828152600660205260409020611112828261238a565b506040518281527ff8e1a15aba9398e019f0b49df1a4fde98ee17ae345cb5f6b5e2c27f5033e8ce790602001610877565b6108b083838360016115e7565b600061115d8484846116ed565b949350505050565b61116d6117ba565b600d805460ff191690557f5db9ee0a495bf2e6ff9c91a7834c1ba4fdd244a5e8aa4e537bd38aeae4b073aa335b6040516001600160a01b03909116815260200160405180910390a1565b60006001600160a01b0383161580159061115d5750826001600160a01b0316846001600160a01b031614806111f157506111f18484610d78565b8061115d5750506000908152600460205260409020546001600160a01b03908116911614919050565b60006112296000836000611150565b90506001600160a01b03811661072b57604051637e27328960e01b815260048101839052602401610755565b600b80546001600160a01b038381166001600160a01b0319831681179093556040519116919082907f8be0079c531659141344cd1fd0a4f28419497f9722a3daafe3b4186f6b6457e090600090a35050565b6112af6110bc565b600d805460ff191660011790557f62e78cea01bee320cd4e420270b5ea74000d11b0c9f74754ebdbfc544b05a25861119a3390565b6001600160a01b03821661131657604051630b61174360e31b81526001600160a01b0383166004820152602401610755565b6001600160a01b03838116600081815260056020908152604080832094871680845294825291829020805460ff191686151590811790915591519182527f17307eab39ab6107e8899845ad3d59bd9653f200f220920489ca2b5937696c31910160405180910390a3505050565b6001600160a01b0383163b156114a757604051630a85bd0160e11b81526001600160a01b0384169063150b7a02906113c59088908890879087906004016124b2565b6020604051808303816000875af1925050508015611400575060408051601f3d908101601f191682019092526113fd918101906124ef565b60015b611469573d80801561142e576040519150601f19603f3d011682016040523d82523d6000602084013e611433565b606091505b50805160000361146157604051633250574960e11b81526001600160a01b0385166004820152602401610755565b805160208201fd5b6001600160e01b03198116630a85bd0160e11b146114a557604051633250574960e11b81526001600160a01b0385166004820152602401610755565b505b5050505050565b60606114b98261102c565b50600082815260066020526040812080546114d3906122da565b80601f01602080910402602001604051908101604052809291908181526020018280546114ff906122da565b801561154c5780601f106115215761010080835404028352916020019161154c565b820191906000526020600020905b81548152906001019060200180831161152f57829003601f168201915b50505050509050600061155d6117dd565b9050805160000361156f575092915050565b8151156115a157808260405160200161158992919061250c565b60405160208183030381529060405292505050919050565b61115d846117ec565b60006001600160e01b03198216632483248360e11b1480610501575061050182611853565b6115d983836118a3565b6108b0336000858585611383565b80806115fb57506001600160a01b03821615155b156116bd57600061160b8461102c565b90506001600160a01b038316158015906116375750826001600160a01b0316816001600160a01b031614155b801561164a57506116488184610d78565b155b156116735760405163a9fbf51f60e01b81526001600160a01b0384166004820152602401610755565b81156116bb5783856001600160a01b0316826001600160a01b03167f8c5be1e5ebec7d5bd14f71427d1e84f3dd0314c0f7b2291e5b200ac8c7c3b92560405160405180910390a45b505b5050600090815260046020526040902080546001600160a01b0319166001600160a01b0392909216919091179055565b6000806116fb858585611908565b90506001600160a01b0381166117585761175384600980546000838152600a60205260408120829055600182018355919091527f6e1540171b6c0c960b71a7020d9f60077f6af931a8bbf590da0223dacf75c7af0155565b61177b565b846001600160a01b0316816001600160a01b03161461177b5761177b8185611a01565b6001600160a01b0385166117975761179284611a82565b61115d565b846001600160a01b0316816001600160a01b03161461115d5761115d8585611b31565b600d5460ff1661089357604051638dfc202b60e01b815260040160405180910390fd5b6060600e8054610516906122da565b60606117f78261102c565b5060006118026117dd565b905060008151116118225760405180602001604052806000815250610719565b8061182c84611b81565b60405160200161183d92919061250c565b6040516020818303038152906040529392505050565b60006001600160e01b031982166380ac58cd60e01b148061188457506001600160e01b03198216635b5e139f60e01b145b8061050157506301ffc9a760e01b6001600160e01b0319831614610501565b6001600160a01b0382166118cd57604051633250574960e11b815260006004820152602401610755565b60006118db83836000611150565b90506001600160a01b038116156108b0576040516339e3563760e11b815260006004820152602401610755565b6000828152600260205260408120546001600160a01b039081169083161561193557611935818486611c13565b6001600160a01b03811615611973576119526000856000806115e7565b6001600160a01b038116600090815260036020526040902080546000190190555b6001600160a01b038516156119a2576001600160a01b0385166000908152600360205260409020805460010190555b60008481526002602052604080822080546001600160a01b0319166001600160a01b0389811691821790925591518793918516917fddf252ad1be2c89b69c2b068fc378daa952ba7f163c4a11628f55a4df523b3ef91a4949350505050565b6000611a0c83610b0d565b6000838152600860209081526040808320546001600160a01b0388168452600790925290912091925090818314611a6357600083815260208281526040808320548584528184208190558352600890915290208290555b6000938452600860209081526040808620869055938552525081205550565b600954600090611a949060019061248c565b6000838152600a602052604081205460098054939450909284908110611abc57611abc612476565b906000526020600020015490508060098381548110611add57611add612476565b6000918252602080832090910192909255828152600a90915260408082208490558582528120556009805480611b1557611b1561253b565b6001900381819060005260206000200160009055905550505050565b60006001611b3e84610b0d565b611b48919061248c565b6001600160a01b039093166000908152600760209081526040808320868452825280832085905593825260089052919091209190915550565b60606000611b8e83611c77565b60010190506000816001600160401b03811115611bad57611bad611e1a565b6040519080825280601f01601f191660200182016040528015611bd7576020820181803683370190505b5090508181016020015b600019016f181899199a1a9b1b9c1cb0b131b232b360811b600a86061a8153600a8504945084611be157509392505050565b611c1e8383836111b7565b6108b0576001600160a01b038316611c4c57604051637e27328960e01b815260048101829052602401610755565b60405163177e802f60e01b81526001600160a01b038316600482015260248101829052604401610755565b60008072184f03e93ff9f4daa797ed6e38ed64bf6a1f0160401b8310611cb65772184f03e93ff9f4daa797ed6e38ed64bf6a1f0160401b830492506040015b6d04ee2d6d415b85acef81000000008310611ce2576d04ee2d6d415b85acef8100000000830492506020015b662386f26fc100008310611d0057662386f26fc10000830492506010015b6305f5e1008310611d18576305f5e100830492506008015b6127108310611d2c57612710830492506004015b60648310611d3e576064830492506002015b600a83106105015760010192915050565b6001600160e01b0319811681146108f757600080fd5b600060208284031215611d7757600080fd5b813561071981611d4f565b60005b83811015611d9d578181015183820152602001611d85565b50506000910152565b60008151808452611dbe816020860160208601611d82565b601f01601f19169290920160200192915050565b6020815260006107196020830184611da6565b600060208284031215611df757600080fd5b5035919050565b80356001600160a01b0381168114611e1557600080fd5b919050565b634e487b7160e01b600052604160045260246000fd5b604051601f8201601f191681016001600160401b0381118282101715611e5857611e58611e1a565b604052919050565b6000806001600160401b03841115611e7a57611e7a611e1a565b50601f8301601f1916602001611e8f81611e30565b915050828152838383011115611ea457600080fd5b828260208301376000602084830101529392505050565b600082601f830112611ecc57600080fd5b61071983833560208501611e60565b600080600060608486031215611ef057600080fd5b611ef984611dfe565b925060208401356001600160401b03811115611f1457600080fd5b611f2086828701611ebb565b93969395505050506040919091013590565b60008060408385031215611f4557600080fd5b611f4e83611dfe565b946020939093013593505050565b600080600060608486031215611f7157600080fd5b611f7a84611dfe565b9250611f8860208501611dfe565b929592945050506040919091013590565b60008060408385031215611fac57600080fd5b82356001600160401b03811115611fc257600080fd5b611fce85828601611ebb565b92505060208301356001600160401b03811115611fea57600080fd5b611ff685828601611ebb565b9150509250929050565b60006020828403121561201257600080fd5b81356001600160401b0381111561202857600080fd5b61115d84828501611ebb565b86815285602082015284604082015260018060a01b038416606082015260c06080820152600061206760c0830185611da6565b82810360a08401526120798185611da6565b9998505050505050505050565b60006020828403121561209857600080fd5b61071982611dfe565b600080604083850312156120b457600080fd5b6120bd83611dfe565b9150602083013580151581146120d257600080fd5b809150509250929050565b600080600080608085870312156120f357600080fd5b6120fc85611dfe565b935061210a60208601611dfe565b92506040850135915060608501356001600160401b0381111561212c57600080fd5b8501601f8101871361213d57600080fd5b61214c87823560208401611e60565b91505092959194509250565b6000806040838503121561216b57600080fd5b50508035926020909101359150565b6000806040838503121561218d57600080fd5b61219683611dfe565b91506121a460208401611dfe565b90509250929050565b6000806000606084860312156121c257600080fd5b6121cb84611dfe565b925060208401356001600160401b038111156121e657600080fd5b8401601f810186136121f757600080fd5b80356001600160401b0381111561221057612210611e1a565b8060051b61222060208201611e30565b9182526020818401810192908101908984111561223c57600080fd5b6020850192505b838310156122825782356001600160401b0381111561226157600080fd5b6122708b602083890101611ebb565b83525060209283019290910190612243565b96999698505050506040949094013593505050565b602080825282518282018190526000918401906040840190835b818110156122cf5783518352602093840193909201916001016122b1565b509095945050505050565b600181811c908216806122ee57607f821691505b60208210810361230e57634e487b7160e01b600052602260045260246000fd5b50919050565b634e487b7160e01b600052601160045260246000fd5b60006001820161233c5761233c612314565b5060010190565b601f8211156108b057806000526020600020601f840160051c8101602085101561236a5750805b601f840160051c820191505b818110156114a75760008155600101612376565b81516001600160401b038111156123a3576123a3611e1a565b6123b7816123b184546122da565b84612343565b6020601f8211600181146123eb57600083156123d35750848201515b600019600385901b1c1916600184901b1784556114a7565b600084815260208120601f198516915b8281101561241b57878501518255602094850194600190920191016123fb565b50848210156124395786840151600019600387901b60f8161c191681555b50505050600190811b01905550565b60408152600061245b6040830185611da6565b828103602084015261246d8185611da6565b95945050505050565b634e487b7160e01b600052603260045260246000fd5b8181038181111561050157610501612314565b8082018082111561050157610501612314565b6001600160a01b03858116825284166020820152604081018390526080606082018190526000906124e590830184611da6565b9695505050505050565b60006020828403121561250157600080fd5b815161071981611d4f565b6000835161251e818460208801611d82565b835190830190612532818360208801611d82565b01949350505050565b634e487b7160e01b600052603160045260246000fdfea26469706673582212201de7c7f98da5c86aa1118e1b9acf55f6d432fb42f1ef3943e21655f655fd9d5864736f6c634300081c0033",
  "linkReferences": {},
  "deployedLinkReferences": {},
  "immutableReferences": {},
  "inputSourceName": "project/contracts/NFTCollection.sol",
  "buildInfoId": "solc-0_8_28-49563a43574c8d4ded1752d36d9bc462a8391a67"
}