{"project/contracts/MarketplaceFeeManager.sol":{"MarketplaceFeeManager":{"abi":[{"inputs":[{"internalType":"address","name":"initialOwner","type":"address"},{"internalType":"uint256","name":"initialFeeBps","type":"uint256"},{"internalType":"address","name":"initialFeeRecipient","type":"address"},{"internalType":"uint256","name":"initialMinimumFee","type":"uint256"}],"stateMutability":"nonpayable","type":"constructor"},{"inputs":[],"name":"EnforcedPause","type":"error"},{"inputs":[],"name":"ExpectedPause","type":"error"},{"inputs":[],"name":"InvalidFeePercentage","type":"error"},{"inputs":[],"name":"InvalidFeeRecipient","type":"error"},{"inputs":[],"name":"InvalidMinimumFee","type":"error"},{"inputs":[{"internalType":"address","name":"owner","type":"address"}],"name":"OwnableInvalidOwner","type":"error"},{"inputs":[{"internalType":"address","name":"account","type":"address"}],"name":"OwnableUnauthorizedAccount","type":"error"},{"inputs":[],"name":"ReentrancyGuardReentrantCall","type":"error"},{"inputs":[],"name":"UnauthorizedAccess","type":"error"},{"anonymous":false,"inputs":[{"indexed":false,"internalType":"address","name":"oldRecipient","type":"address"},{"indexed":false,"internalType":"address","name":"newRecipient","type":"address"}],"name":"FeeRecipientUpdated","type":"event"},{"anonymous":false,"inputs":[{"indexed":false,"internalType":"uint256","name":"oldFeeBps","type":"uint256"},{"indexed":false,"internalType":"uint256","name":"newFeeBps","type":"uint256"}],"name":"FeeUpdated","type":"event"},{"anonymous":false,"inputs":[{"indexed":false,"internalType":"address","name":"recipient","type":"address"},{"indexed":false,"internalType":"uint256","name":"amount","type":"uint256"}],"name":"FeesWithdrawn","type":"event"},{"anonymous":false,"inputs":[{"indexed":false,"internalType":"uint256","name":"oldMinimumFee","type":"uint256"},{"indexed":false,"internalType":"uint256","name":"newMinimumFee","type":"uint256"}],"name":"MinimumFeeUpdated","type":"event"},{"anonymous":false,"inputs":[{"indexed":true,"internalType":"address","name":"previousOwner","type":"address"},{"indexed":true,"internalType":"address","name":"newOwner","type":"address"}],"name":"OwnershipTransferred","type":"event"},{"anonymous":false,"inputs":[{"indexed":false,"internalType":"address","name":"account","type":"address"}],"name":"Paused","type":"event"},{"anonymous":false,"inputs":[{"indexed":false,"internalType":"address","name":"account","type":"address"}],"name":"Unpaused","type":"event"},{"inputs":[],"name":"MAX_FEE_BPS","outputs":[{"internalType":"uint256","name":"","type":"uint256"}],"stateMutability":"view","type":"function"},{"inputs":[{"internalType":"uint256","name":"salePrice","type":"uint256"}],"name":"calculateFeeBreakdown","outputs":[{"internalType":"uint256","name":"marketFee","type":"uint256"},{"internalType":"uint256","name":"sellerAmount","type":"uint256"}],"stateMutability":"view","type":"function"},{"inputs":[{"internalType":"uint256","name":"salePrice","type":"uint256"}],"name":"calculateMarketFee","outputs":[{"internalType":"uint256","name":"","type":"uint256"}],"stateMutability":"view","type":"function"},{"inputs":[{"internalType":"uint256","name":"amount","type":"uint256"}],"name":"emergencyWithdraw","outputs":[],"stateMutability":"nonpayable","type":"function"},{"inputs":[],"name":"feeRecipient","outputs":[{"internalType":"address","name":"","type":"address"}],"stateMutability":"view","type":"function"},{"inputs":[],"name":"getFeeInfo","outputs":[{"internalType":"uint256","name":"feeBps","type":"uint256"},{"internalType":"address","name":"recipient","type":"address"},{"internalType":"uint256","name":"minFee","type":"uint256"}],"stateMutability":"view","type":"function"},{"inputs":[],"name":"marketFeeBps","outputs":[{"internalType":"uint256","name":"","type":"uint256"}],"stateMutability":"view","type":"function"},{"inputs":[],"name":"minimumFee","outputs":[{"internalType":"uint256","name":"","type":"uint256"}],"stateMutability":"view","type":"function"},{"inputs":[],"name":"owner","outputs":[{"internalType":"address","name":"","type":"address"}],"stateMutability":"view","type":"function"},{"inputs":[],"name":"pause","outputs":[],"stateMutability":"nonpayable","type":"function"},{"inputs":[],"name":"paused","outputs":[{"internalType":"bool","name":"","type":"bool"}],"stateMutability":"view","type":"function"},{"inputs":[],"name":"renounceOwnership","outputs":[],"stateMutability":"nonpayable","type":"function"},{"inputs":[{"internalType":"address","name":"newOwner","type":"address"}],"name":"transferOwnership","outputs":[],"stateMutability":"nonpayable","type":"function"},{"inputs":[],"name":"unpause","outputs":[],"stateMutability":"nonpayable","type":"function"},{"inputs":[{"internalType":"address","name":"newFeeRecipient","type":"address"}],"name":"updateFeeRecipient","outputs":[],"stateMutability":"nonpayable","type":"function"},{"inputs":[{"internalType":"uint256","name":"newFeeBps","type":"uint256"}],"name":"updateMarketFee","outputs":[],"stateMutability":"nonpayable","type":"function"},{"inputs":[{"internalType":"uint256","name":"newMinimumFee","type":"uint256"}],"name":"updateMinimumFee","outputs":[],"stateMutability":"nonpayable","type":"function"},{"inputs":[],"name":"version","outputs":[{"internalType":"string","name":"","type":"string"}],"stateMutability":"pure","type":"function"},{"stateMutability":"payable","type":"receive"}],"evm":{"bytecode":{"linkReferences":{},"object":"608060405234801561001057600080fd5b50604051610bde380380610bde83398101604081905261002f91610206565b836001600160a01b03811661005e57604051631e4fbdf760e01b81526000600482015260240160405180910390fd5b6100678161019a565b50600180556103e883111561008f5760405163390edff560e11b815260040160405180910390fd5b6001600160a01b0382166100b657604051630ed1b8b360e31b815260040160405180910390fd5b6003839055600480546001600160a01b0319166001600160a01b03841617905560058190556040805160008152602081018590527f528d9479e9f9889a87a3c30c7f7ba537e5e59c4c85a37733b16e57c62df61302910160405180910390a160408051600081526001600160a01b03841660208201527faaebcf1bfa00580e41d966056b48521fa9f202645c86d4ddf28113e617c1b1d3910160405180910390a16040805160008152602081018390527fcc2f49c6214278ae5862935eff953448e8e69118d10abfafaf63ea6aa35255cb910160405180910390a15050505061024b565b600080546001600160a01b038381166001600160a01b0319831681178455604051919092169283917f8be0079c531659141344cd1fd0a4f28419497f9722a3daafe3b4186f6b6457e09190a35050565b80516001600160a01b038116811461020157600080fd5b919050565b6000806000806080858703121561021c57600080fd5b610225856101ea565b6020860151909450925061023b604086016101ea565b6060959095015193969295505050565b6109848061025a6000396000f3fe60806040526004361061010c5760003560e01c8063715018a6116100955780639b484379116100645780639b484379146102de578063d55be8c6146102fe578063f160d36914610314578063f2fde38b14610334578063fd54b9691461035457600080fd5b8063715018a614610276578063716cae221461028b5780638456cb59146102ab5780638da5cb5b146102c057600080fd5b806346904840116100dc57806346904840146101a75780634e421efa146101df5780635312ea8e146101ff57806354fd4d501461021f5780635c975abb1461025357600080fd5b806202eab7146101185780631a7626e7146101565780633f4ba83a1461017a5780633f5c3e871461019157600080fd5b3661011357005b600080fd5b34801561012457600080fd5b50600354600454600554604080519384526001600160a01b039092166020840152908201526060015b60405180910390f35b34801561016257600080fd5b5061016c60055481565b60405190815260200161014d565b34801561018657600080fd5b5061018f610389565b005b34801561019d57600080fd5b5061016c60035481565b3480156101b357600080fd5b506004546101c7906001600160a01b031681565b6040516001600160a01b03909116815260200161014d565b3480156101eb57600080fd5b5061018f6101fa36600461083d565b61039b565b34801561020b57600080fd5b5061018f61021a36600461083d565b6103e9565b34801561022b57600080fd5b5060408051808201825260058152640312e302e360dc1b6020820152905161014d9190610856565b34801561025f57600080fd5b5060025460ff16604051901515815260200161014d565b34801561028257600080fd5b5061018f6104ba565b34801561029757600080fd5b5061016c6102a636600461083d565b6104cc565b3480156102b757600080fd5b5061018f610506565b3480156102cc57600080fd5b506000546001600160a01b03166101c7565b3480156102ea57600080fd5b5061018f6102f936600461083d565b610516565b34801561030a57600080fd5b5061016c6103e881565b34801561032057600080fd5b5061018f61032f3660046108a4565b61057f565b34801561034057600080fd5b5061018f61034f3660046108a4565b610608565b34801561036057600080fd5b5061037461036f36600461083d565b610648565b6040805192835260208301919091520161014d565b6103916106c0565b6103996106ed565b565b6103a36106c0565b600580549082905560408051828152602081018490527fcc2f49c6214278ae5862935eff953448e8e69118d10abfafaf63ea6aa35255cb91015b60405180910390a15050565b6103f16106c0565b6103f961073f565b4760008215610408578261040a565b815b9050818111156104175750805b80156104ac57600080546040516001600160a01b039091169183156108fc02918491818181858888f19350505050158015610456573d6000803e3d6000fd5b507fc0819c13be868895eb93e40eaceb96de976442fa1d404e5c55f14bb65a8c489a61048a6000546001600160a01b031690565b604080516001600160a01b039092168252602082018490520160405180910390a15b50506104b760018055565b50565b6104c26106c0565b6103996000610769565b600080612710600354846104e091906108e3565b6104ea9190610900565b905060055481116104fd576005546104ff565b805b9392505050565b61050e6106c0565b6103996107b9565b61051e6106c0565b6103e88111156105415760405163390edff560e11b815260040160405180910390fd5b600380549082905560408051828152602081018490527f528d9479e9f9889a87a3c30c7f7ba537e5e59c4c85a37733b16e57c62df6130291016103dd565b6105876106c0565b6001600160a01b0381166105ae57604051630ed1b8b360e31b815260040160405180910390fd5b600480546001600160a01b038381166001600160a01b031983168117909355604080519190921680825260208201939093527faaebcf1bfa00580e41d966056b48521fa9f202645c86d4ddf28113e617c1b1d391016103dd565b6106106106c0565b6001600160a01b03811661063f57604051631e4fbdf760e01b8152600060048201526024015b60405180910390fd5b6104b781610769565b6040516338b6571160e11b8152600481018290526000908190309063716cae2290602401602060405180830381865afa158015610689573d6000803e3d6000fd5b505050506040513d601f19601f820116820180604052508101906106ad9190610922565b91506106b9828461093b565b9050915091565b6000546001600160a01b031633146103995760405163118cdaa760e01b8152336004820152602401610636565b6106f56107f6565b6002805460ff191690557f5db9ee0a495bf2e6ff9c91a7834c1ba4fdd244a5e8aa4e537bd38aeae4b073aa335b6040516001600160a01b03909116815260200160405180910390a1565b60026001540361076257604051633ee5aeb560e01b815260040160405180910390fd5b6002600155565b600080546001600160a01b038381166001600160a01b0319831681178455604051919092169283917f8be0079c531659141344cd1fd0a4f28419497f9722a3daafe3b4186f6b6457e09190a35050565b6107c1610819565b6002805460ff191660011790557f62e78cea01bee320cd4e420270b5ea74000d11b0c9f74754ebdbfc544b05a2586107223390565b60025460ff1661039957604051638dfc202b60e01b815260040160405180910390fd5b60025460ff16156103995760405163d93c066560e01b815260040160405180910390fd5b60006020828403121561084f57600080fd5b5035919050565b602081526000825180602084015260005b818110156108845760208186018101516040868401015201610867565b506000604082850101526040601f19601f83011684010191505092915050565b6000602082840312156108b657600080fd5b81356001600160a01b03811681146104ff57600080fd5b634e487b7160e01b600052601160045260246000fd5b80820281158282048414176108fa576108fa6108cd565b92915050565b60008261091d57634e487b7160e01b600052601260045260246000fd5b500490565b60006020828403121561093457600080fd5b5051919050565b818103818111156108fa576108fa6108cd56fea264697066735822122000ec205e425f2afe0e373a71fe195664015b44f04b1f8ebcffb970a67659fff864736f6c634300081c0033","opcodes":"PUSH1 0x80 PUSH1 0x40 MSTORE CALLVALUE DUP1 ISZERO PUSH2 0x10 JUMPI PUSH1 0x0 DUP1 REVERT JUMPDEST POP PUSH1 0x40 MLOAD PUSH2 0xBDE CODESIZE SUB DUP1 PUSH2 0xBDE DUP4 CODECOPY DUP2 ADD PUSH1 0x40 DUP2 SWAP1 MSTORE PUSH2 0x2F SWAP2 PUSH2 0x206 JUMP JUMPDEST DUP4 PUSH1 0x1 PUSH1 0x1 PUSH1 0xA0 SHL SUB DUP2 AND PUSH2 0x5E JUMPI PUSH1 0x40 MLOAD PUSH4 0x1E4FBDF7 PUSH1 0xE0 SHL DUP2 MSTORE PUSH1 0x0 PUSH1 0x4 DUP3 ADD MSTORE PUSH1 0x24 ADD PUSH1 0x40 MLOAD DUP1 SWAP2 SUB SWAP1 REVERT JUMPDEST PUSH2 0x67 DUP2 PUSH2 0x19A JUMP JUMPDEST POP PUSH1 0x1 DUP1 SSTORE PUSH2 0x3E8 DUP4 GT ISZERO PUSH2 0x8F JUMPI PUSH1 0x40 MLOAD PUSH4 0x390EDFF5 PUSH1 0xE1 SHL DUP2 MSTORE PUSH1 0x4 ADD PUSH1 0x40 MLOAD DUP1 SWAP2 SUB SWAP1 REVERT JUMPDEST PUSH1 0x1 PUSH1 0x1 PUSH1 0xA0 SHL SUB DUP3 AND PUSH2 0xB6 JUMPI PUSH1 0x40 MLOAD PUSH4 0xED1B8B3 PUSH1 0xE3 SHL DUP2 MSTORE PUSH1 0x4 ADD PUSH1 0x40 MLOAD DUP1 SWAP2 SUB SWAP1 REVERT JUMPDEST PUSH1 0x3 DUP4 SWAP1 SSTORE PUSH1 0x4 DUP1 SLOAD PUSH1 0x1 PUSH1 0x1 PUSH1 0xA0 SHL SUB NOT AND PUSH1 0x1 PUSH1 0x1 PUSH1 0xA0 SHL SUB DUP5 AND OR SWAP1 SSTORE PUSH1 0x5 DUP2 SWAP1 SSTORE PUSH1 0x40 DUP1 MLOAD PUSH1 0x0 DUP2 MSTORE PUSH1 0x20 DUP2 ADD DUP6 SWAP1 MSTORE PUSH32 0x528D9479E9F9889A87A3C30C7F7BA537E5E59C4C85A37733B16E57C62DF61302 SWAP2 ADD PUSH1 0x40 MLOAD DUP1 SWAP2 SUB SWAP1 LOG1 PUSH1 0x40 DUP1 MLOAD PUSH1 0x0 DUP2 MSTORE PUSH1 0x1 PUSH1 0x1 PUSH1 0xA0 SHL SUB DUP5 AND PUSH1 0x20 DUP3 ADD MSTORE PUSH32 0xAAEBCF1BFA00580E41D966056B48521FA9F202645C86D4DDF28113E617C1B1D3 SWAP2 ADD PUSH1 0x40 MLOAD DUP1 SWAP2 SUB SWAP1 LOG1 PUSH1 0x40 DUP1 MLOAD PUSH1 0x0 DUP2 MSTORE PUSH1 0x20 DUP2 ADD DUP4 SWAP1 MSTORE PUSH32 0xCC2F49C6214278AE5862935EFF953448E8E69118D10ABFAFAF63EA6AA35255CB SWAP2 ADD PUSH1 0x40 MLOAD DUP1 SWAP2 SUB SWAP1 LOG1 POP POP POP POP PUSH2 0x24B JUMP JUMPDEST PUSH1 0x0 DUP1 SLOAD PUSH1 0x1 PUSH1 0x1 PUSH1 0xA0 SHL SUB DUP4 DUP2 AND PUSH1 0x1 PUSH1 0x1 PUSH1 0xA0 SHL SUB NOT DUP4 AND DUP2 OR DUP5 SSTORE PUSH1 0x40 MLOAD SWAP2 SWAP1 SWAP3 AND SWAP3 DUP4 SWAP2 PUSH32 0x8BE0079C531659141344CD1FD0A4F28419497F9722A3DAAFE3B4186F6B6457E0 SWAP2 SWAP1 LOG3 POP POP JUMP JUMPDEST DUP1 MLOAD PUSH1 0x1 PUSH1 0x1 PUSH1 0xA0 SHL SUB DUP2 AND DUP2 EQ PUSH2 0x201 JUMPI PUSH1 0x0 DUP1 REVERT JUMPDEST SWAP2 SWAP1 POP JUMP JUMPDEST PUSH1 0x0 DUP1 PUSH1 0x0 DUP1 PUSH1 0x80 DUP6 DUP8 SUB SLT ISZERO PUSH2 0x21C JUMPI PUSH1 0x0 DUP1 REVERT JUMPDEST PUSH2 0x225 DUP6 PUSH2 0x1EA JUMP JUMPDEST PUSH1 0x20 DUP7 ADD MLOAD SWAP1 SWAP5 POP SWAP3 POP PUSH2 0x23B PUSH1 0x40 DUP7 ADD PUSH2 0x1EA JUMP JUMPDEST PUSH1 0x60 SWAP6 SWAP1 SWAP6 ADD MLOAD SWAP4 SWAP7 SWAP3 SWAP6 POP POP POP JUMP JUMPDEST PUSH2 0x984 DUP1 PUSH2 0x25A PUSH1 0x0 CODECOPY PUSH1 0x0 RETURN INVALID PUSH1 0x80 PUSH1 0x40 MSTORE PUSH1 0x4 CALLDATASIZE LT PUSH2 0x10C JUMPI PUSH1 0x0 CALLDATALOAD PUSH1 0xE0 SHR DUP1 PUSH4 0x715018A6 GT PUSH2 0x95 JUMPI DUP1 PUSH4 0x9B484379 GT PUSH2 0x64 JUMPI DUP1 PUSH4 0x9B484379 EQ PUSH2 0x2DE JUMPI DUP1 PUSH4 0xD55BE8C6 EQ PUSH2 0x2FE JUMPI DUP1 PUSH4 0xF160D369 EQ PUSH2 0x314 JUMPI DUP1 PUSH4 0xF2FDE38B EQ PUSH2 0x334 JUMPI DUP1 PUSH4 0xFD54B969 EQ PUSH2 0x354 JUMPI PUSH1 0x0 DUP1 REVERT JUMPDEST DUP1 PUSH4 0x715018A6 EQ PUSH2 0x276 JUMPI DUP1 PUSH4 0x716CAE22 EQ PUSH2 0x28B JUMPI DUP1 PUSH4 0x8456CB59 EQ PUSH2 0x2AB JUMPI DUP1 PUSH4 0x8DA5CB5B EQ PUSH2 0x2C0 JUMPI PUSH1 0x0 DUP1 REVERT JUMPDEST DUP1 PUSH4 0x46904840 GT PUSH2 0xDC JUMPI DUP1 PUSH4 0x46904840 EQ PUSH2 0x1A7 JUMPI DUP1 PUSH4 0x4E421EFA EQ PUSH2 0x1DF JUMPI DUP1 PUSH4 0x5312EA8E EQ PUSH2 0x1FF JUMPI DUP1 PUSH4 0x54FD4D50 EQ PUSH2 0x21F JUMPI DUP1 PUSH4 0x5C975ABB EQ PUSH2 0x253 JUMPI PUSH1 0x0 DUP1 REVERT JUMPDEST DUP1 PUSH3 0x2EAB7 EQ PUSH2 0x118 JUMPI DUP1 PUSH4 0x1A7626E7 EQ PUSH2 0x156 JUMPI DUP1 PUSH4 0x3F4BA83A EQ PUSH2 0x17A JUMPI DUP1 PUSH4 0x3F5C3E87 EQ PUSH2 0x191 JUMPI PUSH1 0x0 DUP1 REVERT JUMPDEST CALLDATASIZE PUSH2 0x113 JUMPI STOP JUMPDEST PUSH1 0x0 DUP1 REVERT JUMPDEST CALLVALUE DUP1 ISZERO PUSH2 0x124 JUMPI PUSH1 0x0 DUP1 REVERT JUMPDEST POP PUSH1 0x3 SLOAD PUSH1 0x4 SLOAD PUSH1 0x5 SLOAD PUSH1 0x40 DUP1 MLOAD SWAP4 DUP5 MSTORE PUSH1 0x1 PUSH1 0x1 PUSH1 0xA0 SHL SUB SWAP1 SWAP3 AND PUSH1 0x20 DUP5 ADD MSTORE SWAP1 DUP3 ADD MSTORE PUSH1 0x60 ADD JUMPDEST PUSH1 0x40 MLOAD DUP1 SWAP2 SUB SWAP1 RETURN JUMPDEST CALLVALUE DUP1 ISZERO PUSH2 0x162 JUMPI PUSH1 0x0 DUP1 REVERT JUMPDEST POP PUSH2 0x16C PUSH1 0x5 SLOAD DUP2 JUMP JUMPDEST PUSH1 0x40 MLOAD SWAP1 DUP2 MSTORE PUSH1 0x20 ADD PUSH2 0x14D JUMP JUMPDEST CALLVALUE DUP1 ISZERO PUSH2 0x186 JUMPI PUSH1 0x0 DUP1 REVERT JUMPDEST POP PUSH2 0x18F PUSH2 0x389 JUMP JUMPDEST STOP JUMPDEST CALLVALUE DUP1 ISZERO PUSH2 0x19D JUMPI PUSH1 0x0 DUP1 REVERT JUMPDEST POP PUSH2 0x16C PUSH1 0x3 SLOAD DUP2 JUMP JUMPDEST CALLVALUE DUP1 ISZERO PUSH2 0x1B3 JUMPI PUSH1 0x0 DUP1 REVERT JUMPDEST POP PUSH1 0x4 SLOAD PUSH2 0x1C7 SWAP1 PUSH1 0x1 PUSH1 0x1 PUSH1 0xA0 SHL SUB AND DUP2 JUMP JUMPDEST PUSH1 0x40 MLOAD PUSH1 0x1 PUSH1 0x1 PUSH1 0xA0 SHL SUB SWAP1 SWAP2 AND DUP2 MSTORE PUSH1 0x20 ADD PUSH2 0x14D JUMP JUMPDEST CALLVALUE DUP1 ISZERO PUSH2 0x1EB JUMPI PUSH1 0x0 DUP1 REVERT JUMPDEST POP PUSH2 0x18F PUSH2 0x1FA CALLDATASIZE PUSH1 0x4 PUSH2 0x83D JUMP JUMPDEST PUSH2 0x39B JUMP JUMPDEST CALLVALUE DUP1 ISZERO PUSH2 0x20B JUMPI PUSH1 0x0 DUP1 REVERT JUMPDEST POP PUSH2 0x18F PUSH2 0x21A CALLDATASIZE PUSH1 0x4 PUSH2 0x83D JUMP JUMPDEST PUSH2 0x3E9 JUMP JUMPDEST CALLVALUE DUP1 ISZERO PUSH2 0x22B JUMPI PUSH1 0x0 DUP1 REVERT JUMPDEST POP PUSH1 0x40 DUP1 MLOAD DUP1 DUP3 ADD DUP3 MSTORE PUSH1 0x5 DUP2 MSTORE PUSH5 0x312E302E3 PUSH1 0xDC SHL PUSH1 0x20 DUP3 ADD MSTORE SWAP1 MLOAD PUSH2 0x14D SWAP2 SWAP1 PUSH2 0x856 JUMP JUMPDEST CALLVALUE DUP1 ISZERO PUSH2 0x25F JUMPI PUSH1 0x0 DUP1 REVERT JUMPDEST POP PUSH1 0x2 SLOAD PUSH1 0xFF AND PUSH1 0x40 MLOAD SWAP1 ISZERO ISZERO DUP2 MSTORE PUSH1 0x20 ADD PUSH2 0x14D JUMP JUMPDEST CALLVALUE DUP1 ISZERO PUSH2 0x282 JUMPI PUSH1 0x0 DUP1 REVERT JUMPDEST POP PUSH2 0x18F PUSH2 0x4BA JUMP JUMPDEST CALLVALUE DUP1 ISZERO PUSH2 0x297 JUMPI PUSH1 0x0 DUP1 REVERT JUMPDEST POP PUSH2 0x16C PUSH2 0x2A6 CALLDATASIZE PUSH1 0x4 PUSH2 0x83D JUMP JUMPDEST PUSH2 0x4CC JUMP JUMPDEST CALLVALUE DUP1 ISZERO PUSH2 0x2B7 JUMPI PUSH1 0x0 DUP1 REVERT JUMPDEST POP PUSH2 0x18F PUSH2 0x506 JUMP JUMPDEST CALLVALUE DUP1 ISZERO PUSH2 0x2CC JUMPI PUSH1 0x0 DUP1 REVERT JUMPDEST POP PUSH1 0x0 SLOAD PUSH1 0x1 PUSH1 0x1 PUSH1 0xA0 SHL SUB AND PUSH2 0x1C7 JUMP JUMPDEST CALLVALUE DUP1 ISZERO PUSH2 0x2EA JUMPI PUSH1 0x0 DUP1 REVERT JUMPDEST POP PUSH2 0x18F PUSH2 0x2F9 CALLDATASIZE PUSH1 0x4 PUSH2 0x83D JUMP JUMPDEST PUSH2 0x516 JUMP JUMPDEST CALLVALUE DUP1 ISZERO PUSH2 0x30A JUMPI PUSH1 0x0 DUP1 REVERT JUMPDEST POP PUSH2 0x16C PUSH2 0x3E8 DUP2 JUMP JUMPDEST CALLVALUE DUP1 ISZERO PUSH2 0x320 JUMPI PUSH1 0x0 DUP1 REVERT JUMPDEST POP PUSH2 0x18F PUSH2 0x32F CALLDATASIZE PUSH1 0x4 PUSH2 0x8A4 JUMP JUMPDEST PUSH2 0x57F JUMP JUMPDEST CALLVALUE DUP1 ISZERO PUSH2 0x340 JUMPI PUSH1 0x0 DUP1 REVERT JUMPDEST POP PUSH2 0x18F PUSH2 0x34F CALLDATASIZE PUSH1 0x4 PUSH2 0x8A4 JUMP JUMPDEST PUSH2 0x608 JUMP JUMPDEST CALLVALUE DUP1 ISZERO PUSH2 0x360 JUMPI PUSH1 0x0 DUP1 REVERT JUMPDEST POP PUSH2 0x374 PUSH2 0x36F CALLDATASIZE PUSH1 0x4 PUSH2 0x83D JUMP JUMPDEST PUSH2 0x648 JUMP JUMPDEST PUSH1 0x40 DUP1 MLOAD SWAP3 DUP4 MSTORE PUSH1 0x20 DUP4 ADD SWAP2 SWAP1 SWAP2 MSTORE ADD PUSH2 0x14D JUMP JUMPDEST PUSH2 0x391 PUSH2 0x6C0 JUMP JUMPDEST PUSH2 0x399 PUSH2 0x6ED JUMP JUMPDEST JUMP JUMPDEST PUSH2 0x3A3 PUSH2 0x6C0 JUMP JUMPDEST PUSH1 0x5 DUP1 SLOAD SWAP1 DUP3 SWAP1 SSTORE PUSH1 0x40 DUP1 MLOAD DUP3 DUP2 MSTORE PUSH1 0x20 DUP2 ADD DUP5 SWAP1 MSTORE PUSH32 0xCC2F49C6214278AE5862935EFF953448E8E69118D10ABFAFAF63EA6AA35255CB SWAP2 ADD JUMPDEST PUSH1 0x40 MLOAD DUP1 SWAP2 SUB SWAP1 LOG1 POP POP JUMP JUMPDEST PUSH2 0x3F1 PUSH2 0x6C0 JUMP JUMPDEST PUSH2 0x3F9 PUSH2 0x73F JUMP JUMPDEST SELFBALANCE PUSH1 0x0 DUP3 ISZERO PUSH2 0x408 JUMPI DUP3 PUSH2 0x40A JUMP JUMPDEST DUP2 JUMPDEST SWAP1 POP DUP2 DUP2 GT ISZERO PUSH2 0x417 JUMPI POP DUP1 JUMPDEST DUP1 ISZERO PUSH2 0x4AC JUMPI PUSH1 0x0 DUP1 SLOAD PUSH1 0x40 MLOAD PUSH1 0x1 PUSH1 0x1 PUSH1 0xA0 SHL SUB SWAP1 SWAP2 AND SWAP2 DUP4 ISZERO PUSH2 0x8FC MUL SWAP2 DUP5 SWAP2 DUP2 DUP2 DUP2 DUP6 DUP9 DUP9 CALL SWAP4 POP POP POP POP ISZERO DUP1 ISZERO PUSH2 0x456 JUMPI RETURNDATASIZE PUSH1 0x0 DUP1 RETURNDATACOPY RETURNDATASIZE PUSH1 0x0 REVERT JUMPDEST POP PUSH32 0xC0819C13BE868895EB93E40EACEB96DE976442FA1D404E5C55F14BB65A8C489A PUSH2 0x48A PUSH1 0x0 SLOAD PUSH1 0x1 PUSH1 0x1 PUSH1 0xA0 SHL SUB AND SWAP1 JUMP JUMPDEST PUSH1 0x40 DUP1 MLOAD PUSH1 0x1 PUSH1 0x1 PUSH1 0xA0 SHL SUB SWAP1 SWAP3 AND DUP3 MSTORE PUSH1 0x20 DUP3 ADD DUP5 SWAP1 MSTORE ADD PUSH1 0x40 MLOAD DUP1 SWAP2 SUB SWAP1 LOG1 JUMPDEST POP POP PUSH2 0x4B7 PUSH1 0x1 DUP1 SSTORE JUMP JUMPDEST POP JUMP JUMPDEST PUSH2 0x4C2 PUSH2 0x6C0 JUMP JUMPDEST PUSH2 0x399 PUSH1 0x0 PUSH2 0x769 JUMP JUMPDEST PUSH1 0x0 DUP1 PUSH2 0x2710 PUSH1 0x3 SLOAD DUP5 PUSH2 0x4E0 SWAP2 SWAP1 PUSH2 0x8E3 JUMP JUMPDEST PUSH2 0x4EA SWAP2 SWAP1 PUSH2 0x900 JUMP JUMPDEST SWAP1 POP PUSH1 0x5 SLOAD DUP2 GT PUSH2 0x4FD JUMPI PUSH1 0x5 SLOAD PUSH2 0x4FF JUMP JUMPDEST DUP1 JUMPDEST SWAP4 SWAP3 POP POP POP JUMP JUMPDEST PUSH2 0x50E PUSH2 0x6C0 JUMP JUMPDEST PUSH2 0x399 PUSH2 0x7B9 JUMP JUMPDEST PUSH2 0x51E PUSH2 0x6C0 JUMP JUMPDEST PUSH2 0x3E8 DUP2 GT ISZERO PUSH2 0x541 JUMPI PUSH1 0x40 MLOAD PUSH4 0x390EDFF5 PUSH1 0xE1 SHL DUP2 MSTORE PUSH1 0x4 ADD PUSH1 0x40 MLOAD DUP1 SWAP2 SUB SWAP1 REVERT JUMPDEST PUSH1 0x3 DUP1 SLOAD SWAP1 DUP3 SWAP1 SSTORE PUSH1 0x40 DUP1 MLOAD DUP3 DUP2 MSTORE PUSH1 0x20 DUP2 ADD DUP5 SWAP1 MSTORE PUSH32 0x528D9479E9F9889A87A3C30C7F7BA537E5E59C4C85A37733B16E57C62DF61302 SWAP2 ADD PUSH2 0x3DD JUMP JUMPDEST PUSH2 0x587 PUSH2 0x6C0 JUMP JUMPDEST PUSH1 0x1 PUSH1 0x1 PUSH1 0xA0 SHL SUB DUP2 AND PUSH2 0x5AE JUMPI PUSH1 0x40 MLOAD PUSH4 0xED1B8B3 PUSH1 0xE3 SHL DUP2 MSTORE PUSH1 0x4 ADD PUSH1 0x40 MLOAD DUP1 SWAP2 SUB SWAP1 REVERT JUMPDEST PUSH1 0x4 DUP1 SLOAD PUSH1 0x1 PUSH1 0x1 PUSH1 0xA0 SHL SUB DUP4 DUP2 AND PUSH1 0x1 PUSH1 0x1 PUSH1 0xA0 SHL SUB NOT DUP4 AND DUP2 OR SWAP1 SWAP4 SSTORE PUSH1 0x40 DUP1 MLOAD SWAP2 SWAP1 SWAP3 AND DUP1 DUP3 MSTORE PUSH1 0x20 DUP3 ADD SWAP4 SWAP1 SWAP4 MSTORE PUSH32 0xAAEBCF1BFA00580E41D966056B48521FA9F202645C86D4DDF28113E617C1B1D3 SWAP2 ADD PUSH2 0x3DD JUMP JUMPDEST PUSH2 0x610 PUSH2 0x6C0 JUMP JUMPDEST PUSH1 0x1 PUSH1 0x1 PUSH1 0xA0 SHL SUB DUP2 AND PUSH2 0x63F JUMPI PUSH1 0x40 MLOAD PUSH4 0x1E4FBDF7 PUSH1 0xE0 SHL DUP2 MSTORE PUSH1 0x0 PUSH1 0x4 DUP3 ADD MSTORE PUSH1 0x24 ADD JUMPDEST PUSH1 0x40 MLOAD DUP1 SWAP2 SUB SWAP1 REVERT JUMPDEST PUSH2 0x4B7 DUP2 PUSH2 0x769 JUMP JUMPDEST PUSH1 0x40 MLOAD PUSH4 0x38B65711 PUSH1 0xE1 SHL DUP2 MSTORE PUSH1 0x4 DUP2 ADD DUP3 SWAP1 MSTORE PUSH1 0x0 SWAP1 DUP2 SWAP1 ADDRESS SWAP1 PUSH4 0x716CAE22 SWAP1 PUSH1 0x24 ADD PUSH1 0x20 PUSH1 0x40 MLOAD DUP1 DUP4 SUB DUP2 DUP7 GAS STATICCALL ISZERO DUP1 ISZERO PUSH2 0x689 JUMPI RETURNDATASIZE PUSH1 0x0 DUP1 RETURNDATACOPY RETURNDATASIZE PUSH1 0x0 REVERT JUMPDEST POP POP POP POP PUSH1 0x40 MLOAD RETURNDATASIZE PUSH1 0x1F NOT PUSH1 0x1F DUP3 ADD AND DUP3 ADD DUP1 PUSH1 0x40 MSTORE POP DUP2 ADD SWAP1 PUSH2 0x6AD SWAP2 SWAP1 PUSH2 0x922 JUMP JUMPDEST SWAP2 POP PUSH2 0x6B9 DUP3 DUP5 PUSH2 0x93B JUMP JUMPDEST SWAP1 POP SWAP2 POP SWAP2 JUMP JUMPDEST PUSH1 0x0 SLOAD PUSH1 0x1 PUSH1 0x1 PUSH1 0xA0 SHL SUB AND CALLER EQ PUSH2 0x399 JUMPI PUSH1 0x40 MLOAD PUSH4 0x118CDAA7 PUSH1 0xE0 SHL DUP2 MSTORE CALLER PUSH1 0x4 DUP3 ADD MSTORE PUSH1 0x24 ADD PUSH2 0x636 JUMP JUMPDEST PUSH2 0x6F5 PUSH2 0x7F6 JUMP JUMPDEST PUSH1 0x2 DUP1 SLOAD PUSH1 0xFF NOT AND SWAP1 SSTORE PUSH32 0x5DB9EE0A495BF2E6FF9C91A7834C1BA4FDD244A5E8AA4E537BD38AEAE4B073AA CALLER JUMPDEST PUSH1 0x40 MLOAD PUSH1 0x1 PUSH1 0x1 PUSH1 0xA0 SHL SUB SWAP1 SWAP2 AND DUP2 MSTORE PUSH1 0x20 ADD PUSH1 0x40 MLOAD DUP1 SWAP2 SUB SWAP1 LOG1 JUMP JUMPDEST PUSH1 0x2 PUSH1 0x1 SLOAD SUB PUSH2 0x762 JUMPI PUSH1 0x40 MLOAD PUSH4 0x3EE5AEB5 PUSH1 0xE0 SHL DUP2 MSTORE PUSH1 0x4 ADD PUSH1 0x40 MLOAD DUP1 SWAP2 SUB SWAP1 REVERT JUMPDEST PUSH1 0x2 PUSH1 0x1 SSTORE JUMP JUMPDEST PUSH1 0x0 DUP1 SLOAD PUSH1 0x1 PUSH1 0x1 PUSH1 0xA0 SHL SUB DUP4 DUP2 AND PUSH1 0x1 PUSH1 0x1 PUSH1 0xA0 SHL SUB NOT DUP4 AND DUP2 OR DUP5 SSTORE PUSH1 0x40 MLOAD SWAP2 SWAP1 SWAP3 AND SWAP3 DUP4 SWAP2 PUSH32 0x8BE0079C531659141344CD1FD0A4F28419497F9722A3DAAFE3B4186F6B6457E0 SWAP2 SWAP1 LOG3 POP POP JUMP JUMPDEST PUSH2 0x7C1 PUSH2 0x819 JUMP JUMPDEST PUSH1 0x2 DUP1 SLOAD PUSH1 0xFF NOT AND PUSH1 0x1 OR SWAP1 SSTORE PUSH32 0x62E78CEA01BEE320CD4E420270B5EA74000D11B0C9F74754EBDBFC544B05A258 PUSH2 0x722 CALLER SWAP1 JUMP JUMPDEST PUSH1 0x2 SLOAD PUSH1 0xFF AND PUSH2 0x399 JUMPI PUSH1 0x40 MLOAD PUSH4 0x8DFC202B PUSH1 0xE0 SHL DUP2 MSTORE PUSH1 0x4 ADD PUSH1 0x40 MLOAD DUP1 SWAP2 SUB SWAP1 REVERT JUMPDEST PUSH1 0x2 SLOAD PUSH1 0xFF AND ISZERO PUSH2 0x399 JUMPI PUSH1 0x40 MLOAD PUSH4 0xD93C0665 PUSH1 0xE0 SHL DUP2 MSTORE PUSH1 0x4 ADD PUSH1 0x40 MLOAD DUP1 SWAP2 SUB SWAP1 REVERT JUMPDEST PUSH1 0x0 PUSH1 0x20 DUP3 DUP5 SUB SLT ISZERO PUSH2 0x84F JUMPI PUSH1 0x0 DUP1 REVERT JUMPDEST POP CALLDATALOAD SWAP2 SWAP1 POP JUMP JUMPDEST PUSH1 0x20 DUP2 MSTORE PUSH1 0x0 DUP3 MLOAD DUP1 PUSH1 0x20 DUP5 ADD MSTORE PUSH1 0x0 JUMPDEST DUP2 DUP2 LT ISZERO PUSH2 0x884 JUMPI PUSH1 0x20 DUP2 DUP7 ADD DUP2 ADD MLOAD PUSH1 0x40 DUP7 DUP5 ADD ADD MSTORE ADD PUSH2 0x867 JUMP JUMPDEST POP PUSH1 0x0 PUSH1 0x40 DUP3 DUP6 ADD ADD MSTORE PUSH1 0x40 PUSH1 0x1F NOT PUSH1 0x1F DUP4 ADD AND DUP5 ADD ADD SWAP2 POP POP SWAP3 SWAP2 POP POP JUMP JUMPDEST PUSH1 0x0 PUSH1 0x20 DUP3 DUP5 SUB SLT ISZERO PUSH2 0x8B6 JUMPI PUSH1 0x0 DUP1 REVERT JUMPDEST DUP2 CALLDATALOAD PUSH1 0x1 PUSH1 0x1 PUSH1 0xA0 SHL SUB DUP2 AND DUP2 EQ PUSH2 0x4FF JUMPI PUSH1 0x0 DUP1 REVERT JUMPDEST PUSH4 0x4E487B71 PUSH1 0xE0 SHL PUSH1 0x0 MSTORE PUSH1 0x11 PUSH1 0x4 MSTORE PUSH1 0x24 PUSH1 0x0 REVERT JUMPDEST DUP1 DUP3 MUL DUP2 ISZERO DUP3 DUP3 DIV DUP5 EQ OR PUSH2 0x8FA JUMPI PUSH2 0x8FA PUSH2 0x8CD JUMP JUMPDEST SWAP3 SWAP2 POP POP JUMP JUMPDEST PUSH1 0x0 DUP3 PUSH2 0x91D JUMPI PUSH4 0x4E487B71 PUSH1 0xE0 SHL PUSH1 0x0 MSTORE PUSH1 0x12 PUSH1 0x4 MSTORE PUSH1 0x24 PUSH1 0x0 REVERT JUMPDEST POP DIV SWAP1 JUMP JUMPDEST PUSH1 0x0 PUSH1 0x20 DUP3 DUP5 SUB SLT ISZERO PUSH2 0x934 JUMPI PUSH1 0x0 DUP1 REVERT JUMPDEST POP MLOAD SWAP2 SWAP1 POP JUMP JUMPDEST DUP2 DUP2 SUB DUP2 DUP2 GT ISZERO PUSH2 0x8FA JUMPI PUSH2 0x8FA PUSH2 0x8CD JUMP INVALID LOG2 PUSH5 0x6970667358 0x22 SLT KECCAK256 STOP 0xEC KECCAK256 MCOPY TIMESTAMP PUSH0 0x2A INVALID 0xE CALLDATACOPY GASPRICE PUSH18 0xFE195664015B44F04B1F8EBCFFB970A67659 SELFDESTRUCT 0xF8 PUSH5 0x736F6C6343 STOP ADDMOD SHR STOP CALLER "},"methodIdentifiers":{"MAX_FEE_BPS()":"d55be8c6","calculateFeeBreakdown(uint256)":"fd54b969","calculateMarketFee(uint256)":"716cae22","emergencyWithdraw(uint256)":"5312ea8e","feeRecipient()":"46904840","getFeeInfo()":"0002eab7","marketFeeBps()":"3f5c3e87","minimumFee()":"1a7626e7","owner()":"8da5cb5b","pause()":"8456cb59","paused()":"5c975abb","renounceOwnership()":"715018a6","transferOwnership(address)":"f2fde38b","unpause()":"3f4ba83a","updateFeeRecipient(address)":"f160d369","updateMarketFee(uint256)":"9b484379","updateMinimumFee(uint256)":"4e421efa","version()":"54fd4d50"}}}}}