{
  "_format": "hh3-artifact-1",
  "contractName": "MarketplaceFeeManager",
  "sourceName": "contracts/MarketplaceFeeManager.sol",
  "abi": [
    {
      "inputs": [
        {
          "internalType": "address",
          "name": "initialOwner",
          "type": "address"
        },
        {
          "internalType": "uint256",
          "name": "initialFeeBps",
          "type": "uint256"
        },
        {
          "internalType": "address",
          "name": "initialFeeRecipient",
          "type": "address"
        },
        {
          "internalType": "uint256",
          "name": "initialMinimumFee",
          "type": "uint256"
        }
      ],
      "stateMutability": "nonpayable",
      "type": "constructor"
    },
    {
      "inputs": [],
      "name": "EnforcedPause",
      "type": "error"
    },
    {
      "inputs": [],
      "name": "ExpectedPause",
      "type": "error"
    },
    {
      "inputs": [],
      "name": "InvalidFeePercentage",
      "type": "error"
    },
    {
      "inputs": [],
      "name": "InvalidFeeRecipient",
      "type": "error"
    },
    {
      "inputs": [],
      "name": "InvalidMinimumFee",
      "type": "error"
    },
    {
      "inputs": [
        {
          "internalType": "address",
          "name": "owner",
          "type": "address"
        }
      ],
      "name": "OwnableInvalidOwner",
      "type": "error"
    },
    {
      "inputs": [
        {
          "internalType": "address",
          "name": "account",
          "type": "address"
        }
      ],
      "name": "OwnableUnauthorizedAccount",
      "type": "error"
    },
    {
      "inputs": [],
      "name": "ReentrancyGuardReentrantCall",
      "type": "error"
    },
    {
      "inputs": [],
      "name": "UnauthorizedAccess",
      "type": "error"
    },
    {
      "anonymous": false,
      "inputs": [
        {
          "indexed": false,
          "internalType": "address",
          "name": "oldRecipient",
          "type": "address"
        },
        {
          "indexed": false,
          "internalType": "address",
          "name": "newRecipient",
          "type": "address"
        }
      ],
      "name": "FeeRecipientUpdated",
      "type": "event"
    },
    {
      "anonymous": false,
      "inputs": [
        {
          "indexed": false,
          "internalType": "uint256",
          "name": "oldFeeBps",
          "type": "uint256"
        },
        {
          "indexed": false,
          "internalType": "uint256",
          "name": "newFeeBps",
          "type": "uint256"
        }
      ],
      "name": "FeeUpdated",
      "type": "event"
    },
    {
      "anonymous": false,
      "inputs": [
        {
          "indexed": false,
          "internalType": "address",
          "name": "recipient",
          "type": "address"
        },
        {
          "indexed": false,
          "internalType": "uint256",
          "name": "amount",
          "type": "uint256"
        }
      ],
      "name": "FeesWithdrawn",
      "type": "event"
    },
    {
      "anonymous": false,
      "inputs": [
        {
          "indexed": false,
          "internalType": "uint256",
          "name": "oldMinimumFee",
          "type": "uint256"
        },
        {
          "indexed": false,
          "internalType": "uint256",
          "name": "newMinimumFee",
          "type": "uint256"
        }
      ],
      "name": "MinimumFeeUpdated",
      "type": "event"
    },
    {
      "anonymous": false,
      "inputs": [
        {
          "indexed": true,
          "internalType": "address",
          "name": "previousOwner",
          "type": "address"
        },
        {
          "indexed": true,
          "internalType": "address",
          "name": "newOwner",
          "type": "address"
        }
      ],
      "name": "OwnershipTransferred",
      "type": "event"
    },
    {
      "anonymous": false,
      "inputs": [
        {
          "indexed": false,
          "internalType": "address",
          "name": "account",
          "type": "address"
        }
      ],
      "name": "Paused",
      "type": "event"
    },
    {
      "anonymous": false,
      "inputs": [
        {
          "indexed": false,
          "internalType": "address",
          "name": "account",
          "type": "address"
        }
      ],
      "name": "Unpaused",
      "type": "event"
    },
    {
      "inputs": [],
      "name": "MAX_FEE_BPS",
      "outputs": [
        {
          "internalType": "uint256",
          "name": "",
          "type": "uint256"
        }
      ],
      "stateMutability": "view",
      "type": "function"
    },
    {
      "inputs": [
        {
          "internalType": "uint256",
          "name": "salePrice",
          "type": "uint256"
        }
      ],
      "name": "calculateFeeBreakdown",
      "outputs": [
        {
          "internalType": "uint256",
          "name": "marketFee",
          "type": "uint256"
        },
        {
          "internalType": "uint256",
          "name": "sellerAmount",
          "type": "uint256"
        }
      ],
      "stateMutability": "view",
      "type": "function"
    },
    {
      "inputs": [
        {
          "internalType": "uint256",
          "name": "salePrice",
          "type": "uint256"
        }
      ],
      "name": "calculateMarketFee",
      "outputs": [
        {
          "internalType": "uint256",
          "name": "",
          "type": "uint256"
        }
      ],
      "stateMutability": "view",
      "type": "function"
    },
    {
      "inputs": [
        {
          "internalType": "uint256",
          "name": "amount",
          "type": "uint256"
        }
      ],
      "name": "emergencyWithdraw",
      "outputs": [],
      "stateMutability": "nonpayable",
      "type": "function"
    },
    {
      "inputs": [],
      "name": "feeRecipient",
      "outputs": [
        {
          "internalType": "address",
          "name": "",
          "type": "address"
        }
      ],
      "stateMutability": "view",
      "type": "function"
    },
    {
      "inputs": [],
      "name": "getFeeInfo",
      "outputs": [
        {
          "internalType": "uint256",
          "name": "feeBps",
          "type": "uint256"
        },
        {
          "internalType": "address",
          "name": "recipient",
          "type": "address"
        },
        {
          "internalType": "uint256",
          "name": "minFee",
          "type": "uint256"
        }
      ],
      "stateMutability": "view",
      "type": "function"
    },
    {
      "inputs": [],
      "name": "marketFeeBps",
      "outputs": [
        {
          "internalType": "uint256",
          "name": "",
          "type": "uint256"
        }
      ],
      "stateMutability": "view",
      "type": "function"
    },
    {
      "inputs": [],
      "name": "minimumFee",
      "outputs": [
        {
          "internalType": "uint256",
          "name": "",
          "type": "uint256"
        }
      ],
      "stateMutability": "view",
      "type": "function"
    },
    {
      "inputs": [],
      "name": "owner",
      "outputs": [
        {
          "internalType": "address",
          "name": "",
          "type": "address"
        }
      ],
      "stateMutability": "view",
      "type": "function"
    },
    {
      "inputs": [],
      "name": "pause",
      "outputs": [],
      "stateMutability": "nonpayable",
      "type": "function"
    },
    {
      "inputs": [],
      "name": "paused",
      "outputs": [
        {
          "internalType": "bool",
          "name": "",
          "type": "bool"
        }
      ],
      "stateMutability": "view",
      "type": "function"
    },
    {
      "inputs": [],
      "name": "renounceOwnership",
      "outputs": [],
      "stateMutability": "nonpayable",
      "type": "function"
    },
    {
      "inputs": [
        {
          "internalType": "address",
          "name": "newOwner",
          "type": "address"
        }
      ],
      "name": "transferOwnership",
      "outputs": [],
      "stateMutability": "nonpayable",
      "type": "function"
    },
    {
      "inputs": [],
      "name": "unpause",
      "outputs": [],
      "stateMutability": "nonpayable",
      "type": "function"
    },
    {
      "inputs": [
        {
          "internalType": "address",
          "name": "newFeeRecipient",
          "type": "address"
        }
      ],
      "name": "updateFeeRecipient",
      "outputs": [],
      "stateMutability": "nonpayable",
      "type": "function"
    },
    {
      "inputs": [
        {
          "internalType": "uint256",
          "name": "newFeeBps",
          "type": "uint256"
        }
      ],
      "name": "updateMarketFee",
      "outputs": [],
      "stateMutability": "nonpayable",
      "type": "function"
    },
    {
      "inputs": [
        {
          "internalType": "uint256",
          "name": "newMinimumFee",
          "type": "uint256"
        }
      ],
      "name": "updateMinimumFee",
      "outputs": [],
      "stateMutability": "nonpayable",
      "type": "function"
    },
    {
      "inputs": [],
      "name": "version",
      "outputs": [
        {
          "internalType": "string",
          "name": "",
          "type": "string"
        }
      ],
      "stateMutability": "pure",
      "type": "function"
    },
    {
      "stateMutability": "payable",
      "type": "receive"
    }
  ],
  "bytecode": "0x608060405234801561001057600080fd5b50604051610bde380380610bde83398101604081905261002f91610206565b836001600160a01b03811661005e57604051631e4fbdf760e01b81526000600482015260240160405180910390fd5b6100678161019a565b50600180556103e883111561008f5760405163390edff560e11b815260040160405180910390fd5b6001600160a01b0382166100b657604051630ed1b8b360e31b815260040160405180910390fd5b6003839055600480546001600160a01b0319166001600160a01b03841617905560058190556040805160008152602081018590527f528d9479e9f9889a87a3c30c7f7ba537e5e59c4c85a37733b16e57c62df61302910160405180910390a160408051600081526001600160a01b03841660208201527faaebcf1bfa00580e41d966056b48521fa9f202645c86d4ddf28113e617c1b1d3910160405180910390a16040805160008152602081018390527fcc2f49c6214278ae5862935eff953448e8e69118d10abfafaf63ea6aa35255cb910160405180910390a15050505061024b565b600080546001600160a01b038381166001600160a01b0319831681178455604051919092169283917f8be0079c531659141344cd1fd0a4f28419497f9722a3daafe3b4186f6b6457e09190a35050565b80516001600160a01b038116811461020157600080fd5b919050565b6000806000806080858703121561021c57600080fd5b610225856101ea565b6020860151909450925061023b604086016101ea565b6060959095015193969295505050565b6109848061025a6000396000f3fe60806040526004361061010c5760003560e01c8063715018a6116100955780639b484379116100645780639b484379146102de578063d55be8c6146102fe578063f160d36914610314578063f2fde38b14610334578063fd54b9691461035457600080fd5b8063715018a614610276578063716cae221461028b5780638456cb59146102ab5780638da5cb5b146102c057600080fd5b806346904840116100dc57806346904840146101a75780634e421efa146101df5780635312ea8e146101ff57806354fd4d501461021f5780635c975abb1461025357600080fd5b806202eab7146101185780631a7626e7146101565780633f4ba83a1461017a5780633f5c3e871461019157600080fd5b3661011357005b600080fd5b34801561012457600080fd5b50600354600454600554604080519384526001600160a01b039092166020840152908201526060015b60405180910390f35b34801561016257600080fd5b5061016c60055481565b60405190815260200161014d565b34801561018657600080fd5b5061018f610389565b005b34801561019d57600080fd5b5061016c60035481565b3480156101b357600080fd5b506004546101c7906001600160a01b031681565b6040516001600160a01b03909116815260200161014d565b3480156101eb57600080fd5b5061018f6101fa36600461083d565b61039b565b34801561020b57600080fd5b5061018f61021a36600461083d565b6103e9565b34801561022b57600080fd5b5060408051808201825260058152640312e302e360dc1b6020820152905161014d9190610856565b34801561025f57600080fd5b5060025460ff16604051901515815260200161014d565b34801561028257600080fd5b5061018f6104ba565b34801561029757600080fd5b5061016c6102a636600461083d565b6104cc565b3480156102b757600080fd5b5061018f610506565b3480156102cc57600080fd5b506000546001600160a01b03166101c7565b3480156102ea57600080fd5b5061018f6102f936600461083d565b610516565b34801561030a57600080fd5b5061016c6103e881565b34801561032057600080fd5b5061018f61032f3660046108a4565b61057f565b34801561034057600080fd5b5061018f61034f3660046108a4565b610608565b34801561036057600080fd5b5061037461036f36600461083d565b610648565b6040805192835260208301919091520161014d565b6103916106c0565b6103996106ed565b565b6103a36106c0565b600580549082905560408051828152602081018490527fcc2f49c6214278ae5862935eff953448e8e69118d10abfafaf63ea6aa35255cb91015b60405180910390a15050565b6103f16106c0565b6103f961073f565b4760008215610408578261040a565b815b9050818111156104175750805b80156104ac57600080546040516001600160a01b039091169183156108fc02918491818181858888f19350505050158015610456573d6000803e3d6000fd5b507fc0819c13be868895eb93e40eaceb96de976442fa1d404e5c55f14bb65a8c489a61048a6000546001600160a01b031690565b604080516001600160a01b039092168252602082018490520160405180910390a15b50506104b760018055565b50565b6104c26106c0565b6103996000610769565b600080612710600354846104e091906108e3565b6104ea9190610900565b905060055481116104fd576005546104ff565b805b9392505050565b61050e6106c0565b6103996107b9565b61051e6106c0565b6103e88111156105415760405163390edff560e11b815260040160405180910390fd5b600380549082905560408051828152602081018490527f528d9479e9f9889a87a3c30c7f7ba537e5e59c4c85a37733b16e57c62df6130291016103dd565b6105876106c0565b6001600160a01b0381166105ae57604051630ed1b8b360e31b815260040160405180910390fd5b600480546001600160a01b038381166001600160a01b031983168117909355604080519190921680825260208201939093527faaebcf1bfa00580e41d966056b48521fa9f202645c86d4ddf28113e617c1b1d391016103dd565b6106106106c0565b6001600160a01b03811661063f57604051631e4fbdf760e01b8152600060048201526024015b60405180910390fd5b6104b781610769565b6040516338b6571160e11b8152600481018290526000908190309063716cae2290602401602060405180830381865afa158015610689573d6000803e3d6000fd5b505050506040513d601f19601f820116820180604052508101906106ad9190610922565b91506106b9828461093b565b9050915091565b6000546001600160a01b031633146103995760405163118cdaa760e01b8152336004820152602401610636565b6106f56107f6565b6002805460ff191690557f5db9ee0a495bf2e6ff9c91a7834c1ba4fdd244a5e8aa4e537bd38aeae4b073aa335b6040516001600160a01b03909116815260200160405180910390a1565b60026001540361076257604051633ee5aeb560e01b815260040160405180910390fd5b6002600155565b600080546001600160a01b038381166001600160a01b0319831681178455604051919092169283917f8be0079c531659141344cd1fd0a4f28419497f9722a3daafe3b4186f6b6457e09190a35050565b6107c1610819565b6002805460ff191660011790557f62e78cea01bee320cd4e420270b5ea74000d11b0c9f74754ebdbfc544b05a2586107223390565b60025460ff1661039957604051638dfc202b60e01b815260040160405180910390fd5b60025460ff16156103995760405163d93c066560e01b815260040160405180910390fd5b60006020828403121561084f57600080fd5b5035919050565b602081526000825180602084015260005b818110156108845760208186018101516040868401015201610867565b506000604082850101526040601f19601f83011684010191505092915050565b6000602082840312156108b657600080fd5b81356001600160a01b03811681146104ff57600080fd5b634e487b7160e01b600052601160045260246000fd5b80820281158282048414176108fa576108fa6108cd565b92915050565b60008261091d57634e487b7160e01b600052601260045260246000fd5b500490565b60006020828403121561093457600080fd5b5051919050565b818103818111156108fa576108fa6108cd56fea264697066735822122033558f592f9bab675e08b781e475db0ddbc306cb848c1eae065f05d3bfcc03c764736f6c634300081c0033",
  "linkReferences": {},
  "deployedLinkReferences": {},
  "immutableReferences": {},
  "inputSourceName": "project/contracts/MarketplaceFeeManager.sol",
  "buildInfoId": "solc-0_8_28-ba739ddfb222946726f00eb01ccbe7200cb0b5cd"
}