{
  "_format": "hh3-artifact-1",
  "contractName": "NFTCollectionFactory",
  "sourceName": "contracts/NFTCollectionFactory.sol",
  "abi": [
    {
      "inputs": [
        {
          "internalType": "address",
          "name": "initialOwner",
          "type": "address"
        },
        {
          "internalType": "uint256",
          "name": "deploymentFee_",
          "type": "uint256"
        },
        {
          "internalType": "address",
          "name": "feeRecipient_",
          "type": "address"
        }
      ],
      "stateMutability": "nonpayable",
      "type": "constructor"
    },
    {
      "inputs": [],
      "name": "CollectionNotFound",
      "type": "error"
    },
    {
      "inputs": [],
      "name": "DeploymentFailed",
      "type": "error"
    },
    {
      "inputs": [],
      "name": "EnforcedPause",
      "type": "error"
    },
    {
      "inputs": [],
      "name": "ExpectedPause",
      "type": "error"
    },
    {
      "inputs": [],
      "name": "InsufficientDeploymentFee",
      "type": "error"
    },
    {
      "inputs": [],
      "name": "InvalidCreator",
      "type": "error"
    },
    {
      "inputs": [],
      "name": "InvalidFeeRecipient",
      "type": "error"
    },
    {
      "inputs": [],
      "name": "MaxCollectionsExceeded",
      "type": "error"
    },
    {
      "inputs": [
        {
          "internalType": "address",
          "name": "owner",
          "type": "address"
        }
      ],
      "name": "OwnableInvalidOwner",
      "type": "error"
    },
    {
      "inputs": [
        {
          "internalType": "address",
          "name": "account",
          "type": "address"
        }
      ],
      "name": "OwnableUnauthorizedAccount",
      "type": "error"
    },
    {
      "inputs": [],
      "name": "ReentrancyGuardReentrantCall",
      "type": "error"
    },
    {
      "anonymous": false,
      "inputs": [
        {
          "indexed": true,
          "internalType": "address",
          "name": "collection",
          "type": "address"
        },
        {
          "indexed": true,
          "internalType": "address",
          "name": "creator",
          "type": "address"
        },
        {
          "indexed": false,
          "internalType": "string",
          "name": "name",
          "type": "string"
        },
        {
          "indexed": false,
          "internalType": "string",
          "name": "symbol",
          "type": "string"
        },
        {
          "indexed": false,
          "internalType": "uint256",
          "name": "maxSupply",
          "type": "uint256"
        }
      ],
      "name": "CollectionCreated",
      "type": "event"
    },
    {
      "anonymous": false,
      "inputs": [
        {
          "indexed": false,
          "internalType": "uint256",
          "name": "oldFee",
          "type": "uint256"
        },
        {
          "indexed": false,
          "internalType": "uint256",
          "name": "newFee",
          "type": "uint256"
        }
      ],
      "name": "DeploymentFeeUpdated",
      "type": "event"
    },
    {
      "anonymous": false,
      "inputs": [
        {
          "indexed": false,
          "internalType": "address",
          "name": "oldRecipient",
          "type": "address"
        },
        {
          "indexed": false,
          "internalType": "address",
          "name": "newRecipient",
          "type": "address"
        }
      ],
      "name": "FeeRecipientUpdated",
      "type": "event"
    },
    {
      "anonymous": false,
      "inputs": [
        {
          "indexed": false,
          "internalType": "uint256",
          "name": "oldMax",
          "type": "uint256"
        },
        {
          "indexed": false,
          "internalType": "uint256",
          "name": "newMax",
          "type": "uint256"
        }
      ],
      "name": "MaxCollectionsPerCreatorUpdated",
      "type": "event"
    },
    {
      "anonymous": false,
      "inputs": [
        {
          "indexed": true,
          "internalType": "address",
          "name": "previousOwner",
          "type": "address"
        },
        {
          "indexed": true,
          "internalType": "address",
          "name": "newOwner",
          "type": "address"
        }
      ],
      "name": "OwnershipTransferred",
      "type": "event"
    },
    {
      "anonymous": false,
      "inputs": [
        {
          "indexed": false,
          "internalType": "address",
          "name": "account",
          "type": "address"
        }
      ],
      "name": "Paused",
      "type": "event"
    },
    {
      "anonymous": false,
      "inputs": [
        {
          "indexed": false,
          "internalType": "address",
          "name": "account",
          "type": "address"
        }
      ],
      "name": "Unpaused",
      "type": "event"
    },
    {
      "inputs": [
        {
          "internalType": "uint256",
          "name": "",
          "type": "uint256"
        }
      ],
      "name": "allCollections",
      "outputs": [
        {
          "internalType": "address",
          "name": "",
          "type": "address"
        }
      ],
      "stateMutability": "view",
      "type": "function"
    },
    {
      "inputs": [
        {
          "components": [
            {
              "internalType": "string",
              "name": "name",
              "type": "string"
            },
            {
              "internalType": "string",
              "name": "symbol",
              "type": "string"
            },
            {
              "internalType": "string",
              "name": "baseURI",
              "type": "string"
            },
            {
              "internalType": "uint256",
              "name": "maxSupply",
              "type": "uint256"
            },
            {
              "internalType": "string",
              "name": "description",
              "type": "string"
            }
          ],
          "internalType": "struct NFTCollectionFactory.CollectionParams",
          "name": "params",
          "type": "tuple"
        }
      ],
      "name": "createCollection",
      "outputs": [
        {
          "internalType": "address",
          "name": "collection",
          "type": "address"
        }
      ],
      "stateMutability": "payable",
      "type": "function"
    },
    {
      "inputs": [
        {
          "components": [
            {
              "internalType": "string",
              "name": "name",
              "type": "string"
            },
            {
              "internalType": "string",
              "name": "symbol",
              "type": "string"
            },
            {
              "internalType": "string",
              "name": "baseURI",
              "type": "string"
            },
            {
              "internalType": "uint256",
              "name": "maxSupply",
              "type": "uint256"
            },
            {
              "internalType": "string",
              "name": "description",
              "type": "string"
            }
          ],
          "internalType": "struct NFTCollectionFactory.CollectionParams",
          "name": "params",
          "type": "tuple"
        },
        {
          "internalType": "address",
          "name": "creator",
          "type": "address"
        }
      ],
      "name": "createCollectionForCreator",
      "outputs": [
        {
          "internalType": "address",
          "name": "collection",
          "type": "address"
        }
      ],
      "stateMutability": "nonpayable",
      "type": "function"
    },
    {
      "inputs": [
        {
          "internalType": "address",
          "name": "",
          "type": "address"
        },
        {
          "internalType": "uint256",
          "name": "",
          "type": "uint256"
        }
      ],
      "name": "creatorCollections",
      "outputs": [
        {
          "internalType": "address",
          "name": "",
          "type": "address"
        }
      ],
      "stateMutability": "view",
      "type": "function"
    },
    {
      "inputs": [],
      "name": "deploymentFee",
      "outputs": [
        {
          "internalType": "uint256",
          "name": "",
          "type": "uint256"
        }
      ],
      "stateMutability": "view",
      "type": "function"
    },
    {
      "inputs": [],
      "name": "emergencyWithdraw",
      "outputs": [],
      "stateMutability": "nonpayable",
      "type": "function"
    },
    {
      "inputs": [],
      "name": "feeRecipient",
      "outputs": [
        {
          "internalType": "address",
          "name": "",
          "type": "address"
        }
      ],
      "stateMutability": "view",
      "type": "function"
    },
    {
      "inputs": [
        {
          "internalType": "uint256",
          "name": "offset",
          "type": "uint256"
        },
        {
          "internalType": "uint256",
          "name": "limit",
          "type": "uint256"
        }
      ],
      "name": "getAllCollections",
      "outputs": [
        {
          "internalType": "address[]",
          "name": "collections",
          "type": "address[]"
        },
        {
          "internalType": "uint256",
          "name": "total",
          "type": "uint256"
        }
      ],
      "stateMutability": "view",
      "type": "function"
    },
    {
      "inputs": [
        {
          "internalType": "address",
          "name": "collection",
          "type": "address"
        }
      ],
      "name": "getCollectionInfo",
      "outputs": [
        {
          "internalType": "bool",
          "name": "isValid",
          "type": "bool"
        },
        {
          "internalType": "address",
          "name": "creator",
          "type": "address"
        },
        {
          "internalType": "uint256",
          "name": "totalSupply",
          "type": "uint256"
        }
      ],
      "stateMutability": "view",
      "type": "function"
    },
    {
      "inputs": [
        {
          "internalType": "address",
          "name": "creator",
          "type": "address"
        }
      ],
      "name": "getCreatorCollectionCount",
      "outputs": [
        {
          "internalType": "uint256",
          "name": "",
          "type": "uint256"
        }
      ],
      "stateMutability": "view",
      "type": "function"
    },
    {
      "inputs": [
        {
          "internalType": "address",
          "name": "creator",
          "type": "address"
        }
      ],
      "name": "getCreatorCollections",
      "outputs": [
        {
          "internalType": "address[]",
          "name": "",
          "type": "address[]"
        }
      ],
      "stateMutability": "view",
      "type": "function"
    },
    {
      "inputs": [],
      "name": "getTotalCollections",
      "outputs": [
        {
          "internalType": "uint256",
          "name": "",
          "type": "uint256"
        }
      ],
      "stateMutability": "view",
      "type": "function"
    },
    {
      "inputs": [
        {
          "internalType": "address",
          "name": "",
          "type": "address"
        }
      ],
      "name": "isValidCollection",
      "outputs": [
        {
          "internalType": "bool",
          "name": "",
          "type": "bool"
        }
      ],
      "stateMutability": "view",
      "type": "function"
    },
    {
      "inputs": [],
      "name": "maxCollectionsPerCreator",
      "outputs": [
        {
          "internalType": "uint256",
          "name": "",
          "type": "uint256"
        }
      ],
      "stateMutability": "view",
      "type": "function"
    },
    {
      "inputs": [],
      "name": "owner",
      "outputs": [
        {
          "internalType": "address",
          "name": "",
          "type": "address"
        }
      ],
      "stateMutability": "view",
      "type": "function"
    },
    {
      "inputs": [],
      "name": "pause",
      "outputs": [],
      "stateMutability": "nonpayable",
      "type": "function"
    },
    {
      "inputs": [],
      "name": "paused",
      "outputs": [
        {
          "internalType": "bool",
          "name": "",
          "type": "bool"
        }
      ],
      "stateMutability": "view",
      "type": "function"
    },
    {
      "inputs": [],
      "name": "renounceOwnership",
      "outputs": [],
      "stateMutability": "nonpayable",
      "type": "function"
    },
    {
      "inputs": [
        {
          "internalType": "address",
          "name": "newOwner",
          "type": "address"
        }
      ],
      "name": "transferOwnership",
      "outputs": [],
      "stateMutability": "nonpayable",
      "type": "function"
    },
    {
      "inputs": [],
      "name": "unpause",
      "outputs": [],
      "stateMutability": "nonpayable",
      "type": "function"
    },
    {
      "inputs": [
        {
          "internalType": "uint256",
          "name": "newFee",
          "type": "uint256"
        }
      ],
      "name": "updateDeploymentFee",
      "outputs": [],
      "stateMutability": "nonpayable",
      "type": "function"
    },
    {
      "inputs": [
        {
          "internalType": "address",
          "name": "newRecipient",
          "type": "address"
        }
      ],
      "name": "updateFeeRecipient",
      "outputs": [],
      "stateMutability": "nonpayable",
      "type": "function"
    },
    {
      "inputs": [
        {
          "internalType": "uint256",
          "name": "newMax",
          "type": "uint256"
        }
      ],
      "name": "updateMaxCollectionsPerCreator",
      "outputs": [],
      "stateMutability": "nonpayable",
      "type": "function"
    },
    {
      "inputs": [],
      "name": "version",
      "outputs": [
        {
          "internalType": "string",
          "name": "",
          "type": "string"
        }
      ],
      "stateMutability": "pure",
      "type": "function"
    },
    {
      "stateMutability": "payable",
      "type": "receive"
    }
  ],
  "bytecode": "0x608060405234801561000f575f5ffd5b50604051613d6b380380613d6b83398101604081905261002e916101a3565b826001600160a01b03811661005c57604051631e4fbdf760e01b81525f600482015260240160405180910390fd5b61006581610139565b50600180556001600160a01b03811661009157604051630ed1b8b360e31b815260040160405180910390fd5b6006829055600780546001600160a01b0319166001600160a01b0383161790555f600881905560408051918252602082018490527fbade80ae0982a2d3106c4f5afa708793d20a9d6441a6440011f99e9f69ad5f3c910160405180910390a1604080515f81526001600160a01b03831660208201527faaebcf1bfa00580e41d966056b48521fa9f202645c86d4ddf28113e617c1b1d3910160405180910390a15050506101dc565b5f80546001600160a01b038381166001600160a01b0319831681178455604051919092169283917f8be0079c531659141344cd1fd0a4f28419497f9722a3daafe3b4186f6b6457e09190a35050565b80516001600160a01b038116811461019e575f5ffd5b919050565b5f5f5f606084860312156101b5575f5ffd5b6101be84610188565b9250602084015191506101d360408501610188565b90509250925092565b613b82806101e95f395ff3fe60806040526004361061014a575f3560e01c806375900e6a116100b3578063939bf6dd1161006d578063939bf6dd146103dd578063a3f3bc72146103f1578063db2e21bc14610425578063f160d36914610439578063f2cff57f14610458578063f2fde38b1461046d575f5ffd5b806375900e6a146102eb5780637e99535f14610319578063822f3e5d1461033c5780638456cb59146103695780638da5cb5b1461037d5780639056a04b14610399575f5ffd5b80635803efe4116101045780635803efe4146102375780635c975abb146102565780635ccfa6d4146102795780635cf7987c1461028c578063715018a6146102ab57806374311e12146102bf575f5ffd5b80630fa7009014610155578063167ef495146101765780633f4ba83a146101b257806346904840146101c6578063499200db146101e557806354fd4d5014610204575f5ffd5b3661015157005b5f5ffd5b348015610160575f5ffd5b5061017461016f366004610f39565b61048c565b005b348015610181575f5ffd5b50610195610190366004610f39565b6104da565b6040516001600160a01b0390911681526020015b60405180910390f35b3480156101bd575f5ffd5b50610174610502565b3480156101d1575f5ffd5b50600754610195906001600160a01b031681565b3480156101f0575f5ffd5b506101746101ff366004610f39565b610514565b34801561020f575f5ffd5b5060408051808201825260058152640312e302e360dc1b602082015290516101a99190610f50565b348015610242575f5ffd5b50610195610251366004610faf565b61055a565b348015610261575f5ffd5b5060025460ff165b60405190151581526020016101a9565b610195610287366004610ffe565b610757565b348015610297575f5ffd5b506101956102a6366004611038565b6109d4565b3480156102b6575f5ffd5b50610174610a08565b3480156102ca575f5ffd5b506102de6102d9366004611062565b610a19565b6040516101a991906110c7565b3480156102f6575f5ffd5b50610269610305366004611062565b60046020525f908152604090205460ff1681565b348015610324575f5ffd5b5061032e60085481565b6040519081526020016101a9565b348015610347575f5ffd5b5061035b6103563660046110d9565b610a8c565b6040516101a99291906110f9565b348015610374575f5ffd5b50610174610b8a565b348015610388575f5ffd5b505f546001600160a01b0316610195565b3480156103a4575f5ffd5b506103b86103b3366004611062565b610b9a565b6040805193151584526001600160a01b039092166020840152908201526060016101a9565b3480156103e8575f5ffd5b5060055461032e565b3480156103fc575f5ffd5b5061032e61040b366004611062565b6001600160a01b03165f9081526003602052604090205490565b348015610430575f5ffd5b50610174610c9f565b348015610444575f5ffd5b50610174610453366004611062565b610ce9565b348015610463575f5ffd5b5061032e60065481565b348015610478575f5ffd5b50610174610487366004611062565b610d72565b610494610db1565b600880549082905560408051828152602081018490527f166af73b39448ec9101c3d1765873526382fb39bd56c3322baaffcba46995d9791015b60405180910390a15050565b600581815481106104e9575f80fd5b5f918252602090912001546001600160a01b0316905081565b61050a610db1565b610512610ddd565b565b61051c610db1565b600680549082905560408051828152602081018490527fbade80ae0982a2d3106c4f5afa708793d20a9d6441a6440011f99e9f69ad5f3c91016104ce565b5f610563610db1565b61056b610e2f565b6001600160a01b038216610592576040516332db94d160e21b815260040160405180910390fd5b5f6008541180156105bc57506008546001600160a01b0383165f9081526003602052604090205410155b156105da576040516338db8ea960e01b815260040160405180910390fd5b6105e4838061111a565b6105f1602086018661111a565b6105fe604088018861111a565b8760608a013561061160808c018c61111a565b60405161061d90610f2c565b6106309a99989796959493929190611185565b604051809103905ff080156106425760015b61065f57604051633011642560e01b815260040160405180910390fd5b90506001600160a01b038083165f8181526003602090815260408083208054600181810183559185528385200180549688166001600160a01b031997881681179091558085526004909352908320805460ff1916821790556005805491820181559092527f036b6384b5eca791c62761152d0c79bb0604c104a5fb6f4eb0703f3154bb3db090910180549093168117909255907f7697d6df79350f3236f33512b2cff1f0c0d6c9fc7466cc4723189d4618e9fd5261071d868061111a565b61072a602089018961111a565b89606001356040516107409594939291906111fc565b60405180910390a361075160018055565b92915050565b5f610760610e2f565b610768610e59565b60065434101561078b576040516354605d0160e11b815260040160405180910390fd5b5f6008541180156107ac5750600854335f9081526003602052604090205410155b156107ca576040516338db8ea960e01b815260040160405180910390fd5b6107d4828061111a565b6107e1602085018561111a565b6107ee604087018761111a565b33606089013561080160808b018b61111a565b60405161080d90610f2c565b6108209a99989796959493929190611185565b604051809103905ff080156108325760015b61084f57604051633011642560e01b815260040160405180910390fd5b9050335f9081526003602090815260408083208054600181810183559185528385200180546001600160a01b0387166001600160a01b031991821681179092558186526004909452918420805460ff1916821790556005805491820181559093527f036b6384b5eca791c62761152d0c79bb0604c104a5fb6f4eb0703f3154bb3db09092018054909116909117905560065415610921576007546006546040516001600160a01b039092169181156108fc0291905f818181858888f1935050505015801561091f573d5f5f3e3d5ffd5b505b6006543411156109655760065433906108fc9061093e9034611249565b6040518115909202915f818181858888f19350505050158015610963573d5f5f3e3d5ffd5b505b336001600160a01b0382167f7697d6df79350f3236f33512b2cff1f0c0d6c9fc7466cc4723189d4618e9fd5261099b858061111a565b6109a8602088018861111a565b88606001356040516109be9594939291906111fc565b60405180910390a36109cf60018055565b919050565b6003602052815f5260405f2081815481106109ed575f80fd5b5f918252602090912001546001600160a01b03169150829050565b610a10610db1565b6105125f610e7d565b6001600160a01b0381165f90815260036020908152604091829020805483518184028101840190945280845260609392830182828015610a8057602002820191905f5260205f20905b81546001600160a01b03168152600190910190602001808311610a62575b50505050509050919050565b600554606090808410610aae57604080515f8152602081019091529150610b83565b5f610ab98486611270565b905081811115610ac65750805b610ad08582611249565b67ffffffffffffffff811115610ae857610ae861125c565b604051908082528060200260200182016040528015610b11578160200160208202803683370190505b509250845b81811015610b805760058181548110610b3157610b31611283565b5f918252602090912001546001600160a01b031684610b508884611249565b81518110610b6057610b60611283565b6001600160a01b0390921660209283029190910190910152600101610b16565b50505b9250929050565b610b92610db1565b610512610ecc565b6001600160a01b0381165f908152600460205260408120548190819060ff16610bca57505f915081905080610c98565b5f8490506001816001600160a01b0316638da5cb5b6040518163ffffffff1660e01b8152600401602060405180830381865afa158015610c0c573d5f5f3e3d5ffd5b505050506040513d601f19601f82011682018060405250810190610c309190611297565b826001600160a01b03166318160ddd6040518163ffffffff1660e01b8152600401602060405180830381865afa158015610c6c573d5f5f3e3d5ffd5b505050506040513d601f19601f82011682018060405250810190610c9091906112b2565b935093509350505b9193909250565b610ca7610db1565b478015610ce6575f80546040516001600160a01b039091169183156108fc02918491818181858888f19350505050158015610ce4573d5f5f3e3d5ffd5b505b50565b610cf1610db1565b6001600160a01b038116610d1857604051630ed1b8b360e31b815260040160405180910390fd5b600780546001600160a01b038381166001600160a01b031983168117909355604080519190921680825260208201939093527faaebcf1bfa00580e41d966056b48521fa9f202645c86d4ddf28113e617c1b1d391016104ce565b610d7a610db1565b6001600160a01b038116610da857604051631e4fbdf760e01b81525f60048201526024015b60405180910390fd5b610ce681610e7d565b5f546001600160a01b031633146105125760405163118cdaa760e01b8152336004820152602401610d9f565b610de5610f09565b6002805460ff191690557f5db9ee0a495bf2e6ff9c91a7834c1ba4fdd244a5e8aa4e537bd38aeae4b073aa335b6040516001600160a01b03909116815260200160405180910390a1565b600260015403610e5257604051633ee5aeb560e01b815260040160405180910390fd5b6002600155565b60025460ff16156105125760405163d93c066560e01b815260040160405180910390fd5b5f80546001600160a01b038381166001600160a01b0319831681178455604051919092169283917f8be0079c531659141344cd1fd0a4f28419497f9722a3daafe3b4186f6b6457e09190a35050565b610ed4610e59565b6002805460ff191660011790557f62e78cea01bee320cd4e420270b5ea74000d11b0c9f74754ebdbfc544b05a258610e123390565b60025460ff1661051257604051638dfc202b60e01b815260040160405180910390fd5b612883806112ca83390190565b5f60208284031215610f49575f5ffd5b5035919050565b602081525f82518060208401528060208501604085015e5f604082850101526040601f19601f83011684010191505092915050565b5f60a08284031215610f95575f5ffd5b50919050565b6001600160a01b0381168114610ce6575f5ffd5b5f5f60408385031215610fc0575f5ffd5b823567ffffffffffffffff811115610fd6575f5ffd5b610fe285828601610f85565b9250506020830135610ff381610f9b565b809150509250929050565b5f6020828403121561100e575f5ffd5b813567ffffffffffffffff811115611024575f5ffd5b61103084828501610f85565b949350505050565b5f5f60408385031215611049575f5ffd5b823561105481610f9b565b946020939093013593505050565b5f60208284031215611072575f5ffd5b813561107d81610f9b565b9392505050565b5f8151808452602084019350602083015f5b828110156110bd5781516001600160a01b0316865260209586019590910190600101611096565b5093949350505050565b602081525f61107d6020830184611084565b5f5f604083850312156110ea575f5ffd5b50508035926020909101359150565b604081525f61110b6040830185611084565b90508260208301529392505050565b5f5f8335601e1984360301811261112f575f5ffd5b83018035915067ffffffffffffffff821115611149575f5ffd5b602001915036819003821315610b83575f5ffd5b81835281816020850137505f828201602090810191909152601f909101601f19169091010190565b60c081525f61119860c083018c8e61115d565b82810360208401526111ab818b8d61115d565b905082810360408401526111c081898b61115d565b6001600160a01b03881660608501526080840187905283810360a085015290506111eb81858761115d565b9d9c50505050505050505050505050565b606081525f61120f60608301878961115d565b828103602084015261122281868861115d565b9150508260408301529695505050505050565b634e487b7160e01b5f52601160045260245ffd5b8181038181111561075157610751611235565b634e487b7160e01b5f52604160045260245ffd5b8082018082111561075157610751611235565b634e487b7160e01b5f52603260045260245ffd5b5f602082840312156112a7575f5ffd5b815161107d81610f9b565b5f602082840312156112c2575f5ffd5b505191905056fe608060405234801561000f575f5ffd5b5060405161288338038061288383398101604081905261002e916101c1565b8286865f61003c8382610317565b5060016100498282610317565b5050506001600160a01b03811661007957604051631e4fbdf760e01b81525f600482015260240160405180910390fd5b610082816100b8565b506001600c55600e6100948582610317565b50601082905560116100a68282610317565b50506001600f55506103d19350505050565b600b80546001600160a01b038381166001600160a01b0319831681179093556040519116919082907f8be0079c531659141344cd1fd0a4f28419497f9722a3daafe3b4186f6b6457e0905f90a35050565b634e487b7160e01b5f52604160045260245ffd5b5f82601f83011261012c575f5ffd5b81516001600160401b0381111561014557610145610109565b604051601f8201601f19908116603f011681016001600160401b038111828210171561017357610173610109565b60405281815283820160200185101561018a575f5ffd5b8160208501602083015e5f918101602001919091529392505050565b80516001600160a01b03811681146101bc575f5ffd5b919050565b5f5f5f5f5f5f60c087890312156101d6575f5ffd5b86516001600160401b038111156101eb575f5ffd5b6101f789828a0161011d565b602089015190975090506001600160401b03811115610214575f5ffd5b61022089828a0161011d565b604089015190965090506001600160401b0381111561023d575f5ffd5b61024989828a0161011d565b945050610258606088016101a6565b608088015160a089015191945092506001600160401b0381111561027a575f5ffd5b61028689828a0161011d565b9150509295509295509295565b600181811c908216806102a757607f821691505b6020821081036102c557634e487b7160e01b5f52602260045260245ffd5b50919050565b601f82111561031257805f5260205f20601f840160051c810160208510156102f05750805b601f840160051c820191505b8181101561030f575f81556001016102fc565b50505b505050565b81516001600160401b0381111561033057610330610109565b6103448161033e8454610293565b846102cb565b6020601f821160018114610376575f831561035f5750848201515b5f19600385901b1c1916600184901b17845561030f565b5f84815260208120601f198516915b828110156103a55787850151825560209485019460019092019101610385565b50848210156103c257868401515f19600387901b60f8161c191681555b50505050600190811b01905550565b6124a5806103de5f395ff3fe608060405234801561000f575f5ffd5b5060043610610213575f3560e01c8063715018a61161011f578063b88d4fde116100a9578063d5abeb0111610079578063d5abeb0114610473578063e0fd045f1461047c578063e985e9c5146104a4578063f24a3ae6146104b7578063f2fde38b146104d7575f5ffd5b8063b88d4fde1461041b578063bc189d381461042e578063c87b56dd14610441578063cb53b24b14610454575f5ffd5b80638da5cb5b116100ef5780638da5cb5b146103df5780638fc73484146103f057806395d89b41146103f8578063a22cb46514610400578063a2309ff814610413575f5ffd5b8063715018a6146103955780637284e4161461039d578063833b7b78146103a55780638456cb59146103d7575f5ffd5b80633f4ba83a116101a057806355f804b31161017057806355f804b3146103375780635894bd511461034a5780635c975abb146103645780636352211e1461036f57806370a0823114610382575f5ffd5b80633f4ba83a146102f657806342842e0e146102fe57806342966c68146103115780634f6ccce714610324575f5ffd5b8063095ea7b3116101e6578063095ea7b3146102a057806318160ddd146102b557806323b872dd146102bd5780632f745c59146102d05780633b89105d146102e3575f5ffd5b806301ffc9a71461021757806306fdde031461023f578063081812fc1461025457806308598df01461027f575b5f5ffd5b61022a610225366004611cf1565b6104ea565b60405190151581526020015b60405180910390f35b6102476104fa565b6040516102369190611d3a565b610267610262366004611d4c565b610589565b6040516001600160a01b039091168152602001610236565b61029261028d366004611e38565b6105b0565b604051908152602001610236565b6102b36102ae366004611e8b565b61070a565b005b600954610292565b6102b36102cb366004611eb3565b610719565b6102926102de366004611e8b565b6107a7565b6102b36102f1366004611eed565b61080a565b6102b3610869565b6102b361030c366004611eb3565b61087b565b6102b361031f366004611d4c565b61089a565b610292610332366004611d4c565b6108df565b6102b3610345366004611f50565b610934565b610352610983565b60405161023696959493929190611f81565b600d5460ff1661022a565b61026761037d366004611d4c565b610add565b610292610390366004611fd2565b610ae7565b6102b3610b2c565b610247610b3d565b6103b86103b3366004611d4c565b610bc9565b604080516001600160a01b039093168352602083019190915201610236565b6102b3610c29565b600b546001600160a01b0316610267565b610247610c39565b610247610c46565b6102b361040e366004611feb565b610c55565b610292610c60565b6102b3610429366004612024565b610c75565b6102b361043c36600461209a565b610c8d565b61024761044f366004611d4c565b610d3c565b610292610462366004611d4c565b60146020525f908152604090205481565b61029260105481565b61026761048a366004611d4c565b60136020525f90815260409020546001600160a01b031681565b61022a6104b23660046120ba565b610d47565b6104ca6104c53660046120eb565b610d74565b60405161023691906121ce565b6102b36104e5366004611fd2565b610f95565b5f6104f482610fcf565b92915050565b60605f805461050890612210565b80601f016020809104026020016040519081016040528092919081815260200182805461053490612210565b801561057f5780601f106105565761010080835404028352916020019161057f565b820191905f5260205f20905b81548152906001019060200180831161056257829003601f168201915b5050505050905090565b5f61059382610ff3565b505f828152600460205260409020546001600160a01b03166104f4565b5f6105b961102b565b6105c1611058565b6105c9611082565b5f6010541180156105dd5750601054600f54115b156105fb57604051638a164f6360e01b815260040160405180910390fd5b6103e882111561061e5760405163134aed6960e21b815260040160405180910390fd5b600f80549081905f61062f8361225c565b919050555061063e85826110a6565b61064881856110bf565b600b545f82815260136020908152604080832080546001600160a01b0319166001600160a01b03958616179055601490915290819020859055519086169082907fec2cd236ed6d37bf5a71276ac93889db12834493a090efd543a3d2eca8dcdcc8906106b5908890611d3a565b60405180910390a3807f2f38e4d1636e7779ad62cfa88be99a558be72503fa6916e4ea7ff7cc6a91b6e6846040516106ef91815260200190565b60405180910390a290506107036001600c55565b9392505050565b610715828233611107565b5050565b6001600160a01b03821661074757604051633250574960e11b81525f60048201526024015b60405180910390fd5b5f610753838333611114565b9050836001600160a01b0316816001600160a01b0316146107a1576040516364283d7b60e01b81526001600160a01b038086166004830152602482018490528216604482015260640161073e565b50505050565b5f6107b183610ae7565b82106107e25760405163295f44f760e21b81526001600160a01b03841660048201526024810183905260440161073e565b506001600160a01b03919091165f908152600760209081526040808320938352929052205490565b61081261102b565b601161081e83826122b8565b50601261082b82826122b8565b507f12508d6b74d6bda6f8eacc67129e4a2c476ece1f908a1b2bf4aaed7e48539687828260405161085d929190612372565b60405180910390a15050565b61087161102b565b610879611128565b565b61089583838360405180602001604052805f815250610c75565b505050565b6108b66108af600b546001600160a01b031690565b338361117a565b6108d357604051634cd9539b60e11b815260040160405180910390fd5b6108dc816111db565b50565b5f6108e960095490565b82106109115760405163295f44f760e21b81525f60048201526024810183905260440161073e565b600982815481106109245761092461239f565b905f5260205f2001549050919050565b61093c61102b565b600e61094882826122b8565b507f6741b2fc379fad678116fe3d4d4b9a1a184ab53ba36b86ad0fa66340b1ab41ad816040516109789190611d3a565b60405180910390a150565b5f5f5f5f60608061099360095490565b6001600f546109a291906123b3565b601054600b546001600160a01b0316601160128180546109c190612210565b80601f01602080910402602001604051908101604052809291908181526020018280546109ed90612210565b8015610a385780601f10610a0f57610100808354040283529160200191610a38565b820191905f5260205f20905b815481529060010190602001808311610a1b57829003601f168201915b50505050509150808054610a4b90612210565b80601f0160208091040260200160405190810160405280929190818152602001828054610a7790612210565b8015610ac25780601f10610a9957610100808354040283529160200191610ac2565b820191905f5260205f20905b815481529060010190602001808311610aa557829003601f168201915b50505050509050955095509550955095509550909192939495565b5f6104f482610ff3565b5f6001600160a01b038216610b11576040516322718ad960e21b81525f600482015260240161073e565b506001600160a01b03165f9081526003602052604090205490565b610b3461102b565b6108795f611213565b60118054610b4a90612210565b80601f0160208091040260200160405190810160405280929190818152602001828054610b7690612210565b8015610bc15780601f10610b9857610100808354040283529160200191610bc1565b820191905f5260205f20905b815481529060010190602001808311610ba457829003601f168201915b505050505081565b5f8181526002602052604081205481906001600160a01b0316610bff5760405163677510db60e11b815260040160405180910390fd5b50505f908152601360209081526040808320546014909252909120546001600160a01b0390911691565b610c3161102b565b610879611264565b60128054610b4a90612210565b60606001805461050890612210565b6107153383836112a1565b5f6001600f54610c7091906123b3565b905090565b610c80848484610719565b6107a1338585858561133f565b610c9561102b565b5f828152600260205260409020546001600160a01b0316610cc95760405163677510db60e11b815260040160405180910390fd5b6103e8811115610cec5760405163134aed6960e21b815260040160405180910390fd5b5f82815260146020526040908190208290555182907f2f38e4d1636e7779ad62cfa88be99a558be72503fa6916e4ea7ff7cc6a91b6e690610d309084815260200190565b60405180910390a25050565b60606104f482611467565b6001600160a01b039182165f90815260056020908152604080832093909416825291909152205460ff1690565b6060610d7e61102b565b610d86611058565b610d8e611082565b825160105415801590610dbb5750601054600182600f54610daf91906123c6565b610db991906123b3565b115b15610dd957604051638a164f6360e01b815260040160405180910390fd5b6103e8831115610dfc5760405163134aed6960e21b815260040160405180910390fd5b5f816001600160401b03811115610e1557610e15611d7e565b604051908082528060200260200182016040528015610e3e578160200160208202803683370190505b5090505f5b82811015610f4d57600f80549081905f610e5c8361225c565b9190505550610e6b88826110a6565b610e8e81888481518110610e8157610e8161239f565b60200260200101516110bf565b600b545f82815260136020908152604080832080546001600160a01b0319166001600160a01b0390951694909417909355601490522086905582518190849084908110610edd57610edd61239f565b602002602001018181525050876001600160a01b0316817fec2cd236ed6d37bf5a71276ac93889db12834493a090efd543a3d2eca8dcdcc8898581518110610f2757610f2761239f565b6020026020010151604051610f3c9190611d3a565b60405180910390a350600101610e43565b505f7f2f38e4d1636e7779ad62cfa88be99a558be72503fa6916e4ea7ff7cc6a91b6e685604051610f8091815260200190565b60405180910390a29150506107036001600c55565b610f9d61102b565b6001600160a01b038116610fc657604051631e4fbdf760e01b81525f600482015260240161073e565b6108dc81611213565b5f6001600160e01b0319821663780e9d6360e01b14806104f457506104f48261155e565b5f818152600260205260408120546001600160a01b0316806104f457604051637e27328960e01b81526004810184905260240161073e565b600b546001600160a01b031633146108795760405163118cdaa760e01b815233600482015260240161073e565b6002600c540361107b57604051633ee5aeb560e01b815260040160405180910390fd5b6002600c55565b600d5460ff16156108795760405163d93c066560e01b815260040160405180910390fd5b610715828260405180602001604052805f815250611582565b5f8281526006602052604090206110d682826122b8565b506040518281527ff8e1a15aba9398e019f0b49df1a4fde98ee17ae345cb5f6b5e2c27f5033e8ce79060200161085d565b6108958383836001611599565b5f61112084848461169d565b949350505050565b611130611768565b600d805460ff191690557f5db9ee0a495bf2e6ff9c91a7834c1ba4fdd244a5e8aa4e537bd38aeae4b073aa335b6040516001600160a01b03909116815260200160405180910390a1565b5f6001600160a01b038316158015906111205750826001600160a01b0316846001600160a01b031614806111b357506111b38484610d47565b806111205750505f908152600460205260409020546001600160a01b03908116911614919050565b5f6111e75f835f611114565b90506001600160a01b03811661071557604051637e27328960e01b81526004810183905260240161073e565b600b80546001600160a01b038381166001600160a01b0319831681179093556040519116919082907f8be0079c531659141344cd1fd0a4f28419497f9722a3daafe3b4186f6b6457e0905f90a35050565b61126c611082565b600d805460ff191660011790557f62e78cea01bee320cd4e420270b5ea74000d11b0c9f74754ebdbfc544b05a25861115d3390565b6001600160a01b0382166112d357604051630b61174360e31b81526001600160a01b038316600482015260240161073e565b6001600160a01b038381165f81815260056020908152604080832094871680845294825291829020805460ff191686151590811790915591519182527f17307eab39ab6107e8899845ad3d59bd9653f200f220920489ca2b5937696c31910160405180910390a3505050565b6001600160a01b0383163b1561146057604051630a85bd0160e11b81526001600160a01b0384169063150b7a02906113819088908890879087906004016123d9565b6020604051808303815f875af19250505080156113bb575060408051601f3d908101601f191682019092526113b891810190612415565b60015b611422573d8080156113e8576040519150601f19603f3d011682016040523d82523d5f602084013e6113ed565b606091505b5080515f0361141a57604051633250574960e11b81526001600160a01b038516600482015260240161073e565b805160208201fd5b6001600160e01b03198116630a85bd0160e11b1461145e57604051633250574960e11b81526001600160a01b038516600482015260240161073e565b505b5050505050565b606061147282610ff3565b505f828152600660205260408120805461148b90612210565b80601f01602080910402602001604051908101604052809291908181526020018280546114b790612210565b80156115025780601f106114d957610100808354040283529160200191611502565b820191905f5260205f20905b8154815290600101906020018083116114e557829003601f168201915b505050505090505f61151261178b565b905080515f03611523575092915050565b81511561155557808260405160200161153d929190612447565b60405160208183030381529060405292505050919050565b6111208461179a565b5f6001600160e01b03198216632483248360e11b14806104f457506104f4826117fe565b61158c838361184d565b610895335f85858561133f565b80806115ad57506001600160a01b03821615155b1561166e575f6115bc84610ff3565b90506001600160a01b038316158015906115e85750826001600160a01b0316816001600160a01b031614155b80156115fb57506115f98184610d47565b155b156116245760405163a9fbf51f60e01b81526001600160a01b038416600482015260240161073e565b811561166c5783856001600160a01b0316826001600160a01b03167f8c5be1e5ebec7d5bd14f71427d1e84f3dd0314c0f7b2291e5b200ac8c7c3b92560405160405180910390a45b505b50505f90815260046020526040902080546001600160a01b0319166001600160a01b0392909216919091179055565b5f5f6116aa8585856118ae565b90506001600160a01b0381166117065761170184600980545f838152600a60205260408120829055600182018355919091527f6e1540171b6c0c960b71a7020d9f60077f6af931a8bbf590da0223dacf75c7af0155565b611729565b846001600160a01b0316816001600160a01b0316146117295761172981856119a0565b6001600160a01b0385166117455761174084611a1d565b611120565b846001600160a01b0316816001600160a01b031614611120576111208585611ac4565b600d5460ff1661087957604051638dfc202b60e01b815260040160405180910390fd5b6060600e805461050890612210565b60606117a582610ff3565b505f6117af61178b565b90505f8151116117cd5760405180602001604052805f815250610703565b806117d784611b12565b6040516020016117e8929190612447565b6040516020818303038152906040529392505050565b5f6001600160e01b031982166380ac58cd60e01b148061182e57506001600160e01b03198216635b5e139f60e01b145b806104f457506301ffc9a760e01b6001600160e01b03198316146104f4565b6001600160a01b03821661187657604051633250574960e11b81525f600482015260240161073e565b5f61188283835f611114565b90506001600160a01b03811615610895576040516339e3563760e11b81525f600482015260240161073e565b5f828152600260205260408120546001600160a01b03908116908316156118da576118da818486611ba1565b6001600160a01b03811615611914576118f55f855f5f611599565b6001600160a01b0381165f90815260036020526040902080545f190190555b6001600160a01b03851615611942576001600160a01b0385165f908152600360205260409020805460010190555b5f8481526002602052604080822080546001600160a01b0319166001600160a01b0389811691821790925591518793918516917fddf252ad1be2c89b69c2b068fc378daa952ba7f163c4a11628f55a4df523b3ef91a4949350505050565b5f6119aa83610ae7565b5f838152600860209081526040808320546001600160a01b03881684526007909252909120919250908183146119ff575f83815260208281526040808320548584528184208190558352600890915290208290555b5f938452600860209081526040808620869055938552525081205550565b6009545f90611a2e906001906123b3565b5f838152600a602052604081205460098054939450909284908110611a5557611a5561239f565b905f5260205f20015490508060098381548110611a7457611a7461239f565b5f918252602080832090910192909255828152600a90915260408082208490558582528120556009805480611aab57611aab61245b565b600190038181905f5260205f20015f9055905550505050565b5f6001611ad084610ae7565b611ada91906123b3565b6001600160a01b039093165f908152600760209081526040808320868452825280832085905593825260089052919091209190915550565b60605f611b1e83611c05565b60010190505f816001600160401b03811115611b3c57611b3c611d7e565b6040519080825280601f01601f191660200182016040528015611b66576020820181803683370190505b5090508181016020015b5f19016f181899199a1a9b1b9c1cb0b131b232b360811b600a86061a8153600a8504945084611b7057509392505050565b611bac83838361117a565b610895576001600160a01b038316611bda57604051637e27328960e01b81526004810182905260240161073e565b60405163177e802f60e01b81526001600160a01b03831660048201526024810182905260440161073e565b5f8072184f03e93ff9f4daa797ed6e38ed64bf6a1f0160401b8310611c435772184f03e93ff9f4daa797ed6e38ed64bf6a1f0160401b830492506040015b6d04ee2d6d415b85acef81000000008310611c6f576d04ee2d6d415b85acef8100000000830492506020015b662386f26fc100008310611c8d57662386f26fc10000830492506010015b6305f5e1008310611ca5576305f5e100830492506008015b6127108310611cb957612710830492506004015b60648310611ccb576064830492506002015b600a83106104f45760010192915050565b6001600160e01b0319811681146108dc575f5ffd5b5f60208284031215611d01575f5ffd5b813561070381611cdc565b5f81518084528060208401602086015e5f602082860101526020601f19601f83011685010191505092915050565b602081525f6107036020830184611d0c565b5f60208284031215611d5c575f5ffd5b5035919050565b80356001600160a01b0381168114611d79575f5ffd5b919050565b634e487b7160e01b5f52604160045260245ffd5b604051601f8201601f191681016001600160401b0381118282101715611dba57611dba611d7e565b604052919050565b5f5f6001600160401b03841115611ddb57611ddb611d7e565b50601f8301601f1916602001611df081611d92565b915050828152838383011115611e04575f5ffd5b828260208301375f602084830101529392505050565b5f82601f830112611e29575f5ffd5b61070383833560208501611dc2565b5f5f5f60608486031215611e4a575f5ffd5b611e5384611d63565b925060208401356001600160401b03811115611e6d575f5ffd5b611e7986828701611e1a565b93969395505050506040919091013590565b5f5f60408385031215611e9c575f5ffd5b611ea583611d63565b946020939093013593505050565b5f5f5f60608486031215611ec5575f5ffd5b611ece84611d63565b9250611edc60208501611d63565b929592945050506040919091013590565b5f5f60408385031215611efe575f5ffd5b82356001600160401b03811115611f13575f5ffd5b611f1f85828601611e1a565b92505060208301356001600160401b03811115611f3a575f5ffd5b611f4685828601611e1a565b9150509250929050565b5f60208284031215611f60575f5ffd5b81356001600160401b03811115611f75575f5ffd5b61112084828501611e1a565b86815285602082015284604082015260018060a01b038416606082015260c060808201525f611fb360c0830185611d0c565b82810360a0840152611fc58185611d0c565b9998505050505050505050565b5f60208284031215611fe2575f5ffd5b61070382611d63565b5f5f60408385031215611ffc575f5ffd5b61200583611d63565b915060208301358015158114612019575f5ffd5b809150509250929050565b5f5f5f5f60808587031215612037575f5ffd5b61204085611d63565b935061204e60208601611d63565b92506040850135915060608501356001600160401b0381111561206f575f5ffd5b8501601f8101871361207f575f5ffd5b61208e87823560208401611dc2565b91505092959194509250565b5f5f604083850312156120ab575f5ffd5b50508035926020909101359150565b5f5f604083850312156120cb575f5ffd5b6120d483611d63565b91506120e260208401611d63565b90509250929050565b5f5f5f606084860312156120fd575f5ffd5b61210684611d63565b925060208401356001600160401b03811115612120575f5ffd5b8401601f81018613612130575f5ffd5b80356001600160401b0381111561214957612149611d7e565b8060051b61215960208201611d92565b91825260208184018101929081019089841115612174575f5ffd5b6020850192505b838310156121b95782356001600160401b03811115612198575f5ffd5b6121a78b602083890101611e1a565b8352506020928301929091019061217b565b96999698505050506040949094013593505050565b602080825282518282018190525f918401906040840190835b818110156122055783518352602093840193909201916001016121e7565b509095945050505050565b600181811c9082168061222457607f821691505b60208210810361224257634e487b7160e01b5f52602260045260245ffd5b50919050565b634e487b7160e01b5f52601160045260245ffd5b5f6001820161226d5761226d612248565b5060010190565b601f82111561089557805f5260205f20601f840160051c810160208510156122995750805b601f840160051c820191505b81811015611460575f81556001016122a5565b81516001600160401b038111156122d1576122d1611d7e565b6122e5816122df8454612210565b84612274565b6020601f821160018114612317575f83156123005750848201515b5f19600385901b1c1916600184901b178455611460565b5f84815260208120601f198516915b828110156123465787850151825560209485019460019092019101612326565b508482101561236357868401515f19600387901b60f8161c191681555b50505050600190811b01905550565b604081525f6123846040830185611d0c565b82810360208401526123968185611d0c565b95945050505050565b634e487b7160e01b5f52603260045260245ffd5b818103818111156104f4576104f4612248565b808201808211156104f4576104f4612248565b6001600160a01b03858116825284166020820152604081018390526080606082018190525f9061240b90830184611d0c565b9695505050505050565b5f60208284031215612425575f5ffd5b815161070381611cdc565b5f81518060208401855e5f93019283525090919050565b5f6111206124558386612430565b84612430565b634e487b7160e01b5f52603160045260245ffdfea26469706673582212205ecdffea08eb3528a967be6baebe6982440cac4cf241fe8b6f08b5611b38282764736f6c634300081c0033a264697066735822122056eefb61af2890f7552bd8ba563d7ff2a640ec5714220369289980972aaf126464736f6c634300081c0033",
  "linkReferences": {},
  "deployedLinkReferences": {},
  "immutableReferences": {},
  "inputSourceName": "project/contracts/NFTCollectionFactory.sol",
  "buildInfoId": "solc-0_8_28-a3157b7cbc843572fb186f3af2e653d04c4ea9b8"
}