{
  "_format": "hh3-artifact-1",
  "contractName": "Marketplace",
  "sourceName": "contracts/Marketplace.sol",
  "abi": [
    {
      "inputs": [
        {
          "internalType": "address",
          "name": "initialOwner",
          "type": "address"
        },
        {
          "internalType": "address",
          "name": "feeManager_",
          "type": "address"
        },
        {
          "internalType": "uint256",
          "name": "minimumListingPrice_",
          "type": "uint256"
        }
      ],
      "stateMutability": "nonpayable",
      "type": "constructor"
    },
    {
      "inputs": [],
      "name": "EnforcedPause",
      "type": "error"
    },
    {
      "inputs": [],
      "name": "ExpectedPause",
      "type": "error"
    },
    {
      "inputs": [],
      "name": "FailedCall",
      "type": "error"
    },
    {
      "inputs": [
        {
          "internalType": "uint256",
          "name": "balance",
          "type": "uint256"
        },
        {
          "internalType": "uint256",
          "name": "needed",
          "type": "uint256"
        }
      ],
      "name": "InsufficientBalance",
      "type": "error"
    },
    {
      "inputs": [],
      "name": "InsufficientPayment",
      "type": "error"
    },
    {
      "inputs": [],
      "name": "InvalidFeeManager",
      "type": "error"
    },
    {
      "inputs": [],
      "name": "InvalidNFTContract",
      "type": "error"
    },
    {
      "inputs": [],
      "name": "InvalidPrice",
      "type": "error"
    },
    {
      "inputs": [],
      "name": "ListingAlreadyExists",
      "type": "error"
    },
    {
      "inputs": [],
      "name": "ListingNotActive",
      "type": "error"
    },
    {
      "inputs": [],
      "name": "ListingNotFound",
      "type": "error"
    },
    {
      "inputs": [],
      "name": "NFTNotApproved",
      "type": "error"
    },
    {
      "inputs": [],
      "name": "NotListingSeller",
      "type": "error"
    },
    {
      "inputs": [],
      "name": "NotNFTOwner",
      "type": "error"
    },
    {
      "inputs": [
        {
          "internalType": "address",
          "name": "owner",
          "type": "address"
        }
      ],
      "name": "OwnableInvalidOwner",
      "type": "error"
    },
    {
      "inputs": [
        {
          "internalType": "address",
          "name": "account",
          "type": "address"
        }
      ],
      "name": "OwnableUnauthorizedAccount",
      "type": "error"
    },
    {
      "inputs": [],
      "name": "PriceBelowMinimum",
      "type": "error"
    },
    {
      "inputs": [],
      "name": "ReentrancyGuardReentrantCall",
      "type": "error"
    },
    {
      "inputs": [
        {
          "internalType": "address",
          "name": "token",
          "type": "address"
        }
      ],
      "name": "SafeERC20FailedOperation",
      "type": "error"
    },
    {
      "inputs": [],
      "name": "TransferFailed",
      "type": "error"
    },
    {
      "inputs": [],
      "name": "UnsupportedPaymentToken",
      "type": "error"
    },
    {
      "anonymous": false,
      "inputs": [
        {
          "indexed": true,
          "internalType": "bytes32",
          "name": "listingId",
          "type": "bytes32"
        },
        {
          "indexed": true,
          "internalType": "address",
          "name": "seller",
          "type": "address"
        },
        {
          "indexed": true,
          "internalType": "address",
          "name": "nftContract",
          "type": "address"
        },
        {
          "indexed": false,
          "internalType": "uint256",
          "name": "tokenId",
          "type": "uint256"
        },
        {
          "indexed": false,
          "internalType": "uint256",
          "name": "price",
          "type": "uint256"
        },
        {
          "indexed": false,
          "internalType": "address",
          "name": "paymentToken",
          "type": "address"
        }
      ],
      "name": "ItemListed",
      "type": "event"
    },
    {
      "anonymous": false,
      "inputs": [
        {
          "indexed": true,
          "internalType": "bytes32",
          "name": "listingId",
          "type": "bytes32"
        },
        {
          "indexed": true,
          "internalType": "address",
          "name": "buyer",
          "type": "address"
        },
        {
          "indexed": true,
          "internalType": "address",
          "name": "seller",
          "type": "address"
        },
        {
          "indexed": false,
          "internalType": "address",
          "name": "nftContract",
          "type": "address"
        },
        {
          "indexed": false,
          "internalType": "uint256",
          "name": "tokenId",
          "type": "uint256"
        },
        {
          "indexed": false,
          "internalType": "uint256",
          "name": "price",
          "type": "uint256"
        },
        {
          "indexed": false,
          "internalType": "address",
          "name": "paymentToken",
          "type": "address"
        },
        {
          "indexed": false,
          "internalType": "uint256",
          "name": "marketFee",
          "type": "uint256"
        },
        {
          "indexed": false,
          "internalType": "uint256",
          "name": "royaltyFee",
          "type": "uint256"
        }
      ],
      "name": "ItemSold",
      "type": "event"
    },
    {
      "anonymous": false,
      "inputs": [
        {
          "indexed": true,
          "internalType": "bytes32",
          "name": "listingId",
          "type": "bytes32"
        },
        {
          "indexed": true,
          "internalType": "address",
          "name": "seller",
          "type": "address"
        },
        {
          "indexed": false,
          "internalType": "address",
          "name": "nftContract",
          "type": "address"
        },
        {
          "indexed": false,
          "internalType": "uint256",
          "name": "tokenId",
          "type": "uint256"
        }
      ],
      "name": "ListingCancelled",
      "type": "event"
    },
    {
      "anonymous": false,
      "inputs": [
        {
          "indexed": false,
          "internalType": "uint256",
          "name": "oldPrice",
          "type": "uint256"
        },
        {
          "indexed": false,
          "internalType": "uint256",
          "name": "newPrice",
          "type": "uint256"
        }
      ],
      "name": "MinimumListingPriceUpdated",
      "type": "event"
    },
    {
      "anonymous": false,
      "inputs": [
        {
          "indexed": true,
          "internalType": "address",
          "name": "previousOwner",
          "type": "address"
        },
        {
          "indexed": true,
          "internalType": "address",
          "name": "newOwner",
          "type": "address"
        }
      ],
      "name": "OwnershipTransferred",
      "type": "event"
    },
    {
      "anonymous": false,
      "inputs": [
        {
          "indexed": false,
          "internalType": "address",
          "name": "account",
          "type": "address"
        }
      ],
      "name": "Paused",
      "type": "event"
    },
    {
      "anonymous": false,
      "inputs": [
        {
          "indexed": true,
          "internalType": "address",
          "name": "token",
          "type": "address"
        },
        {
          "indexed": false,
          "internalType": "bool",
          "name": "supported",
          "type": "bool"
        }
      ],
      "name": "PaymentTokenUpdated",
      "type": "event"
    },
    {
      "anonymous": false,
      "inputs": [
        {
          "indexed": false,
          "internalType": "address",
          "name": "account",
          "type": "address"
        }
      ],
      "name": "Unpaused",
      "type": "event"
    },
    {
      "inputs": [
        {
          "internalType": "uint256",
          "name": "",
          "type": "uint256"
        }
      ],
      "name": "activeListings",
      "outputs": [
        {
          "internalType": "bytes32",
          "name": "",
          "type": "bytes32"
        }
      ],
      "stateMutability": "view",
      "type": "function"
    },
    {
      "inputs": [
        {
          "internalType": "bytes32",
          "name": "listingId",
          "type": "bytes32"
        }
      ],
      "name": "buyItem",
      "outputs": [],
      "stateMutability": "payable",
      "type": "function"
    },
    {
      "inputs": [
        {
          "internalType": "bytes32",
          "name": "listingId",
          "type": "bytes32"
        }
      ],
      "name": "cancelListing",
      "outputs": [],
      "stateMutability": "nonpayable",
      "type": "function"
    },
    {
      "inputs": [
        {
          "internalType": "bytes32",
          "name": "listingId",
          "type": "bytes32"
        }
      ],
      "name": "emergencyCancelListing",
      "outputs": [],
      "stateMutability": "nonpayable",
      "type": "function"
    },
    {
      "inputs": [],
      "name": "feeManager",
      "outputs": [
        {
          "internalType": "contract MarketplaceFeeManager",
          "name": "",
          "type": "address"
        }
      ],
      "stateMutability": "view",
      "type": "function"
    },
    {
      "inputs": [
        {
          "internalType": "uint256",
          "name": "offset",
          "type": "uint256"
        },
        {
          "internalType": "uint256",
          "name": "limit",
          "type": "uint256"
        }
      ],
      "name": "getActiveListings",
      "outputs": [
        {
          "internalType": "bytes32[]",
          "name": "listingIds",
          "type": "bytes32[]"
        },
        {
          "internalType": "uint256",
          "name": "total",
          "type": "uint256"
        }
      ],
      "stateMutability": "view",
      "type": "function"
    },
    {
      "inputs": [
        {
          "internalType": "bytes32",
          "name": "listingId",
          "type": "bytes32"
        }
      ],
      "name": "getListing",
      "outputs": [
        {
          "components": [
            {
              "internalType": "address",
              "name": "seller",
              "type": "address"
            },
            {
              "internalType": "address",
              "name": "nftContract",
              "type": "address"
            },
            {
              "internalType": "uint256",
              "name": "tokenId",
              "type": "uint256"
            },
            {
              "internalType": "uint256",
              "name": "price",
              "type": "uint256"
            },
            {
              "internalType": "address",
              "name": "paymentToken",
              "type": "address"
            },
            {
              "internalType": "uint256",
              "name": "createdAt",
              "type": "uint256"
            },
            {
              "internalType": "bool",
              "name": "isActive",
              "type": "bool"
            }
          ],
          "internalType": "struct Marketplace.Listing",
          "name": "",
          "type": "tuple"
        }
      ],
      "stateMutability": "view",
      "type": "function"
    },
    {
      "inputs": [
        {
          "internalType": "address",
          "name": "seller",
          "type": "address"
        }
      ],
      "name": "getSellerListings",
      "outputs": [
        {
          "internalType": "bytes32[]",
          "name": "",
          "type": "bytes32[]"
        }
      ],
      "stateMutability": "view",
      "type": "function"
    },
    {
      "inputs": [
        {
          "internalType": "bytes32",
          "name": "",
          "type": "bytes32"
        }
      ],
      "name": "isActiveListing",
      "outputs": [
        {
          "internalType": "bool",
          "name": "",
          "type": "bool"
        }
      ],
      "stateMutability": "view",
      "type": "function"
    },
    {
      "inputs": [
        {
          "internalType": "address",
          "name": "nftContract",
          "type": "address"
        },
        {
          "internalType": "uint256",
          "name": "tokenId",
          "type": "uint256"
        },
        {
          "internalType": "uint256",
          "name": "price",
          "type": "uint256"
        },
        {
          "internalType": "address",
          "name": "paymentToken",
          "type": "address"
        }
      ],
      "name": "listItem",
      "outputs": [
        {
          "internalType": "bytes32",
          "name": "",
          "type": "bytes32"
        }
      ],
      "stateMutability": "nonpayable",
      "type": "function"
    },
    {
      "inputs": [
        {
          "internalType": "bytes32",
          "name": "",
          "type": "bytes32"
        }
      ],
      "name": "listingToIndex",
      "outputs": [
        {
          "internalType": "uint256",
          "name": "",
          "type": "uint256"
        }
      ],
      "stateMutability": "view",
      "type": "function"
    },
    {
      "inputs": [
        {
          "internalType": "bytes32",
          "name": "",
          "type": "bytes32"
        }
      ],
      "name": "listings",
      "outputs": [
        {
          "internalType": "address",
          "name": "seller",
          "type": "address"
        },
        {
          "internalType": "address",
          "name": "nftContract",
          "type": "address"
        },
        {
          "internalType": "uint256",
          "name": "tokenId",
          "type": "uint256"
        },
        {
          "internalType": "uint256",
          "name": "price",
          "type": "uint256"
        },
        {
          "internalType": "address",
          "name": "paymentToken",
          "type": "address"
        },
        {
          "internalType": "uint256",
          "name": "createdAt",
          "type": "uint256"
        },
        {
          "internalType": "bool",
          "name": "isActive",
          "type": "bool"
        }
      ],
      "stateMutability": "view",
      "type": "function"
    },
    {
      "inputs": [],
      "name": "minimumListingPrice",
      "outputs": [
        {
          "internalType": "uint256",
          "name": "",
          "type": "uint256"
        }
      ],
      "stateMutability": "view",
      "type": "function"
    },
    {
      "inputs": [
        {
          "internalType": "address",
          "name": "",
          "type": "address"
        },
        {
          "internalType": "uint256",
          "name": "",
          "type": "uint256"
        }
      ],
      "name": "nftToListing",
      "outputs": [
        {
          "internalType": "bytes32",
          "name": "",
          "type": "bytes32"
        }
      ],
      "stateMutability": "view",
      "type": "function"
    },
    {
      "inputs": [],
      "name": "owner",
      "outputs": [
        {
          "internalType": "address",
          "name": "",
          "type": "address"
        }
      ],
      "stateMutability": "view",
      "type": "function"
    },
    {
      "inputs": [],
      "name": "pause",
      "outputs": [],
      "stateMutability": "nonpayable",
      "type": "function"
    },
    {
      "inputs": [],
      "name": "paused",
      "outputs": [
        {
          "internalType": "bool",
          "name": "",
          "type": "bool"
        }
      ],
      "stateMutability": "view",
      "type": "function"
    },
    {
      "inputs": [],
      "name": "renounceOwnership",
      "outputs": [],
      "stateMutability": "nonpayable",
      "type": "function"
    },
    {
      "inputs": [
        {
          "internalType": "address",
          "name": "",
          "type": "address"
        },
        {
          "internalType": "uint256",
          "name": "",
          "type": "uint256"
        }
      ],
      "name": "sellerListings",
      "outputs": [
        {
          "internalType": "bytes32",
          "name": "",
          "type": "bytes32"
        }
      ],
      "stateMutability": "view",
      "type": "function"
    },
    {
      "inputs": [
        {
          "internalType": "address",
          "name": "",
          "type": "address"
        }
      ],
      "name": "supportedTokens",
      "outputs": [
        {
          "internalType": "bool",
          "name": "",
          "type": "bool"
        }
      ],
      "stateMutability": "view",
      "type": "function"
    },
    {
      "inputs": [
        {
          "internalType": "address",
          "name": "newOwner",
          "type": "address"
        }
      ],
      "name": "transferOwnership",
      "outputs": [],
      "stateMutability": "nonpayable",
      "type": "function"
    },
    {
      "inputs": [],
      "name": "unpause",
      "outputs": [],
      "stateMutability": "nonpayable",
      "type": "function"
    },
    {
      "inputs": [
        {
          "internalType": "bytes32",
          "name": "listingId",
          "type": "bytes32"
        },
        {
          "internalType": "uint256",
          "name": "newPrice",
          "type": "uint256"
        }
      ],
      "name": "updateListingPrice",
      "outputs": [],
      "stateMutability": "nonpayable",
      "type": "function"
    },
    {
      "inputs": [
        {
          "internalType": "uint256",
          "name": "newPrice",
          "type": "uint256"
        }
      ],
      "name": "updateMinimumListingPrice",
      "outputs": [],
      "stateMutability": "nonpayable",
      "type": "function"
    },
    {
      "inputs": [
        {
          "internalType": "address",
          "name": "token",
          "type": "address"
        },
        {
          "internalType": "bool",
          "name": "supported",
          "type": "bool"
        }
      ],
      "name": "updatePaymentToken",
      "outputs": [],
      "stateMutability": "nonpayable",
      "type": "function"
    },
    {
      "inputs": [],
      "name": "version",
      "outputs": [
        {
          "internalType": "string",
          "name": "",
          "type": "string"
        }
      ],
      "stateMutability": "pure",
      "type": "function"
    },
    {
      "stateMutability": "payable",
      "type": "receive"
    }
  ],
  "bytecode": "0x60a060405234801561001057600080fd5b5060405161212938038061212983398101604081905261002f91610190565b826001600160a01b03811661005e57604051631e4fbdf760e01b81526000600482015260240160405180910390fd5b61006781610124565b50600180556001600160a01b0382166100935760405163c4ef6d5960e01b815260040160405180910390fd5b6001600160a01b038216608052600a819055600080805260096020527fec8156718a8372b1db44bb411437d0870f3e3790d4a08526d024ce1b0b668f6b805460ff191660011790556040517f5e8256d798dd08f457c99b0672076b6488ab87dec9f8136232fed987cdc2ffd991610114918490918252602082015260400190565b60405180910390a15050506101cc565b600080546001600160a01b038381166001600160a01b0319831681178455604051919092169283917f8be0079c531659141344cd1fd0a4f28419497f9722a3daafe3b4186f6b6457e09190a35050565b80516001600160a01b038116811461018b57600080fd5b919050565b6000806000606084860312156101a557600080fd5b6101ae84610174565b92506101bc60208501610174565b9150604084015190509250925092565b608051611f2d6101fc60003960008181610663015281816112930152818161181b01526119a70152611f2d6000f3fe6080604052600436106101855760003560e01c806361cf4863116100d1578063ba847b991161008a578063d0fb020311610064578063d0fb020314610651578063d722823a14610685578063f169bf07146106b5578063f2fde38b146106c857600080fd5b8063ba847b9914610544578063c128b23114610571578063c18b8db41461059f57600080fd5b806361cf48631461047857806368c4ac2614610498578063715018a6146104c85780638456cb59146104dd5780638da5cb5b146104f25780639299e5521461052457600080fd5b806348c2d2c41161013e5780635930a88c116101185780635930a88c146103cf5780635c8ae64a146103ef5780635c975abb146104275780635f42da091461044b57600080fd5b806348c2d2c4146103655780634d96a5981461037b57806354fd4d501461039b57600080fd5b8063054564f0146101915780630989f26c146101c4578063175c0d16146101e657806324dad05c146103105780633e93d0cd146103305780633f4ba83a1461035057600080fd5b3661018c57005b600080fd5b34801561019d57600080fd5b506101b16101ac366004611ba3565b6106e8565b6040519081526020015b60405180910390f35b3480156101d057600080fd5b506101e46101df366004611bcf565b610719565b005b3480156101f257600080fd5b506102ad610201366004611bcf565b6040805160e081018252600080825260208201819052918101829052606081018290526080810182905260a0810182905260c081019190915250600090815260036020818152604092839020835160e08101855281546001600160a01b03908116825260018301548116938201939093526002820154948101949094529182015460608401526004820154166080830152600581015460a08301526006015460ff16151560c082015290565b6040516101bb919081516001600160a01b03908116825260208084015182169083015260408084015190830152606080840151908301526080808401519091169082015260a0828101519082015260c09182015115159181019190915260e00190565b34801561031c57600080fd5b506101e461032b366004611bcf565b6107b9565b34801561033c57600080fd5b506101e461034b366004611be8565b610806565b34801561035c57600080fd5b506101e46108fd565b34801561037157600080fd5b506101b1600a5481565b34801561038757600080fd5b506101e4610396366004611c18565b61090f565b3480156103a757600080fd5b5060408051808201825260058152640312e302e360dc1b602082015290516101bb9190611c51565b3480156103db57600080fd5b506101b16103ea366004611c9f565b610976565b3480156103fb57600080fd5b506101b161040a366004611ba3565b600560209081526000928352604080842090915290825290205481565b34801561043357600080fd5b5060025460ff165b60405190151581526020016101bb565b34801561045757600080fd5b5061046b610466366004611ce9565b610ee3565b6040516101bb9190611d49565b34801561048457600080fd5b506101b1610493366004611bcf565b610f4f565b3480156104a457600080fd5b5061043b6104b3366004611ce9565b60096020526000908152604090205460ff1681565b3480156104d457600080fd5b506101e4610f70565b3480156104e957600080fd5b506101e4610f82565b3480156104fe57600080fd5b506000546001600160a01b03165b6040516001600160a01b0390911681526020016101bb565b34801561053057600080fd5b506101e461053f366004611bcf565b610f92565b34801561055057600080fd5b506101b161055f366004611bcf565b60076020526000908152604090205481565b34801561057d57600080fd5b5061059161058c366004611be8565b611098565b6040516101bb929190611d5c565b3480156105ab57600080fd5b5061060a6105ba366004611bcf565b600360208190526000918252604090912080546001820154600283015493830154600484015460058501546006909501546001600160a01b03948516969385169593949293919092169160ff1687565b604080516001600160a01b03988916815296881660208801528601949094526060850192909252909316608083015260a082019290925290151560c082015260e0016101bb565b34801561065d57600080fd5b5061050c7f000000000000000000000000000000000000000000000000000000000000000081565b34801561069157600080fd5b5061043b6106a0366004611bcf565b60086020526000908152604090205460ff1681565b6101e46106c3366004611bcf565b611184565b3480156106d457600080fd5b506101e46106e3366004611ce9565b611550565b6004602052816000526040600020818154811061070457600080fd5b90600052602060002001600091509150505481565b610721611590565b6000818152600360205260409020600681015460ff16156107b5576001810154600282015461075d9184916001600160a01b03909116906115bd565b805460018201546002830154604080516001600160a01b0393841681526020810192909252919092169184917f6bff96717f9ad0eb5664143e8fbdab0726c97a59381914a55a56cd1b2daba2ee910160405180910390a35b5050565b6107c1611590565b600a80549082905560408051828152602081018490527f5e8256d798dd08f457c99b0672076b6488ab87dec9f8136232fed987cdc2ffd9910160405180910390a15050565b61080e6116cb565b6000828152600360205260409020600681015460ff16610841576040516366cb03e960e01b815260040160405180910390fd5b80546001600160a01b0316331461086b5760405163263866f560e21b815260040160405180910390fd5b600a5482101561088e5760405163def5fc2b60e01b815260040160405180910390fd5b6003810182905560018101546002820154600483015460408051928352602083018690526001600160a01b039182168382015251921691339186917fe6550c1d5292bd4354d980e25eec010dcdd0032972b7a6d3c291f0693b04cb8d9181900360600190a4506107b560018055565b610905611590565b61090d6116f5565b565b610917611590565b6001600160a01b038216600081815260096020908152604091829020805460ff191685151590811790915591519182527f19c6e2fbd27c3204efb106f0081d2d7ffaf44da224ca04fbc0d8a262ba40f555910160405180910390a25050565b60006109806116cb565b610988611747565b600a548310156109ab5760405163def5fc2b60e01b815260040160405180910390fd5b6001600160a01b03821660009081526009602052604090205460ff166109e45760405163a29cc06960e01b815260040160405180910390fd5b6040516331a9108f60e11b815260048101859052859033906001600160a01b03831690636352211e90602401602060405180830381865afa158015610a2d573d6000803e3d6000fd5b505050506040513d601f19601f82011682018060405250810190610a519190611d7e565b6001600160a01b031614610a7857604051631022318760e21b815260040160405180910390fd5b60405163e985e9c560e01b81523360048201523060248201526001600160a01b0382169063e985e9c590604401602060405180830381865afa158015610ac2573d6000803e3d6000fd5b505050506040513d601f19601f82011682018060405250810190610ae69190611d9b565b158015610b65575060405163020604bf60e21b81526004810186905230906001600160a01b0383169063081812fc90602401602060405180830381865afa158015610b35573d6000803e3d6000fd5b505050506040513d601f19601f82011682018060405250810190610b599190611d7e565b6001600160a01b031614155b15610b835760405163876dcc9f60e01b815260040160405180910390fd5b6001600160a01b03861660009081526005602090815260408083208884529091529020548015801590610bc4575060008181526008602052604090205460ff165b15610be257604051635d2cdd2160e11b815260040160405180910390fd5b6040516bffffffffffffffffffffffff19606089811b821660208401526034830189905233901b16605482015242606882015243608882015260009060a8016040516020818303038152906040528051906020012090506040518060e00160405280336001600160a01b03168152602001896001600160a01b03168152602001888152602001878152602001866001600160a01b03168152602001428152602001600115158152506003600083815260200190815260200160002060008201518160000160006101000a8154816001600160a01b0302191690836001600160a01b0316021790555060208201518160010160006101000a8154816001600160a01b0302191690836001600160a01b03160217905550604082015181600201556060820151816003015560808201518160040160006101000a8154816001600160a01b0302191690836001600160a01b0316021790555060a0820151816005015560c08201518160060160006101000a81548160ff02191690831515021790555090505060046000336001600160a01b03166001600160a01b0316815260200190815260200160002081908060018154018082558091505060019003906000526020600020016000909190919091505580600560008a6001600160a01b03166001600160a01b0316815260200190815260200160002060008981526020019081526020016000208190555060006006805490509050600682908060018154018082558091505060019003906000526020600020016000909190919091505580600760008481526020019081526020016000208190555060016008600084815260200190815260200160002060006101000a81548160ff021916908315150217905550886001600160a01b0316336001600160a01b0316837fe6550c1d5292bd4354d980e25eec010dcdd0032972b7a6d3c291f0693b04cb8d8b8b8b604051610ec59392919092835260208301919091526001600160a01b0316604082015260600190565b60405180910390a45092505050610edb60018055565b949350505050565b6001600160a01b038116600090815260046020908152604091829020805483518184028101840190945280845260609392830182828015610f4357602002820191906000526020600020905b815481526020019060010190808311610f2f575b50505050509050919050565b60068181548110610f5f57600080fd5b600091825260209091200154905081565b610f78611590565b61090d600061176b565b610f8a611590565b61090d6117bb565b610f9a6116cb565b6000818152600360205260409020600681015460ff16610fcd576040516366cb03e960e01b815260040160405180910390fd5b80546001600160a01b03163314801590611001575033610ff56000546001600160a01b031690565b6001600160a01b031614155b1561101f5760405163263866f560e21b815260040160405180910390fd5b600181015460028201546001600160a01b03909116906110408483836115bd565b8254604080516001600160a01b03858116825260208201859052825193169287927f6bff96717f9ad0eb5664143e8fbdab0726c97a59381914a55a56cd1b2daba2ee928290030190a350505061109560018055565b50565b6006546060908084106110bb57604080516000815260208101909152915061117d565b60006110c78486611de4565b9050818111156110d45750805b6110de8582611dfd565b67ffffffffffffffff8111156110f6576110f6611db8565b60405190808252806020026020018201604052801561111f578160200160208202803683370190505b509250845b8181101561117a576006818154811061113f5761113f611e10565b90600052602060002001548487836111579190611dfd565b8151811061116757611167611e10565b6020908102919091010152600101611124565b50505b9250929050565b61118c6116cb565b611194611747565b6000818152600360205260409020600681015460ff166111c7576040516366cb03e960e01b815260040160405180910390fd5b80546001820154600283015460038401546004808601546040516331a9108f60e11b81529182018490526001600160a01b0395861695948516941690849086908290636352211e90602401602060405180830381865afa15801561122f573d6000803e3d6000fd5b505050506040513d601f19601f820116820180604052508101906112539190611d7e565b6001600160a01b03161461127a57604051631022318760e21b815260040160405180910390fd5b6040516338b6571160e11b8152600481018490526000907f00000000000000000000000000000000000000000000000000000000000000006001600160a01b03169063716cae2290602401602060405180830381865afa1580156112e2573d6000803e3d6000fd5b505050506040513d601f19601f820116820180604052508101906113069190611e26565b9050600080876001600160a01b031663833b7b78886040518263ffffffff1660e01b815260040161133991815260200190565b6040805180830381865afa925050508015611371575060408051601f3d908101601f1916820190925261136e91810190611e3f565b60015b156113bd578a6001600160a01b0316826001600160a01b0316141580156113985750600081115b156113ba576127106113aa828a611e6d565b6113b49190611e84565b93508192505b50505b6000826113ca8589611dfd565b6113d49190611dfd565b90506001600160a01b03861661143357863410156114055760405163cd1c886760e01b815260040160405180910390fd5b6114128a838387876117f8565b8634111561142e5761142e6114278834611dfd565b33906118eb565b611460565b34156114525760405163cd1c886760e01b815260040160405180910390fd5b611460868b84848888611981565b604051632142170760e11b81526001600160a01b038b81166004830152336024830152604482018a90528616906342842e0e90606401600060405180830381600087803b1580156114b057600080fd5b505af11580156114c4573d6000803e3d6000fd5b505050506114d38c8a8a6115bd565b604080516001600160a01b038b81168252602082018b905291810189905287821660608201526080810186905260a08101859052908b169033908e907fee3ca82b097863e655ef11b61319c9cadfd3340eed2b81e97e87b968319aafde9060c00160405180910390a4505050505050505050505061109560018055565b611558611590565b6001600160a01b03811661158757604051631e4fbdf760e01b8152600060048201526024015b60405180910390fd5b6110958161176b565b6000546001600160a01b0316331461090d5760405163118cdaa760e01b815233600482015260240161157e565b6000838152600760205260408120546006549091906115de90600190611dfd565b6000868152600360209081526040808320600601805460ff1990811690915560088352818420805490911690556001600160a01b03881683526005825280832087845290915281205590508181146116865760006006828154811061164557611645611e10565b90600052602060002001549050806006848154811061166657611666611e10565b600091825260208083209091019290925591825260079052604090208290555b600680548061169757611697611ea6565b6001900381819060005260206000200160009055905560076000868152602001908152602001600020600090555050505050565b6002600154036116ee57604051633ee5aeb560e01b815260040160405180910390fd5b6002600155565b6116fd611a7d565b6002805460ff191690557f5db9ee0a495bf2e6ff9c91a7834c1ba4fdd244a5e8aa4e537bd38aeae4b073aa335b6040516001600160a01b03909116815260200160405180910390a1565b60025460ff161561090d5760405163d93c066560e01b815260040160405180910390fd5b600080546001600160a01b038381166001600160a01b0319831681178455604051919092169283917f8be0079c531659141344cd1fd0a4f28419497f9722a3daafe3b4186f6b6457e09190a35050565b6117c3611747565b6002805460ff191660011790557f62e78cea01bee320cd4e420270b5ea74000d11b0c9f74754ebdbfc544b05a25861172a3390565b8215611811576118116001600160a01b038616846118eb565b81156118b45760007f00000000000000000000000000000000000000000000000000000000000000006001600160a01b03166202eab76040518163ffffffff1660e01b8152600401606060405180830381865afa158015611876573d6000803e3d6000fd5b505050506040513d601f19601f8201168201806040525081019061189a9190611ebc565b5091506118b290506001600160a01b038216846118eb565b505b6000811180156118cc57506001600160a01b03841615155b156118e4576118e46001600160a01b038516826118eb565b5050505050565b804710156119155760405163cf47918160e01b81524760048201526024810182905260440161157e565b600080836001600160a01b03168360405160006040518083038185875af1925050503d8060008114611963576040519150601f19603f3d011682016040523d82523d6000602084013e611968565b606091505b50915091508161197b5761197b81611aa0565b50505050565b85831561199d5761199d6001600160a01b038216338887611ac8565b8215611a425760007f00000000000000000000000000000000000000000000000000000000000000006001600160a01b03166202eab76040518163ffffffff1660e01b8152600401606060405180830381865afa158015611a02573d6000803e3d6000fd5b505050506040513d601f19601f82011682018060405250810190611a269190611ebc565b509150611a4090506001600160a01b038316338387611ac8565b505b600082118015611a5a57506001600160a01b03851615155b15611a7457611a746001600160a01b038216338785611ac8565b50505050505050565b60025460ff1661090d57604051638dfc202b60e01b815260040160405180910390fd5b805115611aaf57805160208201fd5b60405163d6bda27560e01b815260040160405180910390fd5b604080516001600160a01b038581166024830152841660448201526064808201849052825180830390910181526084909101909152602080820180516001600160e01b03166323b872dd60e01b178152825161197b938893909260009283929183919082885af180611b40576040513d6000823e3d81fd5b50506000513d91508115611b58578060011415611b65565b6001600160a01b0384163b155b1561197b57604051635274afe760e01b81526001600160a01b038516600482015260240161157e565b6001600160a01b038116811461109557600080fd5b60008060408385031215611bb657600080fd5b8235611bc181611b8e565b946020939093013593505050565b600060208284031215611be157600080fd5b5035919050565b60008060408385031215611bfb57600080fd5b50508035926020909101359150565b801515811461109557600080fd5b60008060408385031215611c2b57600080fd5b8235611c3681611b8e565b91506020830135611c4681611c0a565b809150509250929050565b602081526000825180602084015260005b81811015611c7f5760208186018101516040868401015201611c62565b506000604082850101526040601f19601f83011684010191505092915050565b60008060008060808587031215611cb557600080fd5b8435611cc081611b8e565b935060208501359250604085013591506060850135611cde81611b8e565b939692955090935050565b600060208284031215611cfb57600080fd5b8135611d0681611b8e565b9392505050565b600081518084526020840193506020830160005b82811015611d3f578151865260209586019590910190600101611d21565b5093949350505050565b602081526000611d066020830184611d0d565b604081526000611d6f6040830185611d0d565b90508260208301529392505050565b600060208284031215611d9057600080fd5b8151611d0681611b8e565b600060208284031215611dad57600080fd5b8151611d0681611c0a565b634e487b7160e01b600052604160045260246000fd5b634e487b7160e01b600052601160045260246000fd5b80820180821115611df757611df7611dce565b92915050565b81810381811115611df757611df7611dce565b634e487b7160e01b600052603260045260246000fd5b600060208284031215611e3857600080fd5b5051919050565b60008060408385031215611e5257600080fd5b8251611e5d81611b8e565b6020939093015192949293505050565b8082028115828204841417611df757611df7611dce565b600082611ea157634e487b7160e01b600052601260045260246000fd5b500490565b634e487b7160e01b600052603160045260246000fd5b600080600060608486031215611ed157600080fd5b83516020850151909350611ee481611b8e565b604094909401519295939450919291505056fea2646970667358221220f657922b83e28b8b14f95cf49451bae6b19a2592acc61b3b411406f0f9d114b664736f6c634300081c0033",
  "linkReferences": {},
  "deployedLinkReferences": {},
  "immutableReferences": {
    "8266": [
      {
        "length": 32,
        "start": 1635
      },
      {
        "length": 32,
        "start": 4755
      },
      {
        "length": 32,
        "start": 6171
      },
      {
        "length": 32,
        "start": 6567
      }
    ]
  },
  "inputSourceName": "project/contracts/Marketplace.sol",
  "buildInfoId": "solc-0_8_28-ba739ddfb222946726f00eb01ccbe7200cb0b5cd"
}