{
  "_format": "hh3-artifact-1",
  "contractName": "MarketplaceFeeManager",
  "sourceName": "contracts/MarketplaceFeeManager.sol",
  "abi": [
    {
      "inputs": [
        {
          "internalType": "address",
          "name": "initialOwner",
          "type": "address"
        },
        {
          "internalType": "uint256",
          "name": "initialFeeBps",
          "type": "uint256"
        },
        {
          "internalType": "address",
          "name": "initialFeeRecipient",
          "type": "address"
        },
        {
          "internalType": "uint256",
          "name": "initialMinimumFee",
          "type": "uint256"
        }
      ],
      "stateMutability": "nonpayable",
      "type": "constructor"
    },
    {
      "inputs": [],
      "name": "EnforcedPause",
      "type": "error"
    },
    {
      "inputs": [],
      "name": "ExpectedPause",
      "type": "error"
    },
    {
      "inputs": [],
      "name": "InvalidFeePercentage",
      "type": "error"
    },
    {
      "inputs": [],
      "name": "InvalidFeeRecipient",
      "type": "error"
    },
    {
      "inputs": [],
      "name": "InvalidMinimumFee",
      "type": "error"
    },
    {
      "inputs": [
        {
          "internalType": "address",
          "name": "owner",
          "type": "address"
        }
      ],
      "name": "OwnableInvalidOwner",
      "type": "error"
    },
    {
      "inputs": [
        {
          "internalType": "address",
          "name": "account",
          "type": "address"
        }
      ],
      "name": "OwnableUnauthorizedAccount",
      "type": "error"
    },
    {
      "inputs": [],
      "name": "ReentrancyGuardReentrantCall",
      "type": "error"
    },
    {
      "inputs": [],
      "name": "UnauthorizedAccess",
      "type": "error"
    },
    {
      "anonymous": false,
      "inputs": [
        {
          "indexed": false,
          "internalType": "address",
          "name": "oldRecipient",
          "type": "address"
        },
        {
          "indexed": false,
          "internalType": "address",
          "name": "newRecipient",
          "type": "address"
        }
      ],
      "name": "FeeRecipientUpdated",
      "type": "event"
    },
    {
      "anonymous": false,
      "inputs": [
        {
          "indexed": false,
          "internalType": "uint256",
          "name": "oldFeeBps",
          "type": "uint256"
        },
        {
          "indexed": false,
          "internalType": "uint256",
          "name": "newFeeBps",
          "type": "uint256"
        }
      ],
      "name": "FeeUpdated",
      "type": "event"
    },
    {
      "anonymous": false,
      "inputs": [
        {
          "indexed": false,
          "internalType": "address",
          "name": "recipient",
          "type": "address"
        },
        {
          "indexed": false,
          "internalType": "uint256",
          "name": "amount",
          "type": "uint256"
        }
      ],
      "name": "FeesWithdrawn",
      "type": "event"
    },
    {
      "anonymous": false,
      "inputs": [
        {
          "indexed": false,
          "internalType": "uint256",
          "name": "oldMinimumFee",
          "type": "uint256"
        },
        {
          "indexed": false,
          "internalType": "uint256",
          "name": "newMinimumFee",
          "type": "uint256"
        }
      ],
      "name": "MinimumFeeUpdated",
      "type": "event"
    },
    {
      "anonymous": false,
      "inputs": [
        {
          "indexed": true,
          "internalType": "address",
          "name": "previousOwner",
          "type": "address"
        },
        {
          "indexed": true,
          "internalType": "address",
          "name": "newOwner",
          "type": "address"
        }
      ],
      "name": "OwnershipTransferred",
      "type": "event"
    },
    {
      "anonymous": false,
      "inputs": [
        {
          "indexed": false,
          "internalType": "address",
          "name": "account",
          "type": "address"
        }
      ],
      "name": "Paused",
      "type": "event"
    },
    {
      "anonymous": false,
      "inputs": [
        {
          "indexed": false,
          "internalType": "address",
          "name": "account",
          "type": "address"
        }
      ],
      "name": "Unpaused",
      "type": "event"
    },
    {
      "inputs": [],
      "name": "MAX_FEE_BPS",
      "outputs": [
        {
          "internalType": "uint256",
          "name": "",
          "type": "uint256"
        }
      ],
      "stateMutability": "view",
      "type": "function"
    },
    {
      "inputs": [
        {
          "internalType": "uint256",
          "name": "salePrice",
          "type": "uint256"
        }
      ],
      "name": "calculateFeeBreakdown",
      "outputs": [
        {
          "internalType": "uint256",
          "name": "marketFee",
          "type": "uint256"
        },
        {
          "internalType": "uint256",
          "name": "sellerAmount",
          "type": "uint256"
        }
      ],
      "stateMutability": "view",
      "type": "function"
    },
    {
      "inputs": [
        {
          "internalType": "uint256",
          "name": "salePrice",
          "type": "uint256"
        }
      ],
      "name": "calculateMarketFee",
      "outputs": [
        {
          "internalType": "uint256",
          "name": "",
          "type": "uint256"
        }
      ],
      "stateMutability": "view",
      "type": "function"
    },
    {
      "inputs": [
        {
          "internalType": "uint256",
          "name": "amount",
          "type": "uint256"
        }
      ],
      "name": "emergencyWithdraw",
      "outputs": [],
      "stateMutability": "nonpayable",
      "type": "function"
    },
    {
      "inputs": [],
      "name": "feeRecipient",
      "outputs": [
        {
          "internalType": "address",
          "name": "",
          "type": "address"
        }
      ],
      "stateMutability": "view",
      "type": "function"
    },
    {
      "inputs": [],
      "name": "getFeeInfo",
      "outputs": [
        {
          "internalType": "uint256",
          "name": "feeBps",
          "type": "uint256"
        },
        {
          "internalType": "address",
          "name": "recipient",
          "type": "address"
        },
        {
          "internalType": "uint256",
          "name": "minFee",
          "type": "uint256"
        }
      ],
      "stateMutability": "view",
      "type": "function"
    },
    {
      "inputs": [],
      "name": "marketFeeBps",
      "outputs": [
        {
          "internalType": "uint256",
          "name": "",
          "type": "uint256"
        }
      ],
      "stateMutability": "view",
      "type": "function"
    },
    {
      "inputs": [],
      "name": "minimumFee",
      "outputs": [
        {
          "internalType": "uint256",
          "name": "",
          "type": "uint256"
        }
      ],
      "stateMutability": "view",
      "type": "function"
    },
    {
      "inputs": [],
      "name": "owner",
      "outputs": [
        {
          "internalType": "address",
          "name": "",
          "type": "address"
        }
      ],
      "stateMutability": "view",
      "type": "function"
    },
    {
      "inputs": [],
      "name": "pause",
      "outputs": [],
      "stateMutability": "nonpayable",
      "type": "function"
    },
    {
      "inputs": [],
      "name": "paused",
      "outputs": [
        {
          "internalType": "bool",
          "name": "",
          "type": "bool"
        }
      ],
      "stateMutability": "view",
      "type": "function"
    },
    {
      "inputs": [],
      "name": "renounceOwnership",
      "outputs": [],
      "stateMutability": "nonpayable",
      "type": "function"
    },
    {
      "inputs": [
        {
          "internalType": "address",
          "name": "newOwner",
          "type": "address"
        }
      ],
      "name": "transferOwnership",
      "outputs": [],
      "stateMutability": "nonpayable",
      "type": "function"
    },
    {
      "inputs": [],
      "name": "unpause",
      "outputs": [],
      "stateMutability": "nonpayable",
      "type": "function"
    },
    {
      "inputs": [
        {
          "internalType": "address",
          "name": "newFeeRecipient",
          "type": "address"
        }
      ],
      "name": "updateFeeRecipient",
      "outputs": [],
      "stateMutability": "nonpayable",
      "type": "function"
    },
    {
      "inputs": [
        {
          "internalType": "uint256",
          "name": "newFeeBps",
          "type": "uint256"
        }
      ],
      "name": "updateMarketFee",
      "outputs": [],
      "stateMutability": "nonpayable",
      "type": "function"
    },
    {
      "inputs": [
        {
          "internalType": "uint256",
          "name": "newMinimumFee",
          "type": "uint256"
        }
      ],
      "name": "updateMinimumFee",
      "outputs": [],
      "stateMutability": "nonpayable",
      "type": "function"
    },
    {
      "inputs": [],
      "name": "version",
      "outputs": [
        {
          "internalType": "string",
          "name": "",
          "type": "string"
        }
      ],
      "stateMutability": "pure",
      "type": "function"
    },
    {
      "stateMutability": "payable",
      "type": "receive"
    }
  ],
  "bytecode": "0x6080346101c457601f610a0238819003918201601f19168301916001600160401b038311848410176101c9578084926080946040528339810103126101c457610047816101df565b90602081015191606061005c604084016101df565b9201516001600160a01b039091169182156101ae57600080546001600160a01b031981168517825560405194916001600160a01b03909116907f8be0079c531659141344cd1fd0a4f28419497f9722a3daafe3b4186f6b6457e09080a3600180556103e8841161019d576001600160a01b031691821561018c57604080937f528d9479e9f9889a87a3c30c7f7ba537e5e59c4c85a37733b16e57c62df61302827faaebcf1bfa00580e41d966056b48521fa9f202645c86d4ddf28113e617c1b1d394887fcc2f49c6214278ae5862935eff953448e8e69118d10abfafaf63ea6aa35255cb996003558460018060a01b0319600454161760045587600555600082526020820152a1815190600082526020820152a1815190600082526020820152a160405161080e90816101f48239f35b630ed1b8b360e31b60005260046000fd5b63390edff560e11b60005260046000fd5b631e4fbdf760e01b600052600060045260246000fd5b600080fd5b634e487b7160e01b600052604160045260246000fd5b51906001600160a01b03821682036101c45756fe608080604052600436101561001d575b50361561001b57600080fd5b005b60003560e01c90816202eab71461077a575080631a7626e71461075c5780633f4ba83a146106f35780633f5c3e87146106d557806346904840146106ac5780634e421efa146106585780635312ea8e1461058257806354fd4d50146104dd5780635c975abb146104ba578063715018a614610461578063716cae22146104155780638456cb59146103a95780638da5cb5b146103805780639b48437914610311578063d55be8c6146102f4578063f160d3691461025b578063f2fde38b146101ce5763fd54b969146100ef573861000f565b346101c95760203660031901126101c9576004356040516338b6571160e11b8152816004820152602081602481305afa9081156101bd5760009161015e575b508082039182116101485760409182519182526020820152f35b634e487b7160e01b600052601160045260246000fd5b9060203d6020116101b6575b601f8101601f1916830167ffffffffffffffff8111848210176101a25760209184916040528101031261019f5750513861012e565b80fd5b634e487b7160e01b83526041600452602483fd5b503d61016a565b6040513d6000823e3d90fd5b600080fd5b346101c95760203660031901126101c9576004356001600160a01b038116908190036101c9576101fc6107af565b801561024557600080546001600160a01b03198116831782556001600160a01b0316907f8be0079c531659141344cd1fd0a4f28419497f9722a3daafe3b4186f6b6457e09080a3005b631e4fbdf760e01b600052600060045260246000fd5b346101c95760203660031901126101c9576004356001600160a01b038116908190036101c9576102896107af565b80156102e35760407faaebcf1bfa00580e41d966056b48521fa9f202645c86d4ddf28113e617c1b1d39160045490806bffffffffffffffffffffffff60a01b83161760045582519160018060a01b031682526020820152a1005b630ed1b8b360e31b60005260046000fd5b346101c95760003660031901126101c95760206040516103e88152f35b346101c95760203660031901126101c95760043561032d6107af565b6103e8811161036f5760407f528d9479e9f9889a87a3c30c7f7ba537e5e59c4c85a37733b16e57c62df6130291600354908060035582519182526020820152a1005b63390edff560e11b60005260046000fd5b346101c95760003660031901126101c9576000546040516001600160a01b039091168152602090f35b346101c95760003660031901126101c9576103c26107af565b60025460ff81166104045760019060ff1916176002557f62e78cea01bee320cd4e420270b5ea74000d11b0c9f74754ebdbfc544b05a2586020604051338152a1005b63d93c066560e01b60005260046000fd5b346101c95760203660031901126101c957600354600435818102918115918304141715610148576127106020910460055480821160001461045a57505b604051908152f35b9050610452565b346101c95760003660031901126101c95761047a6107af565b600080546001600160a01b0319811682556001600160a01b03167f8be0079c531659141344cd1fd0a4f28419497f9722a3daafe3b4186f6b6457e08280a3005b346101c95760003660031901126101c957602060ff600254166040519015158152f35b346101c95760003660031901126101c9576040516040810181811067ffffffffffffffff82111761056c5760405260058152640312e302e360dc1b602082015260405190602082528181519182602083015260005b8381106105545750508160006040809484010152601f80199101168101030190f35b60208282018101516040878401015285935001610532565b634e487b7160e01b600052604160045260246000fd5b346101c95760203660031901126101c95760043561059e6107af565b6002600154146106475760026001554790806106415750805b808211610639575b50801580156105cf575b60018055005b6000808084819460018060a01b03835416908390610630575bf1156101bd5760407fc0819c13be868895eb93e40eaceb96de976442fa1d404e5c55f14bb65a8c489a9160018060a01b03600054169082519182526020820152a180806105c9565b506108fc6105e8565b9050816105bf565b906105b7565b633ee5aeb560e01b60005260046000fd5b346101c95760203660031901126101c9577fcc2f49c6214278ae5862935eff953448e8e69118d10abfafaf63ea6aa35255cb60406004356106976107af565b600554908060055582519182526020820152a1005b346101c95760003660031901126101c9576004546040516001600160a01b039091168152602090f35b346101c95760003660031901126101c9576020600354604051908152f35b346101c95760003660031901126101c95761070c6107af565b60025460ff81161561074b5760ff19166002557f5db9ee0a495bf2e6ff9c91a7834c1ba4fdd244a5e8aa4e537bd38aeae4b073aa6020604051338152a1005b638dfc202b60e01b60005260046000fd5b346101c95760003660031901126101c9576020600554604051908152f35b346101c95760003660031901126101c9576003546004546005549183526001600160a01b031660208301526040820152606090f35b6000546001600160a01b031633036107c357565b63118cdaa760e01b6000523360045260246000fdfea26469706673582212209f0f0af1b34ae10a2e6482934e26c70e4a4648537048d65ba55d4e512eb323da64736f6c634300081c0033",
  "linkReferences": {},
  "deployedLinkReferences": {},
  "immutableReferences": {},
  "inputSourceName": "project/contracts/MarketplaceFeeManager.sol",
  "buildInfoId": "solc-0_8_28-725d9d9ef6bd78299eec78b6c41905124cdbb5dd"
}