{
  "_format": "hh3-artifact-1",
  "contractName": "Marketplace",
  "sourceName": "contracts/Marketplace.sol",
  "abi": [
    {
      "inputs": [
        {
          "internalType": "address",
          "name": "initialOwner",
          "type": "address"
        },
        {
          "internalType": "address",
          "name": "feeManager_",
          "type": "address"
        },
        {
          "internalType": "uint256",
          "name": "minimumListingPrice_",
          "type": "uint256"
        }
      ],
      "stateMutability": "nonpayable",
      "type": "constructor"
    },
    {
      "inputs": [],
      "name": "EnforcedPause",
      "type": "error"
    },
    {
      "inputs": [],
      "name": "ExpectedPause",
      "type": "error"
    },
    {
      "inputs": [],
      "name": "FailedCall",
      "type": "error"
    },
    {
      "inputs": [
        {
          "internalType": "uint256",
          "name": "balance",
          "type": "uint256"
        },
        {
          "internalType": "uint256",
          "name": "needed",
          "type": "uint256"
        }
      ],
      "name": "InsufficientBalance",
      "type": "error"
    },
    {
      "inputs": [],
      "name": "InsufficientPayment",
      "type": "error"
    },
    {
      "inputs": [],
      "name": "InvalidFeeManager",
      "type": "error"
    },
    {
      "inputs": [],
      "name": "InvalidNFTContract",
      "type": "error"
    },
    {
      "inputs": [],
      "name": "InvalidPrice",
      "type": "error"
    },
    {
      "inputs": [],
      "name": "ListingAlreadyExists",
      "type": "error"
    },
    {
      "inputs": [],
      "name": "ListingNotActive",
      "type": "error"
    },
    {
      "inputs": [],
      "name": "ListingNotFound",
      "type": "error"
    },
    {
      "inputs": [],
      "name": "NFTNotApproved",
      "type": "error"
    },
    {
      "inputs": [],
      "name": "NotListingSeller",
      "type": "error"
    },
    {
      "inputs": [],
      "name": "NotNFTOwner",
      "type": "error"
    },
    {
      "inputs": [
        {
          "internalType": "address",
          "name": "owner",
          "type": "address"
        }
      ],
      "name": "OwnableInvalidOwner",
      "type": "error"
    },
    {
      "inputs": [
        {
          "internalType": "address",
          "name": "account",
          "type": "address"
        }
      ],
      "name": "OwnableUnauthorizedAccount",
      "type": "error"
    },
    {
      "inputs": [],
      "name": "PriceBelowMinimum",
      "type": "error"
    },
    {
      "inputs": [],
      "name": "ReentrancyGuardReentrantCall",
      "type": "error"
    },
    {
      "inputs": [
        {
          "internalType": "address",
          "name": "token",
          "type": "address"
        }
      ],
      "name": "SafeERC20FailedOperation",
      "type": "error"
    },
    {
      "inputs": [],
      "name": "TransferFailed",
      "type": "error"
    },
    {
      "inputs": [],
      "name": "UnsupportedPaymentToken",
      "type": "error"
    },
    {
      "anonymous": false,
      "inputs": [
        {
          "indexed": true,
          "internalType": "bytes32",
          "name": "listingId",
          "type": "bytes32"
        },
        {
          "indexed": true,
          "internalType": "address",
          "name": "seller",
          "type": "address"
        },
        {
          "indexed": true,
          "internalType": "address",
          "name": "nftContract",
          "type": "address"
        },
        {
          "indexed": false,
          "internalType": "uint256",
          "name": "tokenId",
          "type": "uint256"
        },
        {
          "indexed": false,
          "internalType": "uint256",
          "name": "price",
          "type": "uint256"
        },
        {
          "indexed": false,
          "internalType": "address",
          "name": "paymentToken",
          "type": "address"
        }
      ],
      "name": "ItemListed",
      "type": "event"
    },
    {
      "anonymous": false,
      "inputs": [
        {
          "indexed": true,
          "internalType": "bytes32",
          "name": "listingId",
          "type": "bytes32"
        },
        {
          "indexed": true,
          "internalType": "address",
          "name": "buyer",
          "type": "address"
        },
        {
          "indexed": true,
          "internalType": "address",
          "name": "seller",
          "type": "address"
        },
        {
          "indexed": false,
          "internalType": "address",
          "name": "nftContract",
          "type": "address"
        },
        {
          "indexed": false,
          "internalType": "uint256",
          "name": "tokenId",
          "type": "uint256"
        },
        {
          "indexed": false,
          "internalType": "uint256",
          "name": "price",
          "type": "uint256"
        },
        {
          "indexed": false,
          "internalType": "address",
          "name": "paymentToken",
          "type": "address"
        },
        {
          "indexed": false,
          "internalType": "uint256",
          "name": "marketFee",
          "type": "uint256"
        },
        {
          "indexed": false,
          "internalType": "uint256",
          "name": "royaltyFee",
          "type": "uint256"
        }
      ],
      "name": "ItemSold",
      "type": "event"
    },
    {
      "anonymous": false,
      "inputs": [
        {
          "indexed": true,
          "internalType": "bytes32",
          "name": "listingId",
          "type": "bytes32"
        },
        {
          "indexed": true,
          "internalType": "address",
          "name": "seller",
          "type": "address"
        },
        {
          "indexed": false,
          "internalType": "address",
          "name": "nftContract",
          "type": "address"
        },
        {
          "indexed": false,
          "internalType": "uint256",
          "name": "tokenId",
          "type": "uint256"
        }
      ],
      "name": "ListingCancelled",
      "type": "event"
    },
    {
      "anonymous": false,
      "inputs": [
        {
          "indexed": false,
          "internalType": "uint256",
          "name": "oldPrice",
          "type": "uint256"
        },
        {
          "indexed": false,
          "internalType": "uint256",
          "name": "newPrice",
          "type": "uint256"
        }
      ],
      "name": "MinimumListingPriceUpdated",
      "type": "event"
    },
    {
      "anonymous": false,
      "inputs": [
        {
          "indexed": true,
          "internalType": "address",
          "name": "previousOwner",
          "type": "address"
        },
        {
          "indexed": true,
          "internalType": "address",
          "name": "newOwner",
          "type": "address"
        }
      ],
      "name": "OwnershipTransferred",
      "type": "event"
    },
    {
      "anonymous": false,
      "inputs": [
        {
          "indexed": false,
          "internalType": "address",
          "name": "account",
          "type": "address"
        }
      ],
      "name": "Paused",
      "type": "event"
    },
    {
      "anonymous": false,
      "inputs": [
        {
          "indexed": true,
          "internalType": "address",
          "name": "token",
          "type": "address"
        },
        {
          "indexed": false,
          "internalType": "bool",
          "name": "supported",
          "type": "bool"
        }
      ],
      "name": "PaymentTokenUpdated",
      "type": "event"
    },
    {
      "anonymous": false,
      "inputs": [
        {
          "indexed": false,
          "internalType": "address",
          "name": "account",
          "type": "address"
        }
      ],
      "name": "Unpaused",
      "type": "event"
    },
    {
      "inputs": [
        {
          "internalType": "uint256",
          "name": "",
          "type": "uint256"
        }
      ],
      "name": "activeListings",
      "outputs": [
        {
          "internalType": "bytes32",
          "name": "",
          "type": "bytes32"
        }
      ],
      "stateMutability": "view",
      "type": "function"
    },
    {
      "inputs": [
        {
          "internalType": "bytes32",
          "name": "listingId",
          "type": "bytes32"
        }
      ],
      "name": "buyItem",
      "outputs": [],
      "stateMutability": "payable",
      "type": "function"
    },
    {
      "inputs": [
        {
          "internalType": "bytes32",
          "name": "listingId",
          "type": "bytes32"
        }
      ],
      "name": "cancelListing",
      "outputs": [],
      "stateMutability": "nonpayable",
      "type": "function"
    },
    {
      "inputs": [
        {
          "internalType": "bytes32",
          "name": "listingId",
          "type": "bytes32"
        }
      ],
      "name": "emergencyCancelListing",
      "outputs": [],
      "stateMutability": "nonpayable",
      "type": "function"
    },
    {
      "inputs": [],
      "name": "feeManager",
      "outputs": [
        {
          "internalType": "contract MarketplaceFeeManager",
          "name": "",
          "type": "address"
        }
      ],
      "stateMutability": "view",
      "type": "function"
    },
    {
      "inputs": [
        {
          "internalType": "uint256",
          "name": "offset",
          "type": "uint256"
        },
        {
          "internalType": "uint256",
          "name": "limit",
          "type": "uint256"
        }
      ],
      "name": "getActiveListings",
      "outputs": [
        {
          "internalType": "bytes32[]",
          "name": "listingIds",
          "type": "bytes32[]"
        },
        {
          "internalType": "uint256",
          "name": "total",
          "type": "uint256"
        }
      ],
      "stateMutability": "view",
      "type": "function"
    },
    {
      "inputs": [
        {
          "internalType": "bytes32",
          "name": "listingId",
          "type": "bytes32"
        }
      ],
      "name": "getListing",
      "outputs": [
        {
          "components": [
            {
              "internalType": "address",
              "name": "seller",
              "type": "address"
            },
            {
              "internalType": "address",
              "name": "nftContract",
              "type": "address"
            },
            {
              "internalType": "uint256",
              "name": "tokenId",
              "type": "uint256"
            },
            {
              "internalType": "uint256",
              "name": "price",
              "type": "uint256"
            },
            {
              "internalType": "address",
              "name": "paymentToken",
              "type": "address"
            },
            {
              "internalType": "uint256",
              "name": "createdAt",
              "type": "uint256"
            },
            {
              "internalType": "bool",
              "name": "isActive",
              "type": "bool"
            }
          ],
          "internalType": "struct Marketplace.Listing",
          "name": "",
          "type": "tuple"
        }
      ],
      "stateMutability": "view",
      "type": "function"
    },
    {
      "inputs": [
        {
          "internalType": "address",
          "name": "seller",
          "type": "address"
        }
      ],
      "name": "getSellerListings",
      "outputs": [
        {
          "internalType": "bytes32[]",
          "name": "",
          "type": "bytes32[]"
        }
      ],
      "stateMutability": "view",
      "type": "function"
    },
    {
      "inputs": [
        {
          "internalType": "bytes32",
          "name": "",
          "type": "bytes32"
        }
      ],
      "name": "isActiveListing",
      "outputs": [
        {
          "internalType": "bool",
          "name": "",
          "type": "bool"
        }
      ],
      "stateMutability": "view",
      "type": "function"
    },
    {
      "inputs": [
        {
          "internalType": "address",
          "name": "nftContract",
          "type": "address"
        },
        {
          "internalType": "uint256",
          "name": "tokenId",
          "type": "uint256"
        },
        {
          "internalType": "uint256",
          "name": "price",
          "type": "uint256"
        },
        {
          "internalType": "address",
          "name": "paymentToken",
          "type": "address"
        }
      ],
      "name": "listItem",
      "outputs": [
        {
          "internalType": "bytes32",
          "name": "",
          "type": "bytes32"
        }
      ],
      "stateMutability": "nonpayable",
      "type": "function"
    },
    {
      "inputs": [
        {
          "internalType": "bytes32",
          "name": "",
          "type": "bytes32"
        }
      ],
      "name": "listingToIndex",
      "outputs": [
        {
          "internalType": "uint256",
          "name": "",
          "type": "uint256"
        }
      ],
      "stateMutability": "view",
      "type": "function"
    },
    {
      "inputs": [
        {
          "internalType": "bytes32",
          "name": "",
          "type": "bytes32"
        }
      ],
      "name": "listings",
      "outputs": [
        {
          "internalType": "address",
          "name": "seller",
          "type": "address"
        },
        {
          "internalType": "address",
          "name": "nftContract",
          "type": "address"
        },
        {
          "internalType": "uint256",
          "name": "tokenId",
          "type": "uint256"
        },
        {
          "internalType": "uint256",
          "name": "price",
          "type": "uint256"
        },
        {
          "internalType": "address",
          "name": "paymentToken",
          "type": "address"
        },
        {
          "internalType": "uint256",
          "name": "createdAt",
          "type": "uint256"
        },
        {
          "internalType": "bool",
          "name": "isActive",
          "type": "bool"
        }
      ],
      "stateMutability": "view",
      "type": "function"
    },
    {
      "inputs": [],
      "name": "minimumListingPrice",
      "outputs": [
        {
          "internalType": "uint256",
          "name": "",
          "type": "uint256"
        }
      ],
      "stateMutability": "view",
      "type": "function"
    },
    {
      "inputs": [
        {
          "internalType": "address",
          "name": "",
          "type": "address"
        },
        {
          "internalType": "uint256",
          "name": "",
          "type": "uint256"
        }
      ],
      "name": "nftToListing",
      "outputs": [
        {
          "internalType": "bytes32",
          "name": "",
          "type": "bytes32"
        }
      ],
      "stateMutability": "view",
      "type": "function"
    },
    {
      "inputs": [],
      "name": "owner",
      "outputs": [
        {
          "internalType": "address",
          "name": "",
          "type": "address"
        }
      ],
      "stateMutability": "view",
      "type": "function"
    },
    {
      "inputs": [],
      "name": "pause",
      "outputs": [],
      "stateMutability": "nonpayable",
      "type": "function"
    },
    {
      "inputs": [],
      "name": "paused",
      "outputs": [
        {
          "internalType": "bool",
          "name": "",
          "type": "bool"
        }
      ],
      "stateMutability": "view",
      "type": "function"
    },
    {
      "inputs": [],
      "name": "renounceOwnership",
      "outputs": [],
      "stateMutability": "nonpayable",
      "type": "function"
    },
    {
      "inputs": [
        {
          "internalType": "address",
          "name": "",
          "type": "address"
        },
        {
          "internalType": "uint256",
          "name": "",
          "type": "uint256"
        }
      ],
      "name": "sellerListings",
      "outputs": [
        {
          "internalType": "bytes32",
          "name": "",
          "type": "bytes32"
        }
      ],
      "stateMutability": "view",
      "type": "function"
    },
    {
      "inputs": [
        {
          "internalType": "address",
          "name": "",
          "type": "address"
        }
      ],
      "name": "supportedTokens",
      "outputs": [
        {
          "internalType": "bool",
          "name": "",
          "type": "bool"
        }
      ],
      "stateMutability": "view",
      "type": "function"
    },
    {
      "inputs": [
        {
          "internalType": "address",
          "name": "newOwner",
          "type": "address"
        }
      ],
      "name": "transferOwnership",
      "outputs": [],
      "stateMutability": "nonpayable",
      "type": "function"
    },
    {
      "inputs": [],
      "name": "unpause",
      "outputs": [],
      "stateMutability": "nonpayable",
      "type": "function"
    },
    {
      "inputs": [
        {
          "internalType": "bytes32",
          "name": "listingId",
          "type": "bytes32"
        },
        {
          "internalType": "uint256",
          "name": "newPrice",
          "type": "uint256"
        }
      ],
      "name": "updateListingPrice",
      "outputs": [],
      "stateMutability": "nonpayable",
      "type": "function"
    },
    {
      "inputs": [
        {
          "internalType": "uint256",
          "name": "newPrice",
          "type": "uint256"
        }
      ],
      "name": "updateMinimumListingPrice",
      "outputs": [],
      "stateMutability": "nonpayable",
      "type": "function"
    },
    {
      "inputs": [
        {
          "internalType": "address",
          "name": "token",
          "type": "address"
        },
        {
          "internalType": "bool",
          "name": "supported",
          "type": "bool"
        }
      ],
      "name": "updatePaymentToken",
      "outputs": [],
      "stateMutability": "nonpayable",
      "type": "function"
    },
    {
      "inputs": [],
      "name": "version",
      "outputs": [
        {
          "internalType": "string",
          "name": "",
          "type": "string"
        }
      ],
      "stateMutability": "pure",
      "type": "function"
    },
    {
      "stateMutability": "payable",
      "type": "receive"
    }
  ],
  "bytecode": "0x60a03461015a57601f611b3038819003918201601f19168301916001600160401b0383118484101761015f5780849260609460405283398101031261015a5761004781610175565b90604061005660208301610175565b910151916001600160a01b031690811561014457600080546001600160a01b031981168417825560405193916001600160a01b03909116907f8be0079c531659141344cd1fd0a4f28419497f9722a3daafe3b4186f6b6457e09080a3600180556001600160a01b0316908115610133577f5e8256d798dd08f457c99b0672076b6488ab87dec9f8136232fed987cdc2ffd99260409260805280600a5560008052600960205282600020600160ff19825416179055600082526020820152a16040516119a6908161018a823960805181818161028401526107220152f35b63c4ef6d5960e01b60005260046000fd5b631e4fbdf760e01b600052600060045260246000fd5b600080fd5b634e487b7160e01b600052604160045260246000fd5b51906001600160a01b038216820361015a5756fe6080604052600436101561001b575b361561001957600080fd5b005b6000803560e01c8063054564f01461145d5780630989f26c146113b7578063175c0d16146112ac57806324dad05c146112565780633e93d0cd146111695780633f4ba83a1461110157806348c2d2c4146110e35780634d96a5981461105757806354fd4d5014610fdd5780635930a88c14610b625780635c8ae64a14610b1f5780635c975abb14610afc5780635f42da0914610a7257806361cf486314610a3857806368c4ac26146109f9578063715018a61461099f5780638456cb59146109445780638da5cb5b1461091d5780639299e55214610845578063ba847b991461081b578063c128b231146107da578063c18b8db414610751578063d0fb02031461070c578063d722823a146106dd578063f169bf07146101cd5763f2fde38b14610145575061000e565b346101ca5760203660031901126101ca5761015e6114a5565b6101666116a1565b6001600160a01b031680156101b65781546001600160a01b03198116821783556001600160a01b03167f8be0079c531659141344cd1fd0a4f28419497f9722a3daafe3b4186f6b6457e08380a380f35b631e4fbdf760e01b82526004829052602482fd5b80fd5b5060203660031901126101ca576004356101e56117cb565b6101ed6117ed565b80825260036020526040822060ff600682015416156106ce5780546001820154600283015460038401546004948501546040516331a9108f60e11b81529586018390526001600160a01b03948516969385169593949193911690602081602481895afa80156106c35787918991610683575b506001600160a01b031603610674576040516338b6571160e11b8152600481018490527f00000000000000000000000000000000000000000000000000000000000000006001600160a01b0316939092602084602481885afa938415610669578994610635575b50889489908a602460408b8151928380926310676f6f60e31b82528960048301525afa8291816105ef575b50610597575b505061030c8761030788876115bd565b6115bd565b856104dd578434106104ce57806104be575b5085610441575b50858015158061042f575b610416575b50508134116103fe575b863b156103fa57604051632142170760e11b81526001600160a01b0389166004820152336024820152604481018290528981606481838c5af180156103ef576103db575b5061038f8188886116ca565b604051968752602087015260408601526060850152608084015260a08301527fee3ca82b097863e655ef11b61319c9cadfd3340eed2b81e97e87b968319aafde60c03393a46001805580f35b896103e8919a929a61156f565b9738610383565b6040513d8c823e3d90fd5b8880fd5b61041161040b83346115bd565b3361182c565b61033f565b610428916001600160a01b031661182c565b3885610335565b506001600160a01b0382161515610330565b6060600491604051928380926202eab760e01b82525afa9081156104b35761047b9187918d91610481575b506001600160a01b031661182c565b38610325565b6104a3915060603d6060116104ac575b61049b818361156f565b81019061180a565b5090503861046c565b503d610491565b6040513d8d823e3d90fd5b6104c8908b61182c565b3861031e565b63cd1c886760e01b8c5260048cfd5b346104ce5780610585575b508561052a575b508580151580610518575b610506575b505061033f565b6105119133866118ca565b38856104ff565b506001600160a01b03821615156104fa565b6060600491604051928380926202eab760e01b82525afa9081156104b35761055d9187918d91610563575b5033876118ca565b386104ef565b61057c915060603d6060116104ac5761049b818361156f565b50905038610555565b610591908b33886118ca565b386104e8565b6001600160a01b0382168c1415806105e6575b156102f75791925096508084029084820414841517156105d2576127109004959038806102f7565b634e487b7160e01b8b52601160045260248bfd5b508015156105aa565b925090506040823d60401161062d575b8161060c6040938361156f565b8101031261062957602061061f83611591565b92015190386102f1565b8c80fd5b3d91506105ff565b9093506020813d602011610661575b816106516020938361156f565b810103126103fa575192386102c6565b3d9150610644565b6040513d8b823e3d90fd5b631022318760e21b8752600487fd5b9150506020813d6020116106bb575b8161069f6020938361156f565b810103126106b7576106b18791611591565b3861025f565b8780fd5b3d9150610692565b6040513d8a823e3d90fd5b6366cb03e960e01b8352600483fd5b50346101ca5760203660031901126101ca5760ff60406020926004358152600884522054166040519015158152f35b50346101ca57806003193601126101ca576040517f00000000000000000000000000000000000000000000000000000000000000006001600160a01b03168152602090f35b50346101ca5760203660031901126101ca57604060e091600435815260036020522060018060a01b038154169060018060a01b03600182015416906002810154600382015460018060a01b036004840154169160ff600660058601549501541694604051968752602087015260408601526060850152608084015260a0830152151560c0820152f35b50346101ca5760403660031901126101ca576108116107fd6024356004356115e0565b604051928392604084526040840190611509565b9060208301520390f35b50346101ca5760203660031901126101ca5760406020916004358152600783522054604051908152f35b50346101ca5760203660031901126101ca576004356108626117cb565b8082526003602052604082209060ff600683015416156106ce5781546001600160a01b031633141580610909575b6108fa577f6bff96717f9ad0eb5664143e8fbdab0726c97a59381914a55a56cd1b2daba2ee60018060a01b03600184015416926002810154906108d48286866116ca565b54604080516001600160a01b039687168152602081019390935294169390a36001805580f35b63263866f560e21b8352600483fd5b5082546001600160a01b0316331415610890565b50346101ca57806003193601126101ca57546040516001600160a01b039091168152602090f35b50346101ca57806003193601126101ca5761095d6116a1565b6109656117ed565b600160ff1960025416176002557f62e78cea01bee320cd4e420270b5ea74000d11b0c9f74754ebdbfc544b05a2586020604051338152a180f35b50346101ca57806003193601126101ca576109b86116a1565b80546001600160a01b03198116825581906001600160a01b03167f8be0079c531659141344cd1fd0a4f28419497f9722a3daafe3b4186f6b6457e08280a380f35b50346101ca5760203660031901126101ca5760209060ff906040906001600160a01b03610a246114a5565b168152600984522054166040519015158152f35b50346101ca5760203660031901126101ca57600435906006548210156101ca576020610a63836114c0565b90549060031b1c604051908152f35b50346101ca5760203660031901126101ca576001600160a01b03610a946114a5565b168152600460205260408120604051918260208354918281520192825260208220915b818110610ae657610ae285610ace8187038261156f565b604051918291602083526020830190611509565b0390f35b8254845260209093019260019283019201610ab7565b50346101ca57806003193601126101ca57602060ff600254166040519015158152f35b50346101ca5760403660031901126101ca576020906040906001600160a01b03610b476114a5565b16815260058352818120602435825283522054604051908152f35b50346101ca5760803660031901126101ca57610b7c6114a5565b6064356001600160a01b038116919060243590604435848203610fd957610ba16117cb565b610ba96117ed565b600a548110610fca57848652600960205260ff60408720541615610fbb576040516331a9108f60e11b8152600481018490526001600160a01b0385169490602081602481895afa9081156106c3578891610f81575b50336001600160a01b03909116036106745760405163e985e9c560e01b8152336004820152306024820152602081604481895afa9081156106c3578891610f46575b501580610ece575b610ebf5784875260056020526040872084885260205260408720548015159081610ea9575b50610e9a57610d839060405160208101916bffffffffffffffffffffffff199060601b1682528560348201523360601b605482015242606882015243608882015260888152610cbd60a88261156f565b519020956006878960405193610cd28561153d565b33855260208086018b815260408088018c8152606089018b815260808a019586524260a08b01908152600160c08c018181529989526003968790529390972099518a546001600160a01b039182166001600160a01b0319918216178c559451938b01805494821694861694909417909355905160028a015551928801929092559151600487018054919092169216919091179055516005840155519101805460ff191691151560ff16919091179055565b338652600460205260408620805490600160401b821015610e8657610db282610dc99260018a950181556114f1565b819391549060031b91821b91600019901b19161790565b9055838652600560205260408620838752602052846040872055600654600654600160401b811015610e865791604060209888959386610e35610db28860017fe6550c1d5292bd4354d980e25eec010dcdd0032972b7a6d3c291f0693b04cb8d9a0160065560066114f1565b905586825260078b528282205585815260088a5220805460ff191660011790556040805195865260208601919091526001600160a01b0391909116908401523392606090a460018055604051908152f35b634e487b7160e01b88526041600452602488fd5b635d2cdd2160e11b8752600487fd5b8852506008602052604087205460ff1638610c6d565b63876dcc9f60e01b8752600487fd5b5060405163020604bf60e21b815260048101859052602081602481895afa9081156106c3578891610f0c575b506001600160a01b0316301415610c48565b90506020813d602011610f3e575b81610f276020938361156f565b810103126106b757610f3890611591565b38610efa565b3d9150610f1a565b90506020813d602011610f79575b81610f616020938361156f565b810103126106b7575180151581036106b75738610c40565b3d9150610f54565b90506020813d602011610fb3575b81610f9c6020938361156f565b810103126106b757610fad90611591565b38610bfe565b3d9150610f8f565b63a29cc06960e01b8652600486fd5b63def5fc2b60e01b8652600486fd5b8580fd5b50346101ca57806003193601126101ca576040805191610ffd828461156f565b60058352640312e302e360dc1b6020840152815192839160208352815191826020850152815b838110611040575050828201840152601f01601f19168101030190f35b602082820181015188830188015287955001611023565b50346101ca5760403660031901126101ca576110716114a5565b60243590811515908183036110df577f19c6e2fbd27c3204efb106f0081d2d7ffaf44da224ca04fbc0d8a262ba40f555916110d56020926110b06116a1565b60018060a01b03169485875260098452604087209060ff801983541691151516179055565b604051908152a280f35b8380fd5b50346101ca57806003193601126101ca576020600a54604051908152f35b50346101ca57806003193601126101ca5761111a6116a1565b60025460ff81161561115a5760ff19166002557f5db9ee0a495bf2e6ff9c91a7834c1ba4fdd244a5e8aa4e537bd38aeae4b073aa6020604051338152a180f35b638dfc202b60e01b8252600482fd5b50346101ca5760403660031901126101ca576024356004356111896117cb565b8083526003602052604083209060ff600683015416156112475781546001600160a01b0316330361123857600a5483106112295760038201839055600182015460028301546004909301546040805194855260208501959095526001600160a01b0390811694840194909452929092169133917fe6550c1d5292bd4354d980e25eec010dcdd0032972b7a6d3c291f0693b04cb8d90606090a46001805580f35b63def5fc2b60e01b8452600484fd5b63263866f560e21b8452600484fd5b6366cb03e960e01b8452600484fd5b50346101ca5760203660031901126101ca577f5e8256d798dd08f457c99b0672076b6488ab87dec9f8136232fed987cdc2ffd960406004356112966116a1565b600a549080600a5582519182526020820152a180f35b50346101ca5760203660031901126101ca5760408160e09260c083516112d18161153d565b82815282602082015282858201528260608201528260808201528260a08201520152600435815260036020522060405161130a8161153d565b60018060a01b038254169182825260018060a01b03600182015416602083019081526002820154604084019081526003830154906060850191825260018060a01b03600485015416926080860193845260c060ff600660058801549760a08a019889520154169601951515865260405196875260018060a01b03905116602087015251604086015251606085015260018060a01b0390511660808401525160a083015251151560c0820152f35b50346101ca5760203660031901126101ca576004356113d46116a1565b8082526003602052604082209060ff6006830154166113f1578280f35b7f6bff96717f9ad0eb5664143e8fbdab0726c97a59381914a55a56cd1b2daba2ee600183019260018060a01b03845416906114336002820192835490866116ca565b5493549054604080516001600160a01b03938416815260208101929092529190941693a338808280f35b50346101ca5760403660031901126101ca576114776114a5565b6001600160a01b03168152600460205260408120805460243592908310156101ca576020610a6384846114f1565b600435906001600160a01b03821682036114bb57565b600080fd5b6006548110156114db57600660005260206000200190600090565b634e487b7160e01b600052603260045260246000fd5b80548210156114db5760005260206000200190600090565b906020808351928381520192019060005b8181106115275750505090565b825184526020938401939092019160010161151a565b60e0810190811067ffffffffffffffff82111761155957604052565b634e487b7160e01b600052604160045260246000fd5b90601f8019910116810190811067ffffffffffffffff82111761155957604052565b51906001600160a01b03821682036114bb57565b67ffffffffffffffff81116115595760051b60200190565b919082039182116115ca57565b634e487b7160e01b600052601160045260246000fd5b6006549291838210156116845781018082116115ca5783811161167d575b61160882826115bd565b91611612836115a5565b92611620604051948561156f565b80845261162f601f19916115a5565b01366020850137805b828110611646575050509190565b61164f816114c0565b90549060031b1c9061166183826115bd565b9185518310156114db57602060019360051b8701015201611638565b50826115fe565b505060405161169460208261156f565b6000815260003681379190565b6000546001600160a01b031633036116b557565b63118cdaa760e01b6000523360045260246000fd5b9190826000526007602052604060002054916006549160001983019283116115ca57846000526003602052600660406000200160ff198154169055846000526008602052604060002060ff19815416905560018060a01b0316600052600560205260406000209060005260205260006040812055808203611797575b50506006548015611781576000190161175e816114c0565b8154906000199060031b1b19169055600655600052600760205260006040812055565b634e487b7160e01b600052603160045260246000fd5b6117a0906114c0565b90549060031b1c806117b4610db2846114c0565b905560005260076020526040600020553880611746565b6002600154146117dc576002600155565b633ee5aeb560e01b60005260046000fd5b60ff600254166117f957565b63d93c066560e01b60005260046000fd5b908160609103126114bb57805191604061182660208401611591565b92015190565b8147106118b1576000918291829182916001600160a01b03165af13d156118a9573d9067ffffffffffffffff82116115595760405191611876601f8201601f19166020018461156f565b82523d6000602084013e5b156118895750565b80511561189857602081519101fd5b63d6bda27560e01b60005260046000fd5b606090611881565b504763cf47918160e01b60005260045260245260446000fd5b6040516323b872dd60e01b60208083019182526001600160a01b039485166024840152949093166044820152606480820195909552938452926000919061191260848261156f565b519082855af115611964576000513d61195b57506001600160a01b0381163b155b61193a5750565b635274afe760e01b60009081526001600160a01b0391909116600452602490fd5b60011415611933565b6040513d6000823e3d90fdfea2646970667358221220d2f0a384bd3d826794341a14e45fb6c50e418512a5d7966256e37a167f84584764736f6c634300081c0033",
  "linkReferences": {},
  "deployedLinkReferences": {},
  "immutableReferences": {
    "8266": [
      {
        "length": 32,
        "start": 644
      },
      {
        "length": 32,
        "start": 1826
      }
    ]
  },
  "inputSourceName": "project/contracts/Marketplace.sol",
  "buildInfoId": "solc-0_8_28-fc0b8cd4e7e1b988cedf672457f710f0b19edfde"
}