{
  "_format": "hh3-artifact-1",
  "contractName": "NFTCollectionFactory",
  "sourceName": "contracts/NFTCollectionFactory.sol",
  "abi": [
    {
      "inputs": [
        {
          "internalType": "address",
          "name": "initialOwner",
          "type": "address"
        },
        {
          "internalType": "uint256",
          "name": "deploymentFee_",
          "type": "uint256"
        },
        {
          "internalType": "address",
          "name": "feeRecipient_",
          "type": "address"
        }
      ],
      "stateMutability": "nonpayable",
      "type": "constructor"
    },
    {
      "inputs": [],
      "name": "CollectionNotFound",
      "type": "error"
    },
    {
      "inputs": [],
      "name": "DeploymentFailed",
      "type": "error"
    },
    {
      "inputs": [],
      "name": "EnforcedPause",
      "type": "error"
    },
    {
      "inputs": [],
      "name": "ExpectedPause",
      "type": "error"
    },
    {
      "inputs": [],
      "name": "InsufficientDeploymentFee",
      "type": "error"
    },
    {
      "inputs": [],
      "name": "InvalidCreator",
      "type": "error"
    },
    {
      "inputs": [],
      "name": "InvalidFeeRecipient",
      "type": "error"
    },
    {
      "inputs": [],
      "name": "MaxCollectionsExceeded",
      "type": "error"
    },
    {
      "inputs": [
        {
          "internalType": "address",
          "name": "owner",
          "type": "address"
        }
      ],
      "name": "OwnableInvalidOwner",
      "type": "error"
    },
    {
      "inputs": [
        {
          "internalType": "address",
          "name": "account",
          "type": "address"
        }
      ],
      "name": "OwnableUnauthorizedAccount",
      "type": "error"
    },
    {
      "inputs": [],
      "name": "ReentrancyGuardReentrantCall",
      "type": "error"
    },
    {
      "anonymous": false,
      "inputs": [
        {
          "indexed": true,
          "internalType": "address",
          "name": "collection",
          "type": "address"
        },
        {
          "indexed": true,
          "internalType": "address",
          "name": "creator",
          "type": "address"
        },
        {
          "indexed": false,
          "internalType": "string",
          "name": "name",
          "type": "string"
        },
        {
          "indexed": false,
          "internalType": "string",
          "name": "symbol",
          "type": "string"
        },
        {
          "indexed": false,
          "internalType": "uint256",
          "name": "maxSupply",
          "type": "uint256"
        }
      ],
      "name": "CollectionCreated",
      "type": "event"
    },
    {
      "anonymous": false,
      "inputs": [
        {
          "indexed": false,
          "internalType": "uint256",
          "name": "oldFee",
          "type": "uint256"
        },
        {
          "indexed": false,
          "internalType": "uint256",
          "name": "newFee",
          "type": "uint256"
        }
      ],
      "name": "DeploymentFeeUpdated",
      "type": "event"
    },
    {
      "anonymous": false,
      "inputs": [
        {
          "indexed": false,
          "internalType": "address",
          "name": "oldRecipient",
          "type": "address"
        },
        {
          "indexed": false,
          "internalType": "address",
          "name": "newRecipient",
          "type": "address"
        }
      ],
      "name": "FeeRecipientUpdated",
      "type": "event"
    },
    {
      "anonymous": false,
      "inputs": [
        {
          "indexed": false,
          "internalType": "uint256",
          "name": "oldMax",
          "type": "uint256"
        },
        {
          "indexed": false,
          "internalType": "uint256",
          "name": "newMax",
          "type": "uint256"
        }
      ],
      "name": "MaxCollectionsPerCreatorUpdated",
      "type": "event"
    },
    {
      "anonymous": false,
      "inputs": [
        {
          "indexed": true,
          "internalType": "address",
          "name": "previousOwner",
          "type": "address"
        },
        {
          "indexed": true,
          "internalType": "address",
          "name": "newOwner",
          "type": "address"
        }
      ],
      "name": "OwnershipTransferred",
      "type": "event"
    },
    {
      "anonymous": false,
      "inputs": [
        {
          "indexed": false,
          "internalType": "address",
          "name": "account",
          "type": "address"
        }
      ],
      "name": "Paused",
      "type": "event"
    },
    {
      "anonymous": false,
      "inputs": [
        {
          "indexed": false,
          "internalType": "address",
          "name": "account",
          "type": "address"
        }
      ],
      "name": "Unpaused",
      "type": "event"
    },
    {
      "inputs": [
        {
          "internalType": "uint256",
          "name": "",
          "type": "uint256"
        }
      ],
      "name": "allCollections",
      "outputs": [
        {
          "internalType": "address",
          "name": "",
          "type": "address"
        }
      ],
      "stateMutability": "view",
      "type": "function"
    },
    {
      "inputs": [
        {
          "components": [
            {
              "internalType": "string",
              "name": "name",
              "type": "string"
            },
            {
              "internalType": "string",
              "name": "symbol",
              "type": "string"
            },
            {
              "internalType": "string",
              "name": "baseURI",
              "type": "string"
            },
            {
              "internalType": "uint256",
              "name": "maxSupply",
              "type": "uint256"
            },
            {
              "internalType": "string",
              "name": "description",
              "type": "string"
            }
          ],
          "internalType": "struct NFTCollectionFactory.CollectionParams",
          "name": "params",
          "type": "tuple"
        }
      ],
      "name": "createCollection",
      "outputs": [
        {
          "internalType": "address",
          "name": "collection",
          "type": "address"
        }
      ],
      "stateMutability": "payable",
      "type": "function"
    },
    {
      "inputs": [
        {
          "components": [
            {
              "internalType": "string",
              "name": "name",
              "type": "string"
            },
            {
              "internalType": "string",
              "name": "symbol",
              "type": "string"
            },
            {
              "internalType": "string",
              "name": "baseURI",
              "type": "string"
            },
            {
              "internalType": "uint256",
              "name": "maxSupply",
              "type": "uint256"
            },
            {
              "internalType": "string",
              "name": "description",
              "type": "string"
            }
          ],
          "internalType": "struct NFTCollectionFactory.CollectionParams",
          "name": "params",
          "type": "tuple"
        },
        {
          "internalType": "address",
          "name": "creator",
          "type": "address"
        }
      ],
      "name": "createCollectionForCreator",
      "outputs": [
        {
          "internalType": "address",
          "name": "collection",
          "type": "address"
        }
      ],
      "stateMutability": "nonpayable",
      "type": "function"
    },
    {
      "inputs": [
        {
          "internalType": "address",
          "name": "",
          "type": "address"
        },
        {
          "internalType": "uint256",
          "name": "",
          "type": "uint256"
        }
      ],
      "name": "creatorCollections",
      "outputs": [
        {
          "internalType": "address",
          "name": "",
          "type": "address"
        }
      ],
      "stateMutability": "view",
      "type": "function"
    },
    {
      "inputs": [],
      "name": "deploymentFee",
      "outputs": [
        {
          "internalType": "uint256",
          "name": "",
          "type": "uint256"
        }
      ],
      "stateMutability": "view",
      "type": "function"
    },
    {
      "inputs": [],
      "name": "emergencyWithdraw",
      "outputs": [],
      "stateMutability": "nonpayable",
      "type": "function"
    },
    {
      "inputs": [],
      "name": "feeRecipient",
      "outputs": [
        {
          "internalType": "address",
          "name": "",
          "type": "address"
        }
      ],
      "stateMutability": "view",
      "type": "function"
    },
    {
      "inputs": [
        {
          "internalType": "uint256",
          "name": "offset",
          "type": "uint256"
        },
        {
          "internalType": "uint256",
          "name": "limit",
          "type": "uint256"
        }
      ],
      "name": "getAllCollections",
      "outputs": [
        {
          "internalType": "address[]",
          "name": "collections",
          "type": "address[]"
        },
        {
          "internalType": "uint256",
          "name": "total",
          "type": "uint256"
        }
      ],
      "stateMutability": "view",
      "type": "function"
    },
    {
      "inputs": [
        {
          "internalType": "address",
          "name": "collection",
          "type": "address"
        }
      ],
      "name": "getCollectionInfo",
      "outputs": [
        {
          "internalType": "bool",
          "name": "isValid",
          "type": "bool"
        },
        {
          "internalType": "address",
          "name": "creator",
          "type": "address"
        },
        {
          "internalType": "uint256",
          "name": "totalSupply",
          "type": "uint256"
        }
      ],
      "stateMutability": "view",
      "type": "function"
    },
    {
      "inputs": [
        {
          "internalType": "address",
          "name": "creator",
          "type": "address"
        }
      ],
      "name": "getCreatorCollectionCount",
      "outputs": [
        {
          "internalType": "uint256",
          "name": "",
          "type": "uint256"
        }
      ],
      "stateMutability": "view",
      "type": "function"
    },
    {
      "inputs": [
        {
          "internalType": "address",
          "name": "creator",
          "type": "address"
        }
      ],
      "name": "getCreatorCollections",
      "outputs": [
        {
          "internalType": "address[]",
          "name": "",
          "type": "address[]"
        }
      ],
      "stateMutability": "view",
      "type": "function"
    },
    {
      "inputs": [],
      "name": "getTotalCollections",
      "outputs": [
        {
          "internalType": "uint256",
          "name": "",
          "type": "uint256"
        }
      ],
      "stateMutability": "view",
      "type": "function"
    },
    {
      "inputs": [
        {
          "internalType": "address",
          "name": "",
          "type": "address"
        }
      ],
      "name": "isValidCollection",
      "outputs": [
        {
          "internalType": "bool",
          "name": "",
          "type": "bool"
        }
      ],
      "stateMutability": "view",
      "type": "function"
    },
    {
      "inputs": [],
      "name": "maxCollectionsPerCreator",
      "outputs": [
        {
          "internalType": "uint256",
          "name": "",
          "type": "uint256"
        }
      ],
      "stateMutability": "view",
      "type": "function"
    },
    {
      "inputs": [],
      "name": "owner",
      "outputs": [
        {
          "internalType": "address",
          "name": "",
          "type": "address"
        }
      ],
      "stateMutability": "view",
      "type": "function"
    },
    {
      "inputs": [],
      "name": "pause",
      "outputs": [],
      "stateMutability": "nonpayable",
      "type": "function"
    },
    {
      "inputs": [],
      "name": "paused",
      "outputs": [
        {
          "internalType": "bool",
          "name": "",
          "type": "bool"
        }
      ],
      "stateMutability": "view",
      "type": "function"
    },
    {
      "inputs": [],
      "name": "renounceOwnership",
      "outputs": [],
      "stateMutability": "nonpayable",
      "type": "function"
    },
    {
      "inputs": [
        {
          "internalType": "address",
          "name": "newOwner",
          "type": "address"
        }
      ],
      "name": "transferOwnership",
      "outputs": [],
      "stateMutability": "nonpayable",
      "type": "function"
    },
    {
      "inputs": [],
      "name": "unpause",
      "outputs": [],
      "stateMutability": "nonpayable",
      "type": "function"
    },
    {
      "inputs": [
        {
          "internalType": "uint256",
          "name": "newFee",
          "type": "uint256"
        }
      ],
      "name": "updateDeploymentFee",
      "outputs": [],
      "stateMutability": "nonpayable",
      "type": "function"
    },
    {
      "inputs": [
        {
          "internalType": "address",
          "name": "newRecipient",
          "type": "address"
        }
      ],
      "name": "updateFeeRecipient",
      "outputs": [],
      "stateMutability": "nonpayable",
      "type": "function"
    },
    {
      "inputs": [
        {
          "internalType": "uint256",
          "name": "newMax",
          "type": "uint256"
        }
      ],
      "name": "updateMaxCollectionsPerCreator",
      "outputs": [],
      "stateMutability": "nonpayable",
      "type": "function"
    },
    {
      "inputs": [],
      "name": "version",
      "outputs": [
        {
          "internalType": "string",
          "name": "",
          "type": "string"
        }
      ],
      "stateMutability": "pure",
      "type": "function"
    },
    {
      "stateMutability": "payable",
      "type": "receive"
    }
  ],
  "bytecode": "0x608060405234801561001057600080fd5b50604051613f15380380613f1583398101604081905261002f916101a9565b826001600160a01b03811661005e57604051631e4fbdf760e01b81526000600482015260240160405180910390fd5b6100678161013d565b50600180556001600160a01b03811661009357604051630ed1b8b360e31b815260040160405180910390fd5b6006829055600780546001600160a01b0319166001600160a01b0383161790556000600881905560408051918252602082018490527fbade80ae0982a2d3106c4f5afa708793d20a9d6441a6440011f99e9f69ad5f3c910160405180910390a160408051600081526001600160a01b03831660208201527faaebcf1bfa00580e41d966056b48521fa9f202645c86d4ddf28113e617c1b1d3910160405180910390a15050506101e5565b600080546001600160a01b038381166001600160a01b0319831681178455604051919092169283917f8be0079c531659141344cd1fd0a4f28419497f9722a3daafe3b4186f6b6457e09190a35050565b80516001600160a01b03811681146101a457600080fd5b919050565b6000806000606084860312156101be57600080fd5b6101c78461018d565b9250602084015191506101dc6040850161018d565b90509250925092565b613d21806101f46000396000f3fe60806040526004361061014f5760003560e01c806375900e6a116100b6578063939bf6dd1161006f578063939bf6dd146103f6578063a3f3bc721461040b578063db2e21bc14610441578063f160d36914610456578063f2cff57f14610476578063f2fde38b1461048c57600080fd5b806375900e6a146102fc5780637e99535f1461032c578063822f3e5d146103505780638456cb591461037e5780638da5cb5b146103935780639056a04b146103b157600080fd5b80635803efe4116101085780635803efe4146102435780635c975abb146102635780635ccfa6d4146102875780635cf7987c1461029a578063715018a6146102ba57806374311e12146102cf57600080fd5b80630fa700901461015b578063167ef4951461017d5780633f4ba83a146101ba57806346904840146101cf578063499200db146101ef57806354fd4d501461020f57600080fd5b3661015657005b600080fd5b34801561016757600080fd5b5061017b610176366004610f83565b6104ac565b005b34801561018957600080fd5b5061019d610198366004610f83565b6104fa565b6040516001600160a01b0390911681526020015b60405180910390f35b3480156101c657600080fd5b5061017b610524565b3480156101db57600080fd5b5060075461019d906001600160a01b031681565b3480156101fb57600080fd5b5061017b61020a366004610f83565b610536565b34801561021b57600080fd5b5060408051808201825260058152640312e302e360dc1b602082015290516101b19190610f9c565b34801561024f57600080fd5b5061019d61025e366004611017565b61057c565b34801561026f57600080fd5b5060025460ff165b60405190151581526020016101b1565b61019d610295366004611069565b61077e565b3480156102a657600080fd5b5061019d6102b53660046110a6565b610a06565b3480156102c657600080fd5b5061017b610a3e565b3480156102db57600080fd5b506102ef6102ea3660046110d2565b610a50565b6040516101b1919061113b565b34801561030857600080fd5b506102776103173660046110d2565b60046020526000908152604090205460ff1681565b34801561033857600080fd5b5061034260085481565b6040519081526020016101b1565b34801561035c57600080fd5b5061037061036b36600461114e565b610ac6565b6040516101b1929190611170565b34801561038a57600080fd5b5061017b610bc7565b34801561039f57600080fd5b506000546001600160a01b031661019d565b3480156103bd57600080fd5b506103d16103cc3660046110d2565b610bd7565b6040805193151584526001600160a01b039092166020840152908201526060016101b1565b34801561040257600080fd5b50600554610342565b34801561041757600080fd5b506103426104263660046110d2565b6001600160a01b031660009081526003602052604090205490565b34801561044d57600080fd5b5061017b610ce3565b34801561046257600080fd5b5061017b6104713660046110d2565b610d30565b34801561048257600080fd5b5061034260065481565b34801561049857600080fd5b5061017b6104a73660046110d2565b610db9565b6104b4610df9565b600880549082905560408051828152602081018490527f166af73b39448ec9101c3d1765873526382fb39bd56c3322baaffcba46995d9791015b60405180910390a15050565b6005818154811061050a57600080fd5b6000918252602090912001546001600160a01b0316905081565b61052c610df9565b610534610e26565b565b61053e610df9565b600680549082905560408051828152602081018490527fbade80ae0982a2d3106c4f5afa708793d20a9d6441a6440011f99e9f69ad5f3c91016104ee565b6000610586610df9565b61058e610e78565b6001600160a01b0382166105b5576040516332db94d160e21b815260040160405180910390fd5b60006008541180156105e157506008546001600160a01b03831660009081526003602052604090205410155b156105ff576040516338db8ea960e01b815260040160405180910390fd5b6106098380611192565b6106166020860186611192565b6106236040880188611192565b8760608a013561063660808c018c611192565b60405161064290610f76565b6106559a99989796959493929190611202565b604051809103906000f080156106685760015b61068557604051633011642560e01b815260040160405180910390fd5b90506001600160a01b0380831660008181526003602090815260408083208054600181810183559185528385200180549688166001600160a01b031997881681179091558085526004909352908320805460ff1916821790556005805491820181559092527f036b6384b5eca791c62761152d0c79bb0604c104a5fb6f4eb0703f3154bb3db090910180549093168117909255907f7697d6df79350f3236f33512b2cff1f0c0d6c9fc7466cc4723189d4618e9fd526107448680611192565b6107516020890189611192565b896060013560405161076795949392919061127a565b60405180910390a361077860018055565b92915050565b6000610788610e78565b610790610ea2565b6006543410156107b3576040516354605d0160e11b815260040160405180910390fd5b60006008541180156107d657506008543360009081526003602052604090205410155b156107f4576040516338db8ea960e01b815260040160405180910390fd5b6107fe8280611192565b61080b6020850185611192565b6108186040870187611192565b33606089013561082b60808b018b611192565b60405161083790610f76565b61084a9a99989796959493929190611202565b604051809103906000f0801561085d5760015b61087a57604051633011642560e01b815260040160405180910390fd5b90503360009081526003602090815260408083208054600181810183559185528385200180546001600160a01b0387166001600160a01b031991821681179092558186526004909452918420805460ff1916821790556005805491820181559093527f036b6384b5eca791c62761152d0c79bb0604c104a5fb6f4eb0703f3154bb3db09092018054909116909117905560065415610950576007546006546040516001600160a01b039092169181156108fc0291906000818181858888f1935050505015801561094e573d6000803e3d6000fd5b505b6006543411156109975760065433906108fc9061096d90346112ca565b6040518115909202916000818181858888f19350505050158015610995573d6000803e3d6000fd5b505b336001600160a01b0382167f7697d6df79350f3236f33512b2cff1f0c0d6c9fc7466cc4723189d4618e9fd526109cd8580611192565b6109da6020880188611192565b88606001356040516109f095949392919061127a565b60405180910390a3610a0160018055565b919050565b60036020528160005260406000208181548110610a2257600080fd5b6000918252602090912001546001600160a01b03169150829050565b610a46610df9565b6105346000610ec6565b6001600160a01b038116600090815260036020908152604091829020805483518184028101840190945280845260609392830182828015610aba57602002820191906000526020600020905b81546001600160a01b03168152600190910190602001808311610a9c575b50505050509050919050565b600554606090808410610ae9576040805160008152602081019091529150610bc0565b6000610af584866112f3565b905081811115610b025750805b610b0c85826112ca565b67ffffffffffffffff811115610b2457610b246112dd565b604051908082528060200260200182016040528015610b4d578160200160208202803683370190505b509250845b81811015610bbd5760058181548110610b6d57610b6d611306565b6000918252602090912001546001600160a01b031684610b8d88846112ca565b81518110610b9d57610b9d611306565b6001600160a01b0390921660209283029190910190910152600101610b52565b50505b9250929050565b610bcf610df9565b610534610f16565b6001600160a01b0381166000908152600460205260408120548190819060ff16610c0957506000915081905080610cdc565b60008490506001816001600160a01b0316638da5cb5b6040518163ffffffff1660e01b8152600401602060405180830381865afa158015610c4e573d6000803e3d6000fd5b505050506040513d601f19601f82011682018060405250810190610c72919061131c565b826001600160a01b03166318160ddd6040518163ffffffff1660e01b8152600401602060405180830381865afa158015610cb0573d6000803e3d6000fd5b505050506040513d601f19601f82011682018060405250810190610cd49190611339565b935093509350505b9193909250565b610ceb610df9565b478015610d2d57600080546040516001600160a01b039091169183156108fc02918491818181858888f19350505050158015610d2b573d6000803e3d6000fd5b505b50565b610d38610df9565b6001600160a01b038116610d5f57604051630ed1b8b360e31b815260040160405180910390fd5b600780546001600160a01b038381166001600160a01b031983168117909355604080519190921680825260208201939093527faaebcf1bfa00580e41d966056b48521fa9f202645c86d4ddf28113e617c1b1d391016104ee565b610dc1610df9565b6001600160a01b038116610df057604051631e4fbdf760e01b8152600060048201526024015b60405180910390fd5b610d2d81610ec6565b6000546001600160a01b031633146105345760405163118cdaa760e01b8152336004820152602401610de7565b610e2e610f53565b6002805460ff191690557f5db9ee0a495bf2e6ff9c91a7834c1ba4fdd244a5e8aa4e537bd38aeae4b073aa335b6040516001600160a01b03909116815260200160405180910390a1565b600260015403610e9b57604051633ee5aeb560e01b815260040160405180910390fd5b6002600155565b60025460ff16156105345760405163d93c066560e01b815260040160405180910390fd5b600080546001600160a01b038381166001600160a01b0319831681178455604051919092169283917f8be0079c531659141344cd1fd0a4f28419497f9722a3daafe3b4186f6b6457e09190a35050565b610f1e610ea2565b6002805460ff191660011790557f62e78cea01bee320cd4e420270b5ea74000d11b0c9f74754ebdbfc544b05a258610e5b3390565b60025460ff1661053457604051638dfc202b60e01b815260040160405180910390fd5b6129998061135383390190565b600060208284031215610f9557600080fd5b5035919050565b602081526000825180602084015260005b81811015610fca5760208186018101516040868401015201610fad565b506000604082850101526040601f19601f83011684010191505092915050565b600060a08284031215610ffc57600080fd5b50919050565b6001600160a01b0381168114610d2d57600080fd5b6000806040838503121561102a57600080fd5b823567ffffffffffffffff81111561104157600080fd5b61104d85828601610fea565b925050602083013561105e81611002565b809150509250929050565b60006020828403121561107b57600080fd5b813567ffffffffffffffff81111561109257600080fd5b61109e84828501610fea565b949350505050565b600080604083850312156110b957600080fd5b82356110c481611002565b946020939093013593505050565b6000602082840312156110e457600080fd5b81356110ef81611002565b9392505050565b600081518084526020840193506020830160005b828110156111315781516001600160a01b031686526020958601959091019060010161110a565b5093949350505050565b6020815260006110ef60208301846110f6565b6000806040838503121561116157600080fd5b50508035926020909101359150565b60408152600061118360408301856110f6565b90508260208301529392505050565b6000808335601e198436030181126111a957600080fd5b83018035915067ffffffffffffffff8211156111c457600080fd5b602001915036819003821315610bc057600080fd5b81835281816020850137506000828201602090810191909152601f909101601f19169091010190565b60c08152600061121660c083018c8e6111d9565b8281036020840152611229818b8d6111d9565b9050828103604084015261123e81898b6111d9565b6001600160a01b03881660608501526080840187905283810360a085015290506112698185876111d9565b9d9c50505050505050505050505050565b60608152600061128e6060830187896111d9565b82810360208401526112a18186886111d9565b9150508260408301529695505050505050565b634e487b7160e01b600052601160045260246000fd5b81810381811115610778576107786112b4565b634e487b7160e01b600052604160045260246000fd5b80820180821115610778576107786112b4565b634e487b7160e01b600052603260045260246000fd5b60006020828403121561132e57600080fd5b81516110ef81611002565b60006020828403121561134b57600080fd5b505191905056fe608060405234801561001057600080fd5b5060405161299938038061299983398101604081905261002f916101e2565b828686600061003e8382610345565b50600161004b8282610345565b5050506001600160a01b03811661007c57604051631e4fbdf760e01b81526000600482015260240160405180910390fd5b610085816100bb565b506001600c55600e6100978582610345565b50601082905560116100a98282610345565b50506001600f55506104039350505050565b600b80546001600160a01b038381166001600160a01b0319831681179093556040519116919082907f8be0079c531659141344cd1fd0a4f28419497f9722a3daafe3b4186f6b6457e090600090a35050565b634e487b7160e01b600052604160045260246000fd5b600082601f83011261013457600080fd5b81516001600160401b0381111561014d5761014d61010d565b604051601f8201601f19908116603f011681016001600160401b038111828210171561017b5761017b61010d565b60405281815283820160200185101561019357600080fd5b60005b828110156101b257602081860181015183830182015201610196565b506000918101602001919091529392505050565b80516001600160a01b03811681146101dd57600080fd5b919050565b60008060008060008060c087890312156101fb57600080fd5b86516001600160401b0381111561021157600080fd5b61021d89828a01610123565b602089015190975090506001600160401b0381111561023b57600080fd5b61024789828a01610123565b604089015190965090506001600160401b0381111561026557600080fd5b61027189828a01610123565b945050610280606088016101c6565b608088015160a089015191945092506001600160401b038111156102a357600080fd5b6102af89828a01610123565b9150509295509295509295565b600181811c908216806102d057607f821691505b6020821081036102f057634e487b7160e01b600052602260045260246000fd5b50919050565b601f82111561034057806000526020600020601f840160051c8101602085101561031d5750805b601f840160051c820191505b8181101561033d5760008155600101610329565b50505b505050565b81516001600160401b0381111561035e5761035e61010d565b6103728161036c84546102bc565b846102f6565b6020601f8211600181146103a6576000831561038e5750848201515b600019600385901b1c1916600184901b17845561033d565b600084815260208120601f198516915b828110156103d657878501518255602094850194600190920191016103b6565b50848210156103f45786840151600019600387901b60f8161c191681555b50505050600190811b01905550565b612587806104126000396000f3fe608060405234801561001057600080fd5b506004361061021c5760003560e01c8063715018a611610125578063b88d4fde116100ad578063d5abeb011161007c578063d5abeb011461047e578063e0fd045f14610487578063e985e9c5146104b0578063f24a3ae6146104c3578063f2fde38b146104e357600080fd5b8063b88d4fde14610425578063bc189d3814610438578063c87b56dd1461044b578063cb53b24b1461045e57600080fd5b80638da5cb5b116100f45780638da5cb5b146103e95780638fc73484146103fa57806395d89b4114610402578063a22cb4651461040a578063a2309ff81461041d57600080fd5b8063715018a61461039f5780637284e416146103a7578063833b7b78146103af5780638456cb59146103e157600080fd5b80633f4ba83a116101a857806355f804b31161017757806355f804b3146103415780635894bd51146103545780635c975abb1461036e5780636352211e1461037957806370a082311461038c57600080fd5b80633f4ba83a1461030057806342842e0e1461030857806342966c681461031b5780634f6ccce71461032e57600080fd5b8063095ea7b3116101ef578063095ea7b3146102aa57806318160ddd146102bf57806323b872dd146102c75780632f745c59146102da5780633b89105d146102ed57600080fd5b806301ffc9a71461022157806306fdde0314610249578063081812fc1461025e57806308598df014610289575b600080fd5b61023461022f366004611d65565b6104f6565b60405190151581526020015b60405180910390f35b610251610507565b6040516102409190611dd2565b61027161026c366004611de5565b610599565b6040516001600160a01b039091168152602001610240565b61029c610297366004611edb565b6105c2565b604051908152602001610240565b6102bd6102b8366004611f32565b610720565b005b60095461029c565b6102bd6102d5366004611f5c565b61072f565b61029c6102e8366004611f32565b6107bf565b6102bd6102fb366004611f99565b610824565b6102bd610883565b6102bd610316366004611f5c565b610895565b6102bd610329366004611de5565b6108b5565b61029c61033c366004611de5565b6108fa565b6102bd61034f366004612000565b610953565b61035c6109a2565b60405161024096959493929190612034565b600d5460ff16610234565b610271610387366004611de5565b610b02565b61029c61039a366004612086565b610b0d565b6102bd610b55565b610251610b67565b6103c26103bd366004611de5565b610bf5565b604080516001600160a01b039093168352602083019190915201610240565b6102bd610c57565b600b546001600160a01b0316610271565b610251610c67565b610251610c74565b6102bd6104183660046120a1565b610c83565b61029c610c8e565b6102bd6104333660046120dd565b610ca4565b6102bd610446366004612158565b610cbc565b610251610459366004611de5565b610d6d565b61029c61046c366004611de5565b60146020526000908152604090205481565b61029c60105481565b610271610495366004611de5565b6013602052600090815260409020546001600160a01b031681565b6102346104be36600461217a565b610d78565b6104d66104d13660046121ad565b610da6565b6040516102409190612297565b6102bd6104f1366004612086565b610fcc565b600061050182611007565b92915050565b606060008054610516906122da565b80601f0160208091040260200160405190810160405280929190818152602001828054610542906122da565b801561058f5780601f106105645761010080835404028352916020019161058f565b820191906000526020600020905b81548152906001019060200180831161057257829003601f168201915b5050505050905090565b60006105a48261102c565b506000828152600460205260409020546001600160a01b0316610501565b60006105cc611065565b6105d4611092565b6105dc6110bc565b60006010541180156105f15750601054600f54115b1561060f57604051638a164f6360e01b815260040160405180910390fd5b6103e88211156106325760405163134aed6960e21b815260040160405180910390fd5b600f805490819060006106448361232a565b919050555061065385826110e0565b61065d81856110fa565b600b54600082815260136020908152604080832080546001600160a01b0319166001600160a01b03958616179055601490915290819020859055519086169082907fec2cd236ed6d37bf5a71276ac93889db12834493a090efd543a3d2eca8dcdcc8906106cb908890611dd2565b60405180910390a3807f2f38e4d1636e7779ad62cfa88be99a558be72503fa6916e4ea7ff7cc6a91b6e68460405161070591815260200190565b60405180910390a290506107196001600c55565b9392505050565b61072b828233611143565b5050565b6001600160a01b03821661075e57604051633250574960e11b8152600060048201526024015b60405180910390fd5b600061076b838333611150565b9050836001600160a01b0316816001600160a01b0316146107b9576040516364283d7b60e01b81526001600160a01b0380861660048301526024820184905282166044820152606401610755565b50505050565b60006107ca83610b0d565b82106107fb5760405163295f44f760e21b81526001600160a01b038416600482015260248101839052604401610755565b506001600160a01b03919091166000908152600760209081526040808320938352929052205490565b61082c611065565b6011610838838261238a565b506012610845828261238a565b507f12508d6b74d6bda6f8eacc67129e4a2c476ece1f908a1b2bf4aaed7e485396878282604051610877929190612448565b60405180910390a15050565b61088b611065565b610893611165565b565b6108b083838360405180602001604052806000815250610ca4565b505050565b6108d16108ca600b546001600160a01b031690565b33836111b7565b6108ee57604051634cd9539b60e11b815260040160405180910390fd5b6108f78161121a565b50565b600061090560095490565b821061092e5760405163295f44f760e21b81526000600482015260248101839052604401610755565b6009828154811061094157610941612476565b90600052602060002001549050919050565b61095b611065565b600e610967828261238a565b507f6741b2fc379fad678116fe3d4d4b9a1a184ab53ba36b86ad0fa66340b1ab41ad816040516109979190611dd2565b60405180910390a150565b6000806000806060806109b460095490565b6001600f546109c3919061248c565b601054600b546001600160a01b0316601160128180546109e2906122da565b80601f0160208091040260200160405190810160405280929190818152602001828054610a0e906122da565b8015610a5b5780601f10610a3057610100808354040283529160200191610a5b565b820191906000526020600020905b815481529060010190602001808311610a3e57829003601f168201915b50505050509150808054610a6e906122da565b80601f0160208091040260200160405190810160405280929190818152602001828054610a9a906122da565b8015610ae75780601f10610abc57610100808354040283529160200191610ae7565b820191906000526020600020905b815481529060010190602001808311610aca57829003601f168201915b50505050509050955095509550955095509550909192939495565b60006105018261102c565b60006001600160a01b038216610b39576040516322718ad960e21b815260006004820152602401610755565b506001600160a01b031660009081526003602052604090205490565b610b5d611065565b6108936000611255565b60118054610b74906122da565b80601f0160208091040260200160405190810160405280929190818152602001828054610ba0906122da565b8015610bed5780601f10610bc257610100808354040283529160200191610bed565b820191906000526020600020905b815481529060010190602001808311610bd057829003601f168201915b505050505081565b60008181526002602052604081205481906001600160a01b0316610c2c5760405163677510db60e11b815260040160405180910390fd5b50506000908152601360209081526040808320546014909252909120546001600160a01b0390911691565b610c5f611065565b6108936112a7565b60128054610b74906122da565b606060018054610516906122da565b61072b3383836112e4565b60006001600f54610c9f919061248c565b905090565b610caf84848461072f565b6107b93385858585611383565b610cc4611065565b6000828152600260205260409020546001600160a01b0316610cf95760405163677510db60e11b815260040160405180910390fd5b6103e8811115610d1c5760405163134aed6960e21b815260040160405180910390fd5b600082815260146020526040908190208290555182907f2f38e4d1636e7779ad62cfa88be99a558be72503fa6916e4ea7ff7cc6a91b6e690610d619084815260200190565b60405180910390a25050565b6060610501826114ae565b6001600160a01b03918216600090815260056020908152604080832093909416825291909152205460ff1690565b6060610db0611065565b610db8611092565b610dc06110bc565b825160105415801590610ded5750601054600182600f54610de1919061249f565b610deb919061248c565b115b15610e0b57604051638a164f6360e01b815260040160405180910390fd5b6103e8831115610e2e5760405163134aed6960e21b815260040160405180910390fd5b6000816001600160401b03811115610e4857610e48611e1a565b604051908082528060200260200182016040528015610e71578160200160208202803683370190505b50905060005b82811015610f8357600f80549081906000610e918361232a565b9190505550610ea088826110e0565b610ec381888481518110610eb657610eb6612476565b60200260200101516110fa565b600b54600082815260136020908152604080832080546001600160a01b0319166001600160a01b0390951694909417909355601490522086905582518190849084908110610f1357610f13612476565b602002602001018181525050876001600160a01b0316817fec2cd236ed6d37bf5a71276ac93889db12834493a090efd543a3d2eca8dcdcc8898581518110610f5d57610f5d612476565b6020026020010151604051610f729190611dd2565b60405180910390a350600101610e77565b5060007f2f38e4d1636e7779ad62cfa88be99a558be72503fa6916e4ea7ff7cc6a91b6e685604051610fb791815260200190565b60405180910390a29150506107196001600c55565b610fd4611065565b6001600160a01b038116610ffe57604051631e4fbdf760e01b815260006004820152602401610755565b6108f781611255565b60006001600160e01b0319821663780e9d6360e01b14806105015750610501826115aa565b6000818152600260205260408120546001600160a01b03168061050157604051637e27328960e01b815260048101849052602401610755565b600b546001600160a01b031633146108935760405163118cdaa760e01b8152336004820152602401610755565b6002600c54036110b557604051633ee5aeb560e01b815260040160405180910390fd5b6002600c55565b600d5460ff16156108935760405163d93c066560e01b815260040160405180910390fd5b61072b8282604051806020016040528060008152506115cf565b6000828152600660205260409020611112828261238a565b506040518281527ff8e1a15aba9398e019f0b49df1a4fde98ee17ae345cb5f6b5e2c27f5033e8ce790602001610877565b6108b083838360016115e7565b600061115d8484846116ed565b949350505050565b61116d6117ba565b600d805460ff191690557f5db9ee0a495bf2e6ff9c91a7834c1ba4fdd244a5e8aa4e537bd38aeae4b073aa335b6040516001600160a01b03909116815260200160405180910390a1565b60006001600160a01b0383161580159061115d5750826001600160a01b0316846001600160a01b031614806111f157506111f18484610d78565b8061115d5750506000908152600460205260409020546001600160a01b03908116911614919050565b60006112296000836000611150565b90506001600160a01b03811661072b57604051637e27328960e01b815260048101839052602401610755565b600b80546001600160a01b038381166001600160a01b0319831681179093556040519116919082907f8be0079c531659141344cd1fd0a4f28419497f9722a3daafe3b4186f6b6457e090600090a35050565b6112af6110bc565b600d805460ff191660011790557f62e78cea01bee320cd4e420270b5ea74000d11b0c9f74754ebdbfc544b05a25861119a3390565b6001600160a01b03821661131657604051630b61174360e31b81526001600160a01b0383166004820152602401610755565b6001600160a01b03838116600081815260056020908152604080832094871680845294825291829020805460ff191686151590811790915591519182527f17307eab39ab6107e8899845ad3d59bd9653f200f220920489ca2b5937696c31910160405180910390a3505050565b6001600160a01b0383163b156114a757604051630a85bd0160e11b81526001600160a01b0384169063150b7a02906113c59088908890879087906004016124b2565b6020604051808303816000875af1925050508015611400575060408051601f3d908101601f191682019092526113fd918101906124ef565b60015b611469573d80801561142e576040519150601f19603f3d011682016040523d82523d6000602084013e611433565b606091505b50805160000361146157604051633250574960e11b81526001600160a01b0385166004820152602401610755565b805160208201fd5b6001600160e01b03198116630a85bd0160e11b146114a557604051633250574960e11b81526001600160a01b0385166004820152602401610755565b505b5050505050565b60606114b98261102c565b50600082815260066020526040812080546114d3906122da565b80601f01602080910402602001604051908101604052809291908181526020018280546114ff906122da565b801561154c5780601f106115215761010080835404028352916020019161154c565b820191906000526020600020905b81548152906001019060200180831161152f57829003601f168201915b50505050509050600061155d6117dd565b9050805160000361156f575092915050565b8151156115a157808260405160200161158992919061250c565b60405160208183030381529060405292505050919050565b61115d846117ec565b60006001600160e01b03198216632483248360e11b1480610501575061050182611853565b6115d983836118a3565b6108b0336000858585611383565b80806115fb57506001600160a01b03821615155b156116bd57600061160b8461102c565b90506001600160a01b038316158015906116375750826001600160a01b0316816001600160a01b031614155b801561164a57506116488184610d78565b155b156116735760405163a9fbf51f60e01b81526001600160a01b0384166004820152602401610755565b81156116bb5783856001600160a01b0316826001600160a01b03167f8c5be1e5ebec7d5bd14f71427d1e84f3dd0314c0f7b2291e5b200ac8c7c3b92560405160405180910390a45b505b5050600090815260046020526040902080546001600160a01b0319166001600160a01b0392909216919091179055565b6000806116fb858585611908565b90506001600160a01b0381166117585761175384600980546000838152600a60205260408120829055600182018355919091527f6e1540171b6c0c960b71a7020d9f60077f6af931a8bbf590da0223dacf75c7af0155565b61177b565b846001600160a01b0316816001600160a01b03161461177b5761177b8185611a01565b6001600160a01b0385166117975761179284611a82565b61115d565b846001600160a01b0316816001600160a01b03161461115d5761115d8585611b31565b600d5460ff1661089357604051638dfc202b60e01b815260040160405180910390fd5b6060600e8054610516906122da565b60606117f78261102c565b5060006118026117dd565b905060008151116118225760405180602001604052806000815250610719565b8061182c84611b81565b60405160200161183d92919061250c565b6040516020818303038152906040529392505050565b60006001600160e01b031982166380ac58cd60e01b148061188457506001600160e01b03198216635b5e139f60e01b145b8061050157506301ffc9a760e01b6001600160e01b0319831614610501565b6001600160a01b0382166118cd57604051633250574960e11b815260006004820152602401610755565b60006118db83836000611150565b90506001600160a01b038116156108b0576040516339e3563760e11b815260006004820152602401610755565b6000828152600260205260408120546001600160a01b039081169083161561193557611935818486611c13565b6001600160a01b03811615611973576119526000856000806115e7565b6001600160a01b038116600090815260036020526040902080546000190190555b6001600160a01b038516156119a2576001600160a01b0385166000908152600360205260409020805460010190555b60008481526002602052604080822080546001600160a01b0319166001600160a01b0389811691821790925591518793918516917fddf252ad1be2c89b69c2b068fc378daa952ba7f163c4a11628f55a4df523b3ef91a4949350505050565b6000611a0c83610b0d565b6000838152600860209081526040808320546001600160a01b0388168452600790925290912091925090818314611a6357600083815260208281526040808320548584528184208190558352600890915290208290555b6000938452600860209081526040808620869055938552525081205550565b600954600090611a949060019061248c565b6000838152600a602052604081205460098054939450909284908110611abc57611abc612476565b906000526020600020015490508060098381548110611add57611add612476565b6000918252602080832090910192909255828152600a90915260408082208490558582528120556009805480611b1557611b1561253b565b6001900381819060005260206000200160009055905550505050565b60006001611b3e84610b0d565b611b48919061248c565b6001600160a01b039093166000908152600760209081526040808320868452825280832085905593825260089052919091209190915550565b60606000611b8e83611c77565b60010190506000816001600160401b03811115611bad57611bad611e1a565b6040519080825280601f01601f191660200182016040528015611bd7576020820181803683370190505b5090508181016020015b600019016f181899199a1a9b1b9c1cb0b131b232b360811b600a86061a8153600a8504945084611be157509392505050565b611c1e8383836111b7565b6108b0576001600160a01b038316611c4c57604051637e27328960e01b815260048101829052602401610755565b60405163177e802f60e01b81526001600160a01b038316600482015260248101829052604401610755565b60008072184f03e93ff9f4daa797ed6e38ed64bf6a1f0160401b8310611cb65772184f03e93ff9f4daa797ed6e38ed64bf6a1f0160401b830492506040015b6d04ee2d6d415b85acef81000000008310611ce2576d04ee2d6d415b85acef8100000000830492506020015b662386f26fc100008310611d0057662386f26fc10000830492506010015b6305f5e1008310611d18576305f5e100830492506008015b6127108310611d2c57612710830492506004015b60648310611d3e576064830492506002015b600a83106105015760010192915050565b6001600160e01b0319811681146108f757600080fd5b600060208284031215611d7757600080fd5b813561071981611d4f565b60005b83811015611d9d578181015183820152602001611d85565b50506000910152565b60008151808452611dbe816020860160208601611d82565b601f01601f19169290920160200192915050565b6020815260006107196020830184611da6565b600060208284031215611df757600080fd5b5035919050565b80356001600160a01b0381168114611e1557600080fd5b919050565b634e487b7160e01b600052604160045260246000fd5b604051601f8201601f191681016001600160401b0381118282101715611e5857611e58611e1a565b604052919050565b6000806001600160401b03841115611e7a57611e7a611e1a565b50601f8301601f1916602001611e8f81611e30565b915050828152838383011115611ea457600080fd5b828260208301376000602084830101529392505050565b600082601f830112611ecc57600080fd5b61071983833560208501611e60565b600080600060608486031215611ef057600080fd5b611ef984611dfe565b925060208401356001600160401b03811115611f1457600080fd5b611f2086828701611ebb565b93969395505050506040919091013590565b60008060408385031215611f4557600080fd5b611f4e83611dfe565b946020939093013593505050565b600080600060608486031215611f7157600080fd5b611f7a84611dfe565b9250611f8860208501611dfe565b929592945050506040919091013590565b60008060408385031215611fac57600080fd5b82356001600160401b03811115611fc257600080fd5b611fce85828601611ebb565b92505060208301356001600160401b03811115611fea57600080fd5b611ff685828601611ebb565b9150509250929050565b60006020828403121561201257600080fd5b81356001600160401b0381111561202857600080fd5b61115d84828501611ebb565b86815285602082015284604082015260018060a01b038416606082015260c06080820152600061206760c0830185611da6565b82810360a08401526120798185611da6565b9998505050505050505050565b60006020828403121561209857600080fd5b61071982611dfe565b600080604083850312156120b457600080fd5b6120bd83611dfe565b9150602083013580151581146120d257600080fd5b809150509250929050565b600080600080608085870312156120f357600080fd5b6120fc85611dfe565b935061210a60208601611dfe565b92506040850135915060608501356001600160401b0381111561212c57600080fd5b8501601f8101871361213d57600080fd5b61214c87823560208401611e60565b91505092959194509250565b6000806040838503121561216b57600080fd5b50508035926020909101359150565b6000806040838503121561218d57600080fd5b61219683611dfe565b91506121a460208401611dfe565b90509250929050565b6000806000606084860312156121c257600080fd5b6121cb84611dfe565b925060208401356001600160401b038111156121e657600080fd5b8401601f810186136121f757600080fd5b80356001600160401b0381111561221057612210611e1a565b8060051b61222060208201611e30565b9182526020818401810192908101908984111561223c57600080fd5b6020850192505b838310156122825782356001600160401b0381111561226157600080fd5b6122708b602083890101611ebb565b83525060209283019290910190612243565b96999698505050506040949094013593505050565b602080825282518282018190526000918401906040840190835b818110156122cf5783518352602093840193909201916001016122b1565b509095945050505050565b600181811c908216806122ee57607f821691505b60208210810361230e57634e487b7160e01b600052602260045260246000fd5b50919050565b634e487b7160e01b600052601160045260246000fd5b60006001820161233c5761233c612314565b5060010190565b601f8211156108b057806000526020600020601f840160051c8101602085101561236a5750805b601f840160051c820191505b818110156114a75760008155600101612376565b81516001600160401b038111156123a3576123a3611e1a565b6123b7816123b184546122da565b84612343565b6020601f8211600181146123eb57600083156123d35750848201515b600019600385901b1c1916600184901b1784556114a7565b600084815260208120601f198516915b8281101561241b57878501518255602094850194600190920191016123fb565b50848210156124395786840151600019600387901b60f8161c191681555b50505050600190811b01905550565b60408152600061245b6040830185611da6565b828103602084015261246d8185611da6565b95945050505050565b634e487b7160e01b600052603260045260246000fd5b8181038181111561050157610501612314565b8082018082111561050157610501612314565b6001600160a01b03858116825284166020820152604081018390526080606082018190526000906124e590830184611da6565b9695505050505050565b60006020828403121561250157600080fd5b815161071981611d4f565b6000835161251e818460208801611d82565b835190830190612532818360208801611d82565b01949350505050565b634e487b7160e01b600052603160045260246000fdfea26469706673582212208057b32a6dc19fb3ab7b6c53c782e4a2f6bcc796c0ab696cd06eea990d1e32fe64736f6c634300081c0033a26469706673582212204abc8d35cac8e2d6d174b78f2d08e80f019856924bac27ce1ef863f3559ab2a964736f6c634300081c0033",
  "linkReferences": {},
  "deployedLinkReferences": {},
  "immutableReferences": {},
  "inputSourceName": "project/contracts/NFTCollectionFactory.sol",
  "buildInfoId": "solc-0_8_28-281da2440c2d1c8c3c969341bad2cab4a750ed73"
}